:020000040000FA
:100000000C9458000C9480000C9480000C94800098
:100010000C9480000C9480000C9480000C94800060
:100020000C9480000C9480000C9480000C94800050
:100030000C9480000C9480000C9480000C94800040
:100040000C94E9020C9480000C9459030C94330333
:100050000C9480000C9480000C9480000C94800020
:100060000C948B030C9480000000000025002800F5
:100070002B00040404040404040402020202020229
:10008000030303030303010204081020408001025C
:1000900004081020010204081020000000080002DB
:1000A0000100000304070000000000000000AA0493
:1000B00011241FBECFEFD8E0DEBFCDBF11E0A0E01E
:1000C000B1E0E6EFFCE002C005900D92A432B1076A
:1000D000D9F722E0A4E2B1E001C01D92AE36B2072A
:1000E000E1F710E0C8E5D0E004C02197FE010E94CE
:1000F0007306C735D107C9F70E94E3040C9479064B
:100100000C94000090E0FC01E656FF4F2491FC01A6
:10011000EA57FF4F3491FC01EE58FF4FE491EE2374
:10012000C9F0222339F0233001F1A8F4213019F16C
:10013000223029F1F0E0EE0FFF1FE859FF4FA591A3
:10014000B4918FB7F894EC91611126C030953E239D
:100150003C938FBF08952730A9F02830C9F0243090
:1001600049F7809180008F7D03C0809180008F7758
:1001700080938000DFCF84B58F7784BDDBCF84B5DB
:100180008F7DFBCF8091B0008F778093B000D2CF6E
:100190008091B0008F7DF9CF3E2BDACF3FB7F89436
:1001A0008091C1019091C201A091C301B091C4019D
:1001B00026B5A89B05C02F3F19F00196A11DB11DC2
:1001C0003FBFBA2FA92F982F8827BC01CD01620FFE
:1001D000711D811D911D42E0660F771F881F991FB9
:1001E0004A95D1F708958091BB019091BA01891B7E
:1001F000990B089508950895AF92BF92CF92DF9220
:10020000EF92FF920F931F93CF93DF936C017B01CB
:100210008B01040F151FEB015E01AE18BF08C0175C
:10022000D10759F06991D601ED91FC910190F081CF
:10023000E02DC6010995892B79F7C501DF91CF9192
:100240001F910F91FF90EF90DF90CF90BF90AF90F4
:100250000895FC01538D448D252F30E0842F90E0CC
:10026000821B930B541710F0CF96089501970895B1
:10027000FC01918D828D981761F0A28DAE0FBF2F7A
:10028000B11D5D968C91928D9F5F9F73928F90E0D0
:1002900008958FEF9FEF0895FC01918D828D98173F
:1002A00031F0828DE80FF11D858D90E008958FEF7C
:1002B0009FEF0895FC01918D228D892F90E0805C45
:1002C0009F4F821B91098F739927089585EC91E0C8
:1002D0000E945A0121E0892B09F420E0822F089521
:1002E00080E090E0892B29F00E94660181110C9436
:1002F00000000895FC01A48DA80FB92FB11DA35AC9
:10030000BF4F2C91848D90E001968F739927848F35
:10031000A689B7892C93A089B1898C918370806458
:100320008C93938D848D981306C00288F389E02DF9
:1003300080818F7D80830895EF92FF920F931F93AA
:10034000CF93DF93EC0181E0888F9B8D8C8D981388
:100350001AC0E889F989808185FF15C09FB7F89494
:10036000EE89FF896083E889F989808183708064E0
:1003700080839FBF81E090E0DF91CF911F910F912B
:10038000FF90EF900895F62E0B8D10E00F5F1F4F3A
:100390000F731127E02E8C8D8E110CC00FB607FC49
:1003A000FACFE889F989808185FFF5CFCE010E94D7
:1003B0007A01F1CFEB8DEC0FFD2FF11DE35AFF4FCA
:1003C000F0829FB7F8940B8FEA89FB898081806265
:1003D000CFCFCF93DF93EC01888D8823B9F0AA8922
:1003E000BB89E889F9898C9185FD03C0808186FDF0
:1003F0000DC00FB607FCF7CF8C9185FFF2CF80813F
:1004000085FFEDCFCE010E947A01E9CFDF91CF9138
:10041000089520914501260F3327331F21323105DE
:10042000ECF420919401FC0190E080E0243069F02C
:1004300082E00895A09145012191AC014B5D5E4F92
:10044000A40FB52FB11D2C930196861798F38091B8
:100450004501680F6093450180E0089581E00895AB
:100460001092940181E08093930110928E0161E0DB
:1004700082E10E94820061E083E10E948200E9EB58
:10048000F0E080818E7F808380818D7F808388E40F
:100490008093B80085E48093BC000895CF93DF93E8
:1004A00091E0909324018823B9F0C091B800D091D5
:1004B000BA008091BC008A7B8093BC0060E082E13E
:1004C0000E94820060E083E10E9482000E9430026C
:1004D000D093BA00C093B800DF91CF9108950895EA
:1004E000E091BA018091BB01E81730F4F0E0E656E4
:1004F000FE4F808190E008958FEF9FEF08959091D7
:10050000BA018091BB012FEF3FEF981748F4E92F14
:10051000F0E0E656FE4F208130E09F5F9093BA01F5
:10052000C9010895CF93DF93CB01EA01642F0E94A4
:100530000902CE01DF91CF910895CF93DF931F92EF
:10054000CDB7DEB7698361E0CE0101960E94090252
:1005500081E090E00F90DF91CF91089590E080E0EE
:10056000089585ED8093BC0080919601909197014C
:10057000A0919801B09199010796A11DB11D23E0AA
:10058000B695A795979587952A95D1F72091BC00A8
:1005900024FD03C01092940108954091960150915A
:1005A00097016091980170919901452B462B472B3B
:1005B00069F30097A105B10541F02AE22A95F1F708
:1005C00000C00197A109B109E1CF809195010C9478
:1005D0004E021F920F920FB60F9211242F933F934A
:1005E0008F939F93AF93BF938091BD019091BE0174
:1005F000A091BF01B091C0013091BC0123E0230F55
:100600002D3758F50196A11DB11D2093BC01809393
:10061000BD019093BE01A093BF01B093C001809132
:10062000C1019091C201A091C301B091C401019692
:10063000A11DB11D8093C1019093C201A093C3017C
:10064000B093C401BF91AF919F918F913F912F9132
:100650000F900FBE0F901F90189526E8230F02965B
:10066000A11DB11DD2CF1F920F920FB60F92112470
:100670002F933F934F935F936F937F938F939F93AA
:10068000AF93BF93EF93FF9385EC91E00E947A01C3
:10069000FF91EF91BF91AF919F918F917F916F915A
:1006A0005F914F913F912F910F900FBE0F901F9030
:1006B00018951F920F920FB60F9211242F938F93BC
:1006C0009F93EF93FF93E091D501F091D601808144
:1006D000E091DB01F091DC0182FD1BC090818091F3
:1006E000DE018F5F8F732091DF01821741F0E0916F
:1006F000DE01F0E0EB53FE4F958F8093DE01FF911A
:10070000EF919F918F912F910F900FBE0F901F909F
:1007100018958081F4CF1F920F920FB60F9211247B
:100720002F933F934F935F936F937F938F939F93F9
:10073000AF93BF93EF93FF938091B900887F80368A
:1007400009F44AC0F0F5883209F4A7C018F58031E1
:1007500009F49BC0B8F4882309F4F9C0883009F47F
:1007600094C0FF91EF91BF91AF919F918F917F9135
:100770006F915F914F913F912F910F900FBE0F900E
:100780001F901895883109F488C0803251F7809302
:10079000920114C0803409F49DC040F48033B9F351
:1007A0008833F9F68093920185ECB0C0803509F466
:1007B00085C0883509F496C0883499F60E94B10244
:1007C000D0CF883909F48CC038F5883729F050F437
:1007D000883611F0803729F683E0809394011092D7
:1007E000670157C0883809F47BC0803919F0803818
:1007F00009F0B7CF80916701803208F071C0E091B5
:10080000670181E08E0F809367018091BB00F0E06B
:10081000E95BFE4F80833DC0803B39F0E0F4803AD5
:1008200009F479C0883A09F09CCF84E08093940160
:100830001092460110924501E0916A01F0916B011E
:1008400009958091450181110FC081E08093450198
:100850001092250109C0803C09F4A6CF883C09F418
:10086000A3CF883B09F07DCFE091460181E08E0F58
:1008700080934601F0E0EB5DFE4F80818093BB00EA
:10088000909146018091450129C080918F0180930C
:10089000BB0085EC8093BC0064CF90919101809166
:1008A0009001981758F5E091910181E08E0F8093A7
:1008B0009101F0E0E259FE4F8081E9CFE091910192
:1008C00081E08E0F809391018091BB00F0E0E259AE
:1008D000FE4F808390919101809190019817C8F20A
:1008E00085E8D8CFE091910181E08E0F809391014E
:1008F0008091BB00F0E0E259FE4F8083809193012C
:1009000081115CCF81E080938E0184EA8093BC00EA
:100910001092940126CF85EC8093BC001092940134
:1009200080916701803230F4E0916701F0E0E95B8B
:10093000FE4F10826091670170E0E0916801F091D4
:10094000690187E491E00995109267010ACF10923E
:10095000920134CFE5ECF1E01382128288EE93E04D
:10096000A0E0B0E084839583A683B78324E031E0E0
:100970003183208325EC30E03587248724EC30E078
:100980003787268720EC30E0318B208B21EC30E05C
:10099000338B228B22EC30E0358B248B26EC30E03D
:1009A000378B268B118E128E138E148EE2E6F2E0B8
:1009B0001382128284839583A683B78386E191E0B4
:1009C000918380830895789484B5826084BD84B5D2
:1009D000816084BD85B5826085BD85B5816085BD3A
:1009E00080916E00816080936E00109281008091F2
:1009F000810082608093810080918100816080937A
:100A00008100809180008160809380008091B1009E
:100A100084608093B1008091B00081608093B000C9
:100A200080917A00846080937A0080917A0082605D
:100A300080937A0080917A00816080937A0080911F
:100A40007A00806880937A001092C1001092BA01F7
:100A50001092BB0110926D0110926C010E94300245
:100A60008AEF90E090936B0180936A018BEF90E0A6
:100A70009093690180936801E091D501F091D601CE
:100A800082E08083E091D101F091D2011082E09167
:100A9000D301F091D4018FEC80831092DD01E091BD
:100AA000D901F091DA0186E08083E091D701F091DD
:100AB000D801808180618083E091D701F091D801D5
:100AC000808188608083E091D701F091D801808196
:100AD00080688083E091D701F091D80180818F7D7B
:100AE000808395EE792E25EC622E00E010E0D1E0B7
:100AF00055245A9435E0432E0E94CE006B017C01B0
:100B000080919401811161C0D0939401D09393019D
:100B1000509292011092910140929001D0938F01D6
:100B200080918F01846080938F0180918E0181304C
:100B300009F083C010928E010E94CE006B017C01EF
:100B400080918F018093BB008091960190919701D5
:100B5000A0919801B0919901892B8A2B8B2BA1F040
:100B60000E94CE008090960190909701A0909801ED
:100B7000B09099016C197D098E099F098616970618
:100B8000A806B90608F442C08091BC0083FDD8CF06
:100B90006092BC000E94CE006B017C0180919401A8
:100BA000813009F44DC080919101C6E0863010F487
:100BB000C0919101AEE6B1E0EAE9F1E080E08C1786
:100BC00051F19D9191938F5FFACF80919601909111
:100BD0009701A0919801B0919901892B8A2B8B2BB9
:100BE00009F48ECF0E94CE008090960190909701DC
:100BF000A0909801B09099016C197D098E099F0908
:100C000086169706A806B90608F07ACF8091950156
:100C10000E944E02C0E01092BA01C093BB018091C5
:100C2000BA01C81779F182E692E00E947F02682F2C
:100C300085EC91E00E949C01F2CF7092BC00AACF9B
:100C40008091960190919701A0919801B09199019E
:100C5000892B8A2B8B2B09F4A1CF0E94CE00809088
:100C6000960190909701A0909801B09099016C190D
:100C70007D098E099F0986169706A806B90608F011
:100C80008DCFC4CF0E94CE004B015C0184EFC82EF3
:100C9000DD24D394E12CF12C0E94CE00681979094F
:100CA0008A099B09683E734081059105A8F321E0FC
:100CB000C21AD108E108F10888EE880E83E0981E78
:100CC000A11CB11CC114D104E104F10429F70115E0
:100CD000110509F411CF0E946601882309F40CCF95
:100CE0000E94000009CFEE0FFF1F0590F491E02D48
:100CF0000994F894FFCF000000009C01FC0029013A
:100D0000E9015A0138014C01000000009D029202E5
:0A0D1000AE026F02F3007F027002D2
:107E0000112484B714BE81FFF0D085E080938100F7
:107E100082E08093C00088E18093C10086E0809377
:107E2000C20080E18093C4008EE0C9D0259A86E02C
:107E300020E33CEF91E0309385002093840096BBD3
:107E4000B09BFECF1D9AA8958150A9F7CC24DD24C4
:107E500088248394B5E0AB2EA1E19A2EF3E0BF2EE7
:107E6000A2D0813461F49FD0082FAFD0023811F036
:107E7000013811F484E001C083E08DD089C08234E0
:107E800011F484E103C0853419F485E0A6D080C0E4
:107E9000853579F488D0E82EFF2485D0082F10E0AE
:107EA000102F00270E291F29000F111F8ED06801E7
:107EB0006FC0863521F484E090D080E0DECF843638
:107EC00009F040C070D06FD0082F6DD080E0C81688
:107ED00080E7D80618F4F601B7BEE895C0E0D1E017
:107EE00062D089930C17E1F7F0E0CF16F0E7DF06D8
:107EF00018F0F601B7BEE89568D007B600FCFDCFD4
:107F0000A601A0E0B1E02C9130E011968C91119780
:107F100090E0982F8827822B932B1296FA010C0160
:107F200087BEE89511244E5F5F4FF1E0A038BF0790
:107F300051F7F601A7BEE89507B600FCFDCF97BE46
:107F4000E89526C08437B1F42ED02DD0F82E2BD052
:107F50003CD0F601EF2C8F010F5F1F4F84911BD097
:107F6000EA94F801C1F70894C11CD11CFA94CF0C13
:107F7000D11C0EC0853739F428D08EE10CD085E9AC
:107F80000AD08FE07ACF813511F488E018D01DD067
:107F900080E101D065CF982F8091C00085FFFCCF94
:107FA0009093C60008958091C00087FFFCCF809118
:107FB000C00084FD01C0A8958091C6000895E0E648
:107FC000F0E098E1908380830895EDDF803219F02E
:107FD00088E0F5DFFFCF84E1DECF1F93182FE3DFCA
:107FE0001150E9F7F2DF1F91089580E0E8DFEE27F6
:047FF000FF270994CA
:027FFE00040479
:00000001FF
