:020000040000FA
:100000000C9458000C9480000C9480000C94800098
:100010000C9480000C9480000C9480000C94800060
:100020000C9480000C9480000C9480000C94800050
:100030000C9480000C9480000C9480000C94800040
:100040000C945B030C9480000C94CB030C94A503DC
:100050000C9480000C9480000C9480000C94800020
:100060000C94FD030C948000000000002500280083
:100070002B00040404040404040402020202020229
:10008000030303030303010204081020408001025C
:1000900004081020010204081020000000080002DB
:1000A00001000003040700000000000000001C0520
:1000B00011241FBECFEFD8E0DEBFCDBF11E0A0E01E
:1000C000B1E0EEE7FFE002C005900D92A832B10763
:1000D000D9F722E0A8E2B1E001C01D92A539B2072C
:1000E000E1F710E0C8E5D0E004C02197FE010E94CE
:1000F000B707C735D107C9F70E9455050C94BD074E
:100100000C94000090E0FC01E656FF4F2491FC01A6
:10011000EA57FF4F3491FC01EE58FF4FE491EE2374
:10012000C9F0222339F0233001F1A8F4213019F16C
:10013000223029F1F0E0EE0FFF1FE859FF4FA591A3
:10014000B4918FB7F894EC91611126C030953E239D
:100150003C938FBF08952730A9F02830C9F0243090
:1001600049F7809180008F7D03C0809180008F7758
:1001700080938000DFCF84B58F7784BDDBCF84B5DB
:100180008F7DFBCF8091B0008F778093B000D2CF6E
:100190008091B0008F7DF9CF3E2BDACF3FB7F89436
:1001A0008091E8019091E901A091EA01B091EB0101
:1001B00026B5A89B05C02F3F19F00196A11DB11DC2
:1001C0003FBFBA2FA92F982F8827BC01CD01620FFE
:1001D000711D811D911D42E0660F771F881F991FB9
:1001E0004A95D1F708958F929F92AF92BF92CF9286
:1001F000DF92EF92FF924B015C010E94CE006B01F7
:100200007C010E94CE006C197D098E099F09683E11
:10021000734081059105A8F321E0821A9108A10895
:10022000B10888EEC80E83E0D81EE11CF11C8114D1
:100230009104A104B10429F7FF90EF90DF90CF90D3
:10024000BF90AF909F908F9008958091E101909121
:10025000E001891B990B089508950895AF92BF920C
:10026000CF92DF92EF92FF920F931F93CF93DF9382
:100270006C017B018B01040F151FEB015E01AE18B1
:10028000BF08C017D10759F06991D601ED91FC91D3
:100290000190F081E02DC6010995892B79F7C50100
:1002A000DF91CF911F910F91FF90EF90DF90CF9052
:1002B000BF90AF900895FC01538D448D252F30E001
:1002C000842F90E0821B930B541710F0CF96089563
:1002D00001970895FC01918D828D981761F0A28D90
:1002E000AE0FBF2FB11D5D968C91928D9F5F9F7356
:1002F000928F90E008958FEF9FEF0895FC01918D0C
:10030000828D981731F0828DE80FF11D858D90E078
:1003100008958FEF9FEF0895FC01918D228D892F15
:1003200090E0805C9F4F821B91098F7399270895FD
:100330008CEE91E00E948C0121E0892B09F420E0F1
:10034000822F089580E090E0892B29F00E94980187
:1003500081110C9400000895FC01A48DA80FB92F01
:10036000B11DA35ABF4F2C91848D90E001968F73DD
:100370009927848FA689B7892C93A089B1898C91FC
:10038000837080648C93938D848D981306C002884B
:10039000F389E02D80818F7D80830895EF92FF9215
:1003A0000F931F93CF93DF93EC0181E0888F9B8D98
:1003B0008C8D98131AC0E889F989808185FF15C052
:1003C0009FB7F894EE89FF896083E889F989808175
:1003D0008370806480839FBF81E090E0DF91CF9144
:1003E0001F910F91FF90EF900895F62E0B8D10E066
:1003F0000F5F1F4F0F731127E02E8C8D8E110CC0D5
:100400000FB607FCFACFE889F989808185FFF5CF1F
:10041000CE010E94AC01F1CFEB8DEC0FFD2FF11D51
:10042000E35AFF4FF0829FB7F8940B8FEA89FB895C
:1004300080818062CFCFCF93DF93EC01888D8823BA
:10044000B9F0AA89BB89E889F9898C9185FD03C037
:10045000808186FD0DC00FB607FCF7CF8C9185FF1C
:10046000F2CF808185FFEDCFCE010E94AC01E9CFB4
:10047000DF91CF91089520914901260F3327331F33
:1004800021323105ECF42091BA01FC0190E080E0CA
:10049000243069F082E00895A09149012191AC01D6
:1004A000475D5E4FA40FB52FB11D2C9301968617A3
:1004B00098F380914901680F6093490180E00895A5
:1004C00081E008951092BA0181E08093B901109201
:1004D000B40161E082E10E94820061E083E10E9458
:1004E0008200E9EBF0E080818E7F808380818D7FC8
:1004F000808388E48093B80085E48093BC000895ED
:10050000CF93DF9391E0909328018823B9F0C091B5
:10051000B800D091BA008091BC008A7B8093BC0067
:1005200060E082E10E94820060E083E10E9482003C
:100530000E946202D093BA00C093B800DF91CF91BD
:1005400008950895E091E0018091E101E81730F409
:10055000F0E0E054FE4F808190E008958FEF9FEF30
:1005600008959091E0018091E1012FEF3FEF9817FE
:1005700048F4E92FF0E0E054FE4F208130E09F5F27
:100580009093E001C9010895CF92DF92EF92FF921C
:100590000F931F93CF93DF937C01CB018A012091AE
:1005A0007001222389F0EB016B01C40ED51ECC151E
:1005B000DD0569F06991D701ED91FC910190F08121
:1005C000E02DC7010995F3CF642F0E943B02C801BB
:1005D000DF91CF911F910F91FF90EF90DF90CF901F
:1005E0000895CF93DF931F92CDB7DEB76983209133
:1005F00070012223F9F020919301203258F021E07C
:1006000030E0FC013383228390E080E00F90DF91A3
:10061000CF91089580917101E82FF0E0EE58FE4FE0
:10062000998190838F5F809371018093930181E022
:1006300090E0ECCF61E0CE0101960E943B02F7CF43
:1006400090E080E0089585ED8093BC008091BC012E
:100650009091BD01A091BE01B091BF010796A11D6F
:10066000B11D23E0B695A795979587952A95D1F763
:100670002091BC0024FD03C01092BA01089540915E
:10068000BC015091BD016091BE017091BF01452B2D
:10069000462B472B69F30097A105B10541F02AE2EB
:1006A0002A95F1F700C00197A109B109E1CF809126
:1006B000BB010C9480021F920F920FB60F9211246F
:1006C0002F933F938F939F93AF93BF938091E401B8
:1006D0009091E501A091E601B091E7013091E3012D
:1006E00023E0230F2D3758F50196A11DB11D20934E
:1006F000E3018093E4019093E501A093E601B093B8
:10070000E7018091E8019091E901A091EA01B0919F
:10071000EB010196A11DB11D8093E8019093E901C1
:10072000A093EA01B093EB01BF91AF919F918F919C
:100730003F912F910F900FBE0F901F90189526E8B4
:10074000230F0296A11DB11DD2CF1F920F920FB69B
:100750000F9211242F933F934F935F936F937F9347
:100760008F939F93AF93BF93EF93FF938CEE91E0A2
:100770000E94AC01FF91EF91BF91AF919F918F913A
:100780007F916F915F914F913F912F910F900FBE8D
:100790000F901F9018951F920F920FB60F92112471
:1007A0002F938F939F93EF93FF93E091FC01F09130
:1007B000FD018081E0910202F091030282FD1BC0E5
:1007C0009081809105028F5F8F73209106028217BE
:1007D00041F0E0910502F0E0E451FE4F958F8093E7
:1007E0000502FF91EF919F918F912F910F900FBE76
:1007F0000F901F9018958081F4CF1F920F920FB623
:100800000F9211242F933F934F935F936F937F9396
:100810008F939F93AF93BF93EF93FF938091B90012
:10082000887F803609F44AC0F0F5883209F4A7C001
:1008300018F5803109F49BC0B8F4882309F4F9C095
:10084000883009F494C0FF91EF91BF91AF919F91CF
:100850008F917F916F915F914F913F912F910F9069
:100860000FBE0F901F901895883109F488C0803210
:1008700051F78093B80114C0803409F49DC040F44E
:100880008033B9F38833F9F68093B80185ECB0C0B2
:10089000803509F485C0883509F496C0883499F606
:1008A0000E942303D0CF883909F48CC038F58837EB
:1008B00029F050F4883611F0803729F683E08093D0
:1008C000BA0110926B0157C0883809F47BC0803997
:1008D00019F0803809F0B7CF80916B01803208F0B1
:1008E00071C0E0916B0181E08E0F80936B0180916C
:1008F000BB00F0E0E55BFE4F80833DC0803B39F0FC
:10090000E0F4803A09F479C0883A09F09CCF84E099
:100910008093BA0110924A0110924901E0916E0150
:10092000F0916F0109958091490181110FC081E01B
:10093000809349011092290109C0803C09F4A6CF97
:10094000883C09F4A3CF883B09F07DCFE0914A01B0
:1009500081E08E0F80934A01F0E0E75DFE4F8081D9
:100960008093BB0090914A018091490129C08091F8
:10097000B5018093BB0085EC8093BC0064CF90915F
:10098000B7018091B601981758F5E091B70181E061
:100990008E0F8093B701F0E0EC56FE4F8081E9CFD7
:1009A000E091B70181E08E0F8093B7018091BB0089
:1009B000F0E0EC56FE4F80839091B7018091B60134
:1009C0009817C8F285E8D8CFE091B70181E08E0F83
:1009D0008093B7018091BB00F0E0EC56FE4F80831E
:1009E0008091B90181115CCF81E08093B40184EAE8
:1009F0008093BC001092BA0126CF85EC8093BC0096
:100A00001092BA0180916B01803230F4E0916B0159
:100A1000F0E0E55BFE4F108260916B0170E0E091C9
:100A20006C01F0916D018BE491E0099510926B01DE
:100A30000ACF1092B80134CFECEEF1E013821282AB
:100A400088EE93E0A0E0B0E084839583A683B7832B
:100A500024E031E03183208325EC30E035872487A2
:100A600024EC30E03787268720EC30E0318B208B78
:100A700021EC30E0338B228B22EC30E0358B248B61
:100A800026EC30E0378B268B118E128E138E148E4F
:100A9000E9E8F2E01382128284839583A683B78308
:100AA00086E191E0918380830895789484B5826093
:100AB00084BD84B5816084BD85B5826085BD85B502
:100AC000816085BD80916E00816080936E00109280
:100AD00081008091810082608093810080918100FB
:100AE000816080938100809180008160809380008C
:100AF0008091B10084608093B1008091B0008160EA
:100B00008093B00080917A00846080937A00809115
:100B10007A00826080937A0080917A00816080936D
:100B20007A0080917A00806880937A001092C100E8
:100B300068EE73E080E090E00E94F3001092E00124
:100B40001092E10110927101109293010E946202D1
:100B50008CE291E090936F0180936E018DE291E0C1
:100B600090936D0180936C01E091FC01F091FD0187
:100B700082E08083E091F801F091F9011082E09128
:100B8000FA01F091FB018FEC808310920402E09156
:100B90000002F091010286E08083E091FE01F09175
:100BA000FF01808180618083E091FE01F091FF016F
:100BB000808188608083E091FE01F091FF01808157
:100BC00080688083E091FE01F091FF0180818F7D3C
:100BD000808315EE05EC80E0E82E80E0F82ED1E071
:100BE00094E0C92E22E0B22EDD24DA948CEE91E05E
:100BF0000E948C01181619060CF0B7C08CEE91E01B
:100C00000E946A018093E201D0937001C092920128
:100C1000109271011092930143E050E064E271E0A0
:100C200089E892E00E94C4026091E20189E892E0C2
:100C30000E94F102A090930180E28A1508F48FC00F
:100C4000C09192010E94CE002B013C018091BA011B
:100C5000811160C0B092BA01D093B901D092B801AD
:100C60001092B701A092B601E2E7F1E0A4E9B1E089
:100C7000A812E5C01092B5018091B501CC0FC82B28
:100C8000C093B5018091B401813009F0DCC01092AD
:100C9000B4010E94CE002B013C018091B5018093EC
:100CA000BB008091BC019091BD01A091BE01B091AB
:100CB000BF01892B8A2B8B2B99F00E94CE002091AB
:100CC000BC013091BD014091BE015091BF0164193A
:100CD0007509860997092617370748075907D8F174
:100CE0008091BC0083FDD9CF0093BC000E94CE0050
:100CF0002B013C018091BA01823009F4A7C0809198
:100D0000B8018F3F61F18091B801803241F180914B
:100D1000B80125C08091BC019091BD01A091BE0198
:100D2000B091BF01892B8A2B8B2B09F48FCF0E94A6
:100D3000CE002091BC013091BD014091BE01509187
:100D4000BF016419750986099709261737074807EF
:100D5000590708F07BCF8091BB010E94800210925E
:100D6000710110929301109270010E94CE002B012C
:100D70003C018091BA0181118BC0D093BA01D0930C
:100D8000B901D092B8011092B7011092B601D09378
:100D9000B5018091B50188608093B5018091B4015F
:100DA000813009F0ADC01092B4010E94CE002B0139
:100DB0003C018091B5018093BB008091BC01909172
:100DC000BD01A091BE01B091BF01892B8A2B8B2B55
:100DD000A1F00E94CE002091BC013091BD01409154
:100DE000BE015091BF01641975098609970926173C
:100DF00037074807590708F46CC08091BC0083FD91
:100E0000D8CF0093BC000E94CE002B013C01809102
:100E1000BA01813009F477C08091B701C1E0811136
:100E200002C0C091B701A4E9B1E0E0ECF1E080E0DC
:100E30008C1709F453C09D9191938F5FF9CF9191D5
:100E40009D938F5F15CF1093BC0050CF8091BC0154
:100E50009091BD01A091BE01B091BF01892B8A2B59
:100E60008B2B09F447CF0E94CE002091BC0130911A
:100E7000BD014091BE015091BF01641975098609F9
:100E80009709261737074807590708F033CF63CF6C
:100E90008091BC019091BD01A091BE01B091BF01B4
:100EA000892B8A2B8B2B09F464CF0E94CE002091D2
:100EB000BC013091BD014091BE015091BF01641948
:100EC000750986099709261737074807590708F053
:100ED00050CF8091BB010E948002C0E01092E001DF
:100EE000C093E1018091E001C81779F189E892E0AF
:100EF0000E94B102682F8CEE91E00E94CE01F2CFE9
:100F00001093BC0080CF8091BC019091BD01A09155
:100F1000BE01B091BF01892B8A2B8B2B09F477CFAF
:100F20000E94CE002091BC013091BD014091BE01D4
:100F30005091BF016419750986099709261737076B
:100F40004807590708F063CFC4CF64E670E080E03B
:100F500090E00E94F300E114F10409F447CE0E94EE
:100F60009801882309F442CE0E9400003FCEEE0F84
:100F7000FF1F0590F491E02D0994F894FFCF000035
:100F80000000CE012E015B011B028C016A017E0173
:100F900000000000F102C4022003A1022501B102F9
:060FA000A2024D3A200000
:107E0000112484B714BE81FFF0D085E080938100F7
:107E100082E08093C00088E18093C10086E0809377
:107E2000C20080E18093C4008EE0C9D0259A86E02C
:107E300020E33CEF91E0309385002093840096BBD3
:107E4000B09BFECF1D9AA8958150A9F7CC24DD24C4
:107E500088248394B5E0AB2EA1E19A2EF3E0BF2EE7
:107E6000A2D0813461F49FD0082FAFD0023811F036
:107E7000013811F484E001C083E08DD089C08234E0
:107E800011F484E103C0853419F485E0A6D080C0E4
:107E9000853579F488D0E82EFF2485D0082F10E0AE
:107EA000102F00270E291F29000F111F8ED06801E7
:107EB0006FC0863521F484E090D080E0DECF843638
:107EC00009F040C070D06FD0082F6DD080E0C81688
:107ED00080E7D80618F4F601B7BEE895C0E0D1E017
:107EE00062D089930C17E1F7F0E0CF16F0E7DF06D8
:107EF00018F0F601B7BEE89568D007B600FCFDCFD4
:107F0000A601A0E0B1E02C9130E011968C91119780
:107F100090E0982F8827822B932B1296FA010C0160
:107F200087BEE89511244E5F5F4FF1E0A038BF0790
:107F300051F7F601A7BEE89507B600FCFDCF97BE46
:107F4000E89526C08437B1F42ED02DD0F82E2BD052
:107F50003CD0F601EF2C8F010F5F1F4F84911BD097
:107F6000EA94F801C1F70894C11CD11CFA94CF0C13
:107F7000D11C0EC0853739F428D08EE10CD085E9AC
:107F80000AD08FE07ACF813511F488E018D01DD067
:107F900080E101D065CF982F8091C00085FFFCCF94
:107FA0009093C60008958091C00087FFFCCF809118
:107FB000C00084FD01C0A8958091C6000895E0E648
:107FC000F0E098E1908380830895EDDF803219F02E
:107FD00088E0F5DFFFCF84E1DECF1F93182FE3DFCA
:107FE0001150E9F7F2DF1F91089580E0E8DFEE27F6
:047FF000FF270994CA
:027FFE00040479
:00000001FF
