:100000000C9435000C9452000C9452000C94520045
:100010000C9452000C9452000C9452000C94520018
:100020000C9452000C9452000C9452000C94520008
:100030000C9452000C9452000C9452000C945200F8
:100040000C94AB000C9452000C9452000C9452008F
:100050000C9452000C9452000C9452000C945200D8
:100060000C9452000C945200AD0111241FBECFEF2E
:10007000D8E0DEBFCDBF21E0A0E0B1E001C01D921D
:10008000A930B207E1F710E0C5E3D0E004C0219742
:10009000FE010E94B901C433D107C9F70E94F500DF
:1000A0000C94BF010C9400003FB7F89480910501B7
:1000B00090910601A0910701B091080126B5A89B77
:1000C00005C02F3F19F00196A11DB11D3FBFBA2FEA
:1000D000A92F982F8827BC01CD01620F711D811DAA
:1000E000911D42E0660F771F881F991F4A95D1F72F
:1000F00008958F929F92AF92BF92CF92DF92EF922C
:10010000FF924B015C010E9454006B017C010E9434
:1001100054006C197D098E099F09683E7340810562
:100120009105A8F321E0821A9108A108B10888EE90
:10013000C80E83E0D81EE11CF11C81149104A104B7
:10014000B10429F7FF90EF90DF90CF90BF90AF9070
:100150009F908F9008951F920F920FB60F921124C7
:100160002F933F938F939F93AF93BF938091010100
:1001700090910201A0910301B0910401309100011E
:1001800023E0230F2D3758F50196A11DB11D2093B3
:1001900000018093010190930201A0930301B093A9
:1001A00004018091050190910601A0910701B09191
:1001B00008010196A11DB11D8093050190930601D0
:1001C000A0930701B0930801BF91AF919F918F91C8
:1001D0003F912F910F900FBE0F901F90189526E81A
:1001E000230F0296A11DB11DD2CF789484B58260F1
:1001F00084BD84B5816084BD85B5826085BD85B5CB
:10020000816085BD80916E00816080936E00109248
:1002100081008091810082608093810080918100C3
:100220008160809381008091800081608093800054
:100230008091B10084608093B1008091B0008160B2
:100240008093B00080917A00846080937A008091DE
:100250007A00826080937A0080917A008160809336
:100260007A0080917A00806880937A001092C100B1
:1002700087E084B985B1877085B9C0E0D0E085B1E9
:10028000887F816085B96AEF70E080E090E00E942D
:10029000790085B1887F85B985B1876085B96CE2C1
:1002A00071E080E090E00E94790085B1887F85B997
:1002B0006CE271E080E090E00E94790085B1876097
:1002C00085B96CE271E080E090E00E94790085B130
:1002D000887F85B96CE271E080E090E00E9479004F
:1002E00085B1887F846085B96AEF70E080E090E036
:1002F0000E94790085B1887F85B96AEF70E080E05F
:1003000090E00E94790004E010E085B1876085B933
:1003100064EF71E080E090E00E94790085B1887F11
:1003200085B964EF71E080E090E00E9479000150AF
:10033000110959F785B1876085B96AEF70E080E0EF
:1003400090E00E94790085B1887F816085B920970F
:1003500009F495CF0E94000092CF8FB7F894409196
:1003600001015091020160910301709104018FBF5E
:100370000895EE0FFF1F0590F491E02D0994F89475
:02038000FFCFAD
:00000001FF
