:100000000C941B010C9443010C9443010C94430188
:100010000C9443010C9443010C9443010C94430150
:100020000C9443010C9443010C9443010C94430140
:100030000C9443010C9443010C9443010C94430130
:100040000C94A8060C9443010C9418070C94F20627
:100050000C9443010C9443010C9443010C94430110
:100060000C944A070C94430108000000BE922449F6
:10007000123EABAAAA2ABECDCCCC4C3E00000080DA
:10008000BEABAAAAAA3E00000000BF000000803F4D
:100090000000000000084178D3BB4387D1133D190D
:1000A0000E3CC3BD4282AD2B3E68EC8276BED98F3A
:1000B000E1A93E4C80EFFFBE01C4FF7F3F0000007E
:1000C000000007634236B79BD8A71A39685618AEA6
:1000D000BAAB558C1D3CB7CC5763BD6DEDFD753E7D
:1000E000F6177231BF000000803F00407A10F35ACB
:1000F00000A0724E18090010A5D4E80000E8764868
:10010000170000E40B54020000CA9A3B000000E113
:10011000F505000080969800000040420F000000A6
:10012000A08601000000102700000000E803000086
:1001300000006400000000000A0000000000010050
:10014000000000002C76D888DC674F0823DFC1DF71
:10015000AE59E1B1B796E5E3E453C63AE651997674
:1001600096E8E6C28426EB898C9B62ED407C6FFCAE
:10017000EFBC9C9F40F2BAA56FA5F490055A2AF7F0
:100180005C936B6CF9676DC11BFCE0E40D47FEF5F9
:1001900020E6B500D0ED902E030094357705008061
:1001A000841E080000204E0A000000C80C333333C0
:1001B000330F986E12831141EF8D2114893BE65560
:1001C00016CFFEE6DB18D1844B381BF77C1D901D43
:1001D000A4BBE424203284725E228100C9F124ECA5
:1001E000A1E53D270000000800020100000304070C
:1001F00000000000000000000000000025002800B2
:100200002B0000000000240027002A00040404043E
:1002100004040404020202020202030303030303B0
:10022000010204081020408001020408102001028D
:1002300004081020690811241FBECFEFD8E0DEBFEC
:10024000CDBF23E0AEE7B1E001C01D92A73BB207EE
:10025000E1F711E0A0E0B1E0E0ECFDE202C00590C2
:100260000D92AE37B107D9F711E0CBE1D1E004C070
:100270002197FE010E942D12CA31D107C9F70E94B1
:10028000A2080C94DE160C9400000895CF93DF931F
:10029000AC01E0918202F09183023097F1F09091ED
:1002A0000903809108039817C0F090E0292F30E0EF
:1002B0002617370754F4D901A25EBD4F240F351F0E
:1002C000E90128812C939F5FF1CF1092090360937D
:1002D0000803CB01DF91CF910994DF91CF9108956D
:1002E000CF93DF9390E0FC01E05EFD4F2491845FAB
:1002F0009D4FFC0184918823C1F090E0880F991FE5
:10030000FC01EE5FFD4FC591D491FC01E850FE4F1A
:10031000A591B4919FB7F8943881822F809583235B
:100320008883EC91E22BEC939FBFDF91CF910895EE
:1003300090E0FC01EC51FE4F2491FC01E05EFD4F8A
:100340003491FC01E45FFD4FE491EE23C9F02223D8
:1003500039F0233001F1A8F4213019F1223029F1CC
:10036000F0E0EE0FFF1FE850FE4FA591B4918FB75C
:10037000F894EC91611126C030953E233C938FBFD9
:1003800008952730A9F02830C9F0243049F780912A
:1003900080008F7D03C0809180008F7780938000E4
:1003A000DFCF84B58F7784BDDBCF84B58F7DFBCF66
:1003B0008091B0008F778093B000D2CF8091B00051
:1003C0008F7DF9CF3E2BDACF3FB7F8948091AC0206
:1003D0009091AD02A091AE02B091AF0226B5A89B5C
:1003E00005C02F3F19F00196A11DB11D3FBFBA2FC7
:1003F000A92F982F8827BC01CD01620F711D811D87
:10040000911D42E0660F771F881F991F4A95D1F70B
:1004100008950895AF92BF92CF92DF92EF92FF922C
:100420000F931F93CF93DF936C017B018B01040F1C
:10043000151FEB015E01AE18BF08C017D10759F0B8
:100440006991D601ED91FC910190F081E02DC601FA
:100450000995892B79F7C501DF91CF911F910F91F4
:10046000FF90EF90DF90CF90BF90AF900895FC0188
:10047000538D448D252F30E0842F90E0821B930B09
:10048000541710F0CF96089501970895FC01918DAF
:10049000828D981761F0A28DAE0FBF2FB11D5D96B2
:1004A0008C91928D9F5F9F73928F90E008958FEF54
:1004B0009FEF08952FB7F8948091B0029091B10208
:1004C000A091B202B091B3022FBF80931203909318
:1004D0001303A0931403B09315038AE093E00E94E2
:1004E000460297FF26C02FB7F8948091B0029091F2
:1004F000B102A091B202B091B3022FBF409112039A
:10050000509113036091140370911503841B950B94
:10051000A60BB70B40910E0350910F03609110038F
:100520007091110384179507A607B707B0F28FEFF4
:100530009FEF0895FC01918D828D981731F0828D87
:10054000E80FF11D858D90E008958FEF9FEF0895DE
:10055000FC01918D228D892F90E0805C9F4F821B42
:1005600091098F73992708958AE093E00E94A80269
:1005700021E0892B09F420E0822F089580E090E0AB
:10058000892B29F00E94B40281110C940000089577
:10059000FC01A48DA80FB92FB11DA35ABF4F2C91F8
:1005A000848D90E001968F739927848FA689B789EF
:1005B0002C93A089B1898C91837080648C93938DE6
:1005C000848D981306C00288F389E02D80818F7D89
:1005D00080830895EF92FF920F931F93CF93DF9341
:1005E000EC0181E0888F9B8D8C8D98131AC0E8896F
:1005F000F989808185FF15C09FB7F894EE89FF893E
:100600006083E889F98980818370806480839FBFDB
:1006100081E090E0DF91CF911F910F91FF90EF90DB
:100620000895F62E0B8D10E00F5F1F4F0F731127EB
:10063000E02E8C8D8E110CC00FB607FCFACFE88926
:10064000F989808185FFF5CFCE010E94C802F1CFE4
:10065000EB8DEC0FFD2FF11DE35AFF4FF0829FB79A
:10066000F8940B8FEA89FB8980818062CFCFCF938A
:10067000DF93EC01888D8823B9F0AA89BB89E889CA
:10068000F9898C9185FD03C0808186FD0DC00FB670
:1006900007FCF7CF8C9185FFF2CF808185FFEDCFEE
:1006A000CE010E94C802E9CFDF91CF910895209139
:1006B0005F02260F3327331F21323105ECF42091DE
:1006C000DA02FC0190E080E0243069F082E00895D5
:1006D000A0915F022191AC01415C5D4FA40FB52F49
:1006E000B11D2C930196861798F380915F02680FD5
:1006F00060935F0280E0089581E008951092DA022D
:1007000081E08093D9021092B40261E082E10E94FC
:10071000980161E083E10E949801E9EBF0E08081BB
:100720008E7F808380818D7F808388E48093B80072
:1007300085E48093BC000895109209031092080389
:1007400010920703109206030E947E0385E491E055
:10075000909305038093040386E491E09093030350
:10076000809302030895CF93DF9391E090933E022C
:100770008823B9F0C091B800D091BA008091BC0034
:100780008A7B8093BC0060E082E10E94980160E077
:1007900083E10E9498010E947E03D093BA00C09327
:1007A000B800DF91CF910895CF92DF92EF92FF9240
:1007B0000F931F93CF93DF93D091060381E0D13243
:1007C00008F09CC0C09101030E94E4016B017C0110
:1007D0008091DA0281116CC082E08093DA0281E0BC
:1007E0008093D9028FEF8093D8021092D702D093D2
:1007F000D602A1EEB2E0E6EBF2E080E0D8138DC0C5
:100800001092B5028091B502CC0FC82BC093B502EF
:100810008091B402813009F084C01092B4020E9429
:10082000E4016B017C018091B5028093BB00809153
:10083000DC029091DD02A091DE02B091DF02892BF3
:100840008A2B8B2BA1F00E94E4010091DC02109115
:10085000DD022091DE023091DF026C197D098E09E4
:100860009F09061717072807390708F442C0809127
:10087000BC0083FDD8CF85EC8093BC000E94E401CE
:100880006B017C018091DA02823009F44CC08091C6
:10089000D8028F3F09F469C08091D802803209F4F0
:1008A00066C08091D802803309F463C084E026C01A
:1008B0008091DC029091DD02A091DE02B091DF0216
:1008C000892B8A2B8B2B09F483CF0E94E4010091A2
:1008D000DC021091DD022091DE023091DF026C1902
:1008E0007D098E099F09061717072807390708F0A1
:1008F0006FCF8091DB020E94B30385E01092070363
:10090000109206031092E002DF91CF911F910F9198
:10091000FF90EF90DF90CF9008959D9191938F5F1E
:100920006DCF85EEA9CF8091DC029091DD02A09180
:10093000DE02B091DF02892B8A2B8B2B09F4A2CF28
:100940000E94E4010091DC021091DD022091DE02A0
:100950003091DF026C197D098E099F090617170770
:100960002807390708F08ECFC4CF80E0C7CF82E0D8
:10097000C5CF83E0C3CF0895E091090380910803B8
:10098000E81730F4F0E0E25EFD4F808190E00895DA
:100990008FEF9FEF089590910903809108032FEF47
:1009A0003FEF981748F4E92FF0E0E25EFD4F208119
:1009B00030E09F5F90930903C90108958091080377
:1009C00090910903891B990B0895CF92DF92EF92C2
:1009D000FF920F931F93CF93DF937C01CB018A018A
:1009E0002091E002222389F0EB016B01C40ED51E99
:1009F000CC15DD0569F06991D701ED91FC9101906D
:100A0000F081E02DC7010995F3CF642F0E945703B1
:100A1000C801DF91CF911F910F91FF90EF90DF9070
:100A2000CF900895CF93DF931F92CDB7DEB7698340
:100A30002091E0022223F9F020910603203258F0A1
:100A400021E030E0FC013383228390E080E00F90CE
:100A5000DF91CF91089580910703E82FF0E0EF51E7
:100A6000FD4F998190838F5F8093070380930603E6
:100A700081E090E0ECCF61E0CE0101960E94570347
:100A8000F7CF90E080E00895FC0101900020E9F7A5
:100A90003197AF01481B590BBC018AE093E00C94DD
:100AA0000A02FC0180819181009711F00C94CF1211
:100AB00008950F931F93CF93DF938C01EB01FC01FB
:100AC000808191810097E1F06881798161157105DC
:100AD000A9F0428153812C813D814217530770F068
:100AE0000E9427148C819D81F801958384831D8247
:100AF0001C82DF91CF911F910F9108950E94CF1218
:100B000088819981F801918380838A819B81938375
:100B100082838C819D8195838483198218821B82B4
:100B20001A82E5CFCF93C0E080910803909109032A
:100B3000891B990B02975CF087EA93E00E94CB0433
:100B4000EC2FF0E0E457FD4F8083CF5FEDCF87EAD5
:100B500093E00E94CB0480938B022CE832E03F9319
:100B60002F9399279F938F938AE291E09F938F937E
:100B70008EE791E09F938F930E943D1482E391E072
:100B80000E9444058EE791E00E94440581E0809335
:100B9000AA028DB79EB708960FB6F8949EBF0FBEF7
:100BA0008DBFCF9108950F931F93CF93DF93EC01E7
:100BB00088819981009759F02A813B812617370750
:100BC00030F081E0DF91CF911F910F9108958B015B
:100BD0006F5F7F4F0E945813009759F09983888365
:100BE0001B830A832C813D81232B59F7FC01108242
:100BF000E8CF80E0E7CFEF92FF920F931F93CF9360
:100C0000DF93EC017B018A01BA010E94D3052881A0
:100C10003981811114C02115310519F0C9010E94D3
:100C2000CF12198218821D821C821B821A82CE0169
:100C3000DF91CF911F910F91FF90EF9008951D8349
:100C40000C83B701C9010E942714F1CFFB01019069
:100C50000020E9F73197AF01461B570B0C94FB05B9
:100C600085ED8093BC008091DC029091DD02A09123
:100C7000DE02B091DF020796A11DB11D23E0B695FB
:100C8000A795979587952A95D1F72091BC0024FDCB
:100C900003C01092DA0208954091DC025091DD0207
:100CA0006091DE027091DF02452B462B472B69F3E2
:100CB0000097A105B10541F02AE22A95F1F700C09D
:100CC0000197A109B109E1CF8091DB020C94B30334
:100CD00080E480937C0080917A00806480937A0025
:100CE00080917A0086FDFCCF609178007091790048
:100CF000072E000C880B990B0E946C0E2BE43CE332
:100D000040EA5BE30E94A70E9B01AC0160E070E447
:100D10008CE995E40E940C1020E030E04AE754E4AE
:100D20000E949F0F2AE13FE848EF57E40E940C1011
:100D30000E947E1023EE35EA4BE55FEB0E940C101B
:100D40009B01AC0160E070E080E291E40C94D6106D
:100D50001F920F920FB60F9211242F933F938F93F0
:100D60009F93AF93BF938091B0029091B102A091F5
:100D7000B202B091B3023091AB0223E0230F2D37C2
:100D800058F50196A11DB11D2093AB028093B002CE
:100D90009093B102A093B202B093B3028091AC02DF
:100DA0009091AD02A091AE02B091AF020196A11D4B
:100DB000B11D8093AC029093AD02A093AE02B093AC
:100DC000AF02BF91AF919F918F913F912F910F9063
:100DD0000FBE0F901F90189526E8230F0296A11DB5
:100DE000B11DD2CF1F920F920FB60F9211242F93E5
:100DF0003F934F935F936F937F938F939F93AF93A3
:100E0000BF93EF93FF938AE093E00E94C802FF91A3
:100E1000EF91BF91AF919F918F917F916F915F9172
:100E20004F913F912F910F900FBE0F901F901895EB
:100E30001F920F920FB60F9211242F938F939F93AF
:100E4000EF93FF93E0911A03F0911B038081E091EF
:100E50002003F091210382FD1BC090818091230328
:100E60008F5F8F7320912403821741F0E091230359
:100E7000F0E0E65FFC4F958F80932303FF91EF91A5
:100E80009F918F912F910F900FBE0F901F901895EB
:100E90008081F4CF1F920F920FB60F9211242F93DF
:100EA0003F934F935F936F937F938F939F93AF93F2
:100EB000BF93EF93FF938091B900887F803609F448
:100EC0004AC0F0F5883209F4A7C018F5803109F45A
:100ED0009BC0B8F4882309F4F9C0883009F494C0A1
:100EE000FF91EF91BF91AF919F918F917F916F9102
:100EF0005F914F913F912F910F900FBE0F901F90D8
:100F00001895883109F488C0803251F78093D8024F
:100F100014C0803409F49DC040F48033B9F38833A1
:100F2000F9F68093D80285ECB0C0803509F485C00D
:100F3000883509F496C0883499F60E943006D0CFDF
:100F4000883909F48CC038F5883729F050F4883690
:100F500011F0803729F683E08093DA021092810243
:100F600057C0883809F47BC0803919F0803809F0FF
:100F7000B7CF80918102803208F071C0E091810288
:100F800081E08E0F809381028091BB00F0E0EF59E9
:100F9000FD4F80833DC0803B39F0E0F4803A09F496
:100FA00079C0883A09F09CCF84E08093DA021092ED
:100FB000600210925F02E0910403F091050309952D
:100FC00080915F0281110FC081E080935F021092D7
:100FD0003F0209C0803C09F4A6CF883C09F4A3CFA6
:100FE000883B09F07DCFE091600281E08E0F809315
:100FF0006002F0E0E15CFD4F80818093BB00909146
:10100000600280915F0229C08091B5028093BB008D
:1010100085EC8093BC0064CF9091D7028091D6027A
:10102000981758F5E091D70281E08E0F8093D70290
:10103000F0E0EA54FD4F8081E9CFE091D70281E0F2
:101040008E0F8093D7028091BB00F0E0EA54FD4FF1
:1010500080839091D7028091D6029817C8F285E8D4
:10106000D8CFE091D70281E08E0F8093D702809194
:10107000BB00F0E0EA54FD4F80838091D9028111DA
:101080005CCF81E08093B40284EA8093BC0010922C
:10109000DA0226CF85EC8093BC001092DA028091B0
:1010A0008102803230F4E0918102F0E0EF59FD4F8F
:1010B00010826091810270E0E0910203F0910303DD
:1010C00081E692E00995109281020ACF1092D8022F
:1010D00034CFEAE0F3E01382128288EE93E0A0E0DE
:1010E000B0E084839583A683B7832AE031E031831F
:1010F000208325EC30E03587248724EC30E03787E7
:10110000268720EC30E0318B208B21EC30E0338BD4
:10111000228B22EC30E0358B248B26EC30E0378BB1
:10112000268B118E128E138E148EE7EAF3E0138253
:10113000128284839583A683B7838CE191E09183A7
:1011400080830895CF93DF93CDB7DEB7C25BD1091B
:101150000FB6F894DEBF0FBECDBF789484B5826021
:1011600084BD84B5816084BD85B5826085BD85B54B
:10117000816085BD80916E00816080936E001092C9
:101180008100809181008260809381008091810044
:1011900081608093810080918000816080938000D5
:1011A0008091B10084608093B1008091B000816033
:1011B0008093B00080917A00846080937A0080915F
:1011C0007A00826080937A0080917A0081608093B7
:1011D0007A0080917A00806880937A001092C10032
:1011E00088E00E94700189E00E94700113B11370C1
:1011F000109385020E949C03110F1093BA00E09196
:101200001A03F0911B0382E08083E0911603F091B2
:1012100017031082E0911803F09119038FEC80837B
:1012200010922203E0911E03F0911F0386E0808359
:10123000E0911C03F0911D03808180618083E09127
:101240001C03F0911D03808188608083E0911C0362
:10125000F0911D03808180688083E0911C03F091F0
:101260001D0380818F7D808388E893E1A0E0B0E05A
:1012700080930E0390930F03A0931003B093110378
:1012800082E995E0909383028093820280918502A7
:101290001F928F9385E391E09F938F93CE010196E8
:1012A0007C019F938F930E943D14C7010E944405C7
:1012B00082E391E00E9444050F900F900F900F90F1
:1012C0000F900F900E9468068AE093E00E94A802A7
:1012D000892B09F443C1C355DF4F19821882CD5AB7
:1012E000D040C155DF4F19821882CF5AD040CF5419
:1012F000DF4F19821882C15BD04064E371E0CE01F8
:1013000083559F4F0E942606C955DF4F19821882C8
:10131000C75AD040C755DF4F19821882C95AD040EA
:10132000C555DF4F19821882CB5AD04064E371E073
:10133000CE0189559F4F0E9426061A8219821C826F
:101340001B821E821D8264E371E0C7010E94260693
:101350000E945A0297FD25C08F32910511F1CF5599
:10136000DF4F8883C15AD040CE55DF4F1882C25A12
:10137000D0400D811E810F5F1F4FB801C7010E9431
:10138000D305882329F329813A818D819E81BE016D
:101390006F557F4F820F931F0E9427141E830D836A
:1013A000D7CFB701CE0183559F4F0E945905C70182
:1013B0000E945105CF54DF4FC880D980C15BD04017
:1013C000C114D10441F0C355DF4FE881F981CD5AF2
:1013D000D040309721F410928402E4E8F2E090804B
:1013E000AA24A394B12CC114D10429F4B12CA12CAA
:1013F000CC24C394D12C1A8219821C821B821E8297
:101400001D8264E371E0C7010E942606CF54DF4FBE
:1014100008811981C15BD040A016B10678F5C016CD
:10142000D10608F48601C355DF4FE881F981CD5A12
:10143000D040E00FF11FD0801082C355DF4F68818C
:101440007981CD5AD0406A0D7B1D6115710509F473
:101450007CC1FB0101900020E9F73197AF01461BE9
:10146000570BC7010E94FB05C355DF4F8881998147
:10147000CD5AD040080F191FF801D082B701CE0114
:1014800089559F4F0E945905C7010E945105CF55AC
:10149000DF4F19821882C15AD040CD55DF4F1982D3
:1014A0001882C35AD040CB55DF4F19821882C55AD3
:1014B000D040C955DF4F68817981C75AD040611546
:1014C000710559F0C555DF4F48815981CB5AD0403D
:1014D000CE018F559F4F0E94FB05CB55DF4FC88033
:1014E000D980C55AD04081E08C0DF0ED9F0E082FB9
:1014F00010E0882329F0C114D10409F033C1198206
:101500000E949C0321E02093E0029092010310923C
:10151000070310920603A801B70187EA93E00E942F
:10152000E50410918502612F87EA93E00E9412057D
:101530000E94D4030E949C03110F1093BA00CE01A5
:101540008F559F4F0E945105CE0189559F4F0E9494
:101550005105CE0183559F4F0E9451058091AA02EB
:10156000882309F4E5C0CF55DF4F19821882C15A8C
:10157000D040CD55DF4F19821882C35AD040CB5589
:10158000DF4F19821882C55AD0406CE872E0CE0154
:101590008F559F4F0E942606CF55DF4FA880B980F8
:1015A000C15AD040A114B10459F0CB55DF4F088186
:1015B0001981C55AD04065010115110509F0E8C02F
:1015C000CB55DF4F88819981C55AD040892B09F4CA
:1015D00021C1CF55DF4F08811981C15AD0406EE437
:1015E00071E0C8010E941E14DD24D394892B09F0F8
:1015F000D12C60E571E0C8010E941E1421E0892B06
:1016000009F020E0D22A09F48CC082E391E00E9424
:10161000440582E591E00E94440520918B0230E070
:1016200050E040E019A28E010F5D1F4FCA01B901C1
:101630002AE030E040E050E00E940B12605DF801CB
:1016400062938F01211531054105510579F73097D6
:1016500019F0CF010E94440582E391E00E94440505
:1016600095E0C92ED12C20908B020E94680606E8D6
:1016700012E022E045E00E940C0C05E010E00E9420
:101680009C03F1E0F093E002209201031092070323
:101690001092060345E050E066E872E087EA93E0C6
:1016A0000E94E50430908502632D87EA93E00E9452
:1016B00012050E94D4030E94E4012B013C018AEF31
:1016C000882E912CA12CB12C0E94E401641975097B
:1016D00086099709683E734081059105A8F321E0CA
:1016E000821A9108A108B10888EE480E83E0581EBE
:1016F000611C711C81149104A104B10429F70150EB
:10170000110909F0BCCF0E949C03330C3092BA003F
:10171000F1E0CF1AD10809F0A6CF8CE691E00E9443
:1017200044051092AA02CE018F559F4F0E94510589
:1017300080E090E0892B09F4C5CD0E94B402882393
:1017400009F4C0CD0E940000BDCD89819A81009727
:1017500011F00E94CF121A8219821E821D821C82F1
:101760001B8282CEC80101978C159D0508F46C017F
:10177000CF55DF4F68817981C15AD040A601C7019A
:101780000E942E14F701EC0DFD1D1082B9CE6401EC
:1017900046018FEF881A980AF6018081082E000C06
:1017A000990B0E94610E892B91F7015011090A0DC6
:1017B0001B1DF8018081082E000C990B0E94610E00
:1017C000892B31F00C151D0518F001501109F1CFCE
:1017D000A8014F5F5F4F4C195D09CB55DF4F59830F
:1017E0004883C55AD040AC14BD0420F4B601C501ED
:1017F0000E941514CF55DF4FE881F981C15AD040BE
:10180000CB55DF4F88819981C55AD040E80FF91F29
:101810001082D6CED12CF5CEEF920F931F93CF939B
:10182000DF93E80134E047FD34E1042E000C550B52
:1018300057FF03C0519541955109E32E022F242FE4
:10184000AE010E942A0CCE01DF91CF911F910F9122
:10185000EF900895A9E0B0E0E0E3FCE00C946E0F97
:101860006A01F22EB02E102FFBE3AF2EA01608F463
:101870001BE31F5F012F27E0AE014F5F5F4F0E9408
:10188000890DBC018981982F9970913009F43FC06E
:101890009BE2E1FC04C09E2D9170E0FC3AC05E2DFD
:1018A0005071E82FE87083FF46C084E0911101C0B9
:1018B00083E0EF2DE81B8F1508F0E0E0D6018E2FB6
:1018C00020E2552351F1992329F0D6019C93C601BA
:1018D00001966C0196012D5F3F4FE2FE24C08EE41D
:1018E000D6018C9391E411969C93119712968C9348
:1018F000D9018E2F90E281111BC0E20FF32FF11D51
:1019000010828EEF9FEF2996ECE00C948A0F9DE2F7
:10191000C6CF90E2C4CF2D9381508111FCCFCE0E63
:10192000D11CE0E0D0CF8EE6D6018C9391E6DBCFE0
:101930009D938150E0CF482F447082FF3DC084E0EA
:10194000911101C083E08F1510F4EF2DE81BD60133
:101950008E2F20E2552309F1992329F0D6019C937B
:10196000C60101966C0196012D5F3F4FE2FE1BC040
:1019700089E4D6018C938EE411968C93119786E4BA
:1019800012968C93D9018E2F90E2882309F4B5CF5B
:101990009D938150FACF2D9381508111FCCFCE0EB3
:1019A000D11CE0E0D9CF89E6D6018C938EE6119662
:1019B0008C93119786E6E4CF9B0177FF02C030E05D
:1019C00020E0A1E0B0E0911102C0B0E0A0E0F90198
:1019D0003196AE0FBF1F8B2C912CBB2009F461C038
:1019E0005401EFEFAE1ABE0AAA0DBB1DFA161B0674
:1019F00019F014F04F2D4A1B511188C0E3FC59C057
:101A00007601A42FB0E2A1114FC0C40ED11C9923BE
:101A100009F45BC040E0D6011196F60190836D0198
:101A2000552309F448C0012F060F9A81582F507191
:101A300084FF03C0913309F4015010160CF047C025
:101A4000093008F008E0EEE2FE2E5B01A01AB108B2
:101A500085019194819491082F3F320729F4D60192
:101A6000FC92F60131966F016217730794F1021729
:101A700013077CF5DB01A21BB30BAA24A394B12CA2
:101A8000AC0EBD1EAA0DBB1D11968C9121503109C3
:101A9000D601119628153905F4F0F60180836D0101
:101AA000DBCFB12CA12CA0CFF701B1937F01A150C6
:101AB000AACF9111B0CFD601942F50E302C05D930D
:101AC00091509111FCCFC40ED11C40E0ACCF01E08D
:101AD000BACF80E3DBCF6217730731F4963388F413
:101AE000953311F4552369F0F6018083FD01842FAD
:101AF00090E2811108C0A40FB11D1C9290E080E01B
:101B000002CF81E3F1CF91938150F3CF911183CF35
:101B10008ACF283008F027E03327DA01990F311DEA
:101B200087FD916000966105710539F432602E5F82
:101B30003D9330E32A95E1F708959F3F30F08038D8
:101B40007105610509F03C5F3C5F3D93913008F001
:101B50008068911DDF93CF931F930F93FF92EF92B5
:101B6000192F987F9695E92F96959695E90FFF275F
:101B7000EC5BFE4F99273327EE24FF24A701E701F2
:101B800005900894079428F4360FE71EF81E491FA5
:101B9000511D660F771F881F991F0694A1F70590A6
:101BA000079428F4E70EF81E491F561FC11D770F32
:101BB000881F991F661F0694A1F70590079428F4C3
:101BC000F80E491F561FC71FD11D880F991F661F8A
:101BD000771F0694A1F70590079420F4490F561F2C
:101BE000C71FD81F990F661F771F881F0694A9F774
:101BF00084911095177041F0D695C79557954795E4
:101C0000F794E7941A95C1F7EAEEF0E0689415901E
:101C1000159135916591959105907FE27395E11845
:101C2000F10A430B560BC90BD009C0F7E10CF11EAA
:101C3000431F561FC91FD01D7EF4703311F48A95BF
:101C4000E6CFE894015030F0080F0AF4002702179D
:101C500008F4202F2395022F7A3328F079E37D931F
:101C60002A95E9F710C07D932A9589F606949795F1
:101C70006795379517951794E118F10A430B560BA2
:101C8000C90BD00998F023957E9173957A3308F0AB
:101C900070E37C932013B8F77E9170617D9330F0F0
:101CA000839571E37D9370E32A95E1F71124EF901A
:101CB000FF900F911F91CF91DF91992787FD90950C
:101CC000089591110C94140F803219F089508550A9
:101CD000C8F70895E89409C097FB3EF49095809565
:101CE000709561957F4F8F4F9F4F9923A9F0F92FE2
:101CF00096E9BB279395F695879577956795B79560
:101D0000F111F8CFFAF4BB0F11F460FF1BC06F5F45
:101D10007F4F8F4F9F4F16C0882311F096E911C057
:101D2000772321F09EE8872F762F05C0662371F078
:101D300096E8862F70E060E02AF09A95660F771F8C
:101D4000881FDAF7880F9695879597F908950E946E
:101D5000BA0E0C942E0F0E94200F38F00E94270F0D
:101D600020F0952311F00C94170F0C941D0F1124E3
:101D70000C94620F0E943F0F70F3959FC1F3950F73
:101D800050E0551F629FF001729FBB27F00DB11DFF
:101D9000639FAA27F00DB11DAA1F649F6627B00D8F
:101DA000A11D661F829F2227B00DA11D621F739F78
:101DB000B00DA11D621F839FA00D611D221F749F86
:101DC0003327A00D611D231F849F600D211D822FCD
:101DD000762F6A2F11249F5750409AF0F1F08823F4
:101DE0004AF0EE0FFF1FBB1F661F771F881F915021
:101DF0005040A9F79E3F510580F00C94170F0C94AA
:101E0000620F5F3FE4F3983ED4F38695779567952C
:101E1000B795F795E7959F5FC1F7FE2B880F911D4A
:101E20009695879597F9089599278827089597F9A2
:101E30009F6780E870E060E008959FEF80EC089570
:101E400000240A9416161706180609060895002499
:101E50000A9412161306140605060895092E039413
:101E6000000C11F4882352F0BB0F40F4BF2B11F487
:101E700060FF04C06F5F7F4F8F4F9F4F089557FDE6
:101E80009058440F551F59F05F3F71F04795880FE8
:101E900097FB991F61F09F3F79F08795089512167F
:101EA00013061406551FF2CF4695F1DF08C016162B
:101EB00017061806991FF1CF8695710561050894DC
:101EC0000895E894BB2766277727CB0197F90895F3
:101ED0002F923F924F925F926F927F928F929F923A
:101EE000AF92BF92CF92DF92EF92FF920F931F9328
:101EF000CF93DF93CDB7DEB7CA1BDB0B0FB6F894D9
:101F0000DEBF0FBECDBF09942A88398848885F8418
:101F10006E847D848C849B84AA84B984C884DF8089
:101F2000EE80FD800C811B81AA81B981CE0FD11D6D
:101F30000FB6F894DEBF0FBECDBFED010895505827
:101F4000BB27AA270E94B70F0C942E0F0E94200FC8
:101F500038F00E94270F20F039F49F3F19F426F43F
:101F60000C941D0F0EF4E095E7FB0C94170FE92F6E
:101F70000E943F0F58F3BA1762077307840795074B
:101F800020F079F4A6F50C94610F0EF4E0950B2E79
:101F9000BA2FA02D0B01B90190010C01CA01A001BB
:101FA0001124FF27591B99F0593F50F4503E68F116
:101FB0001A16F040A22F232F342F4427585FF3CF57
:101FC000469537952795A795F0405395C9F77EF428
:101FD0001F16BA0B620B730B840BBAF09150A1F071
:101FE000FF0FBB1F661F771F881FC2F70EC0BA0FF7
:101FF000621F731F841F48F4879577956795B7957F
:10200000F7959E3F08F0B0CF9395880F08F0992779
:10201000EE0F9795879508950E9420100C942E0F2F
:102020000E94270F58F00E94200F40F029F45F3FD4
:1020300029F00C94170F51110C94620F0C941D0F82
:102040000E943F0F68F39923B1F3552391F3951B39
:10205000550BBB27AA2762177307840738F09F5FC9
:102060005F4F220F331F441FAA1FA9F335D00E2E36
:102070003AF0E0E832D091505040E695001CCAF7A3
:102080002BD0FE2F29D0660F771F881FBB1F261766
:1020900037074807AB07B0E809F0BB0B802DBF013D
:1020A000FF2793585F4F3AF09E3F510578F00C940C
:1020B000170F0C94620F5F3FE4F3983ED4F38695BC
:1020C00077956795B795F7959F5FC9F7880F911D2D
:1020D0009695879597F90895E1E0660F771F881F19
:1020E000BB1F621773078407BA0720F0621B730BCC
:1020F000840BBA0BEE1F88F7E09508950E948E10AE
:1021000029ED3BE54EED5EE30C94A70E16F00C9422
:1021100060110C941D0F68940C94170F0E94470FC8
:10212000A8F39923C1F3AEF3DF93CF931F930F93DB
:10213000FF92C92FDD2788232AF02197660F771F8A
:10214000881FDAF720E030E040E85FEB9FE3883952
:1021500020F0803E38F021968F770E94A00FE8E6AD
:10216000F0E004C00E94A00FE5E9F0E00E946E11CB
:102170008B01BE01EC01FB2E6F5771097595771F1E
:10218000880B990B0E946C0E28E132E741E35FE374
:102190000E94BA0EAF2D9801AE01FF900F911F91D2
:1021A000CF91DF910E94B70F0C942E0FFA01EE0F22
:1021B000FF1F309621053105A1F16115710561F40C
:1021C0008038BFE39B0749F168949038810561F03E
:1021D0008038BFEF9B0741F099234AF5FF3FE105A7
:1021E0003105210519F1E8940894E795D901AA234E
:1021F00029F4AB2FBE2FF85FD0F310C0FF5F70F44F
:10220000A695E0F7F73950F019F0FF3A38F49F77C8
:102210009F930DD00F9007FC9058089546F00C94B2
:102220001D0F60E070E080E89FE308954FE79F771F
:102230005F934F933F932F930E948E102F913F9166
:102240004F915F910E94A70E0C942E1129F416F065
:102250000C94170F0C94610F0C941D0F0E94470FE4
:10226000A8F39638A0F707F80F92E8942BE33AEA20
:1022700048EB5FE70E94BD0E0F920F920F924DB791
:102280005EB70F920E94D711E2ECF0E00E946E114F
:102290004F915F91EF91FF91E595EE1FFF1F49F080
:1022A000FE57E0684427EE0F441FFA95E1F7419589
:1022B000550B0E94A1110F9007FE0C9495110895E3
:1022C0009F3F31F0915020F4879577956795B795AA
:1022D000880F911D9695879597F90895DF93CF9371
:1022E0001F930F93FF92EF92DF927B018C01689412
:1022F00006C0DA2EEF010E94BA0EFE01E894A59105
:102300002591359145915591A6F3EF010E94B70FA4
:10231000FE019701A801DA9469F7DF90EF90FF9032
:102320000F911F91CF91DF9108959B01AC0160E067
:1023300070E080E89FE30C940C100C94170F0C9441
:1023400060110E94470FD8F39923C9F3940F511DD0
:10235000A3F39150504094F059F0882332F0660F67
:10236000771F881F91505040C1F79E3F51052CF7B1
:10237000880F911D9695879597F908955F3FACF06A
:10238000983E9CF0BB27869577956795B79508F49E
:10239000B1609395C1F7BB0F58F711F460FFE8CF18
:1023A0006F5F7F4F8F4F9F4FE3CF0C94620FFA0107
:1023B000DC01AA0FBB1F9B01AC01BF5728F42227E9
:1023C00033274427507820C0B75190F4AB2F002416
:1023D000469537952795011CA395D2F3002071F0FF
:1023E000220F331F441FB395DAF30ED00C949F0FC6
:1023F00061307105A0E88A07B94630F49B01AC0151
:102400006627772788279078309621F020833183BC
:10241000428353830895A1E21A2EAA1BBB1BFD0120
:102420000DC0AA1FBB1FEE1FFF1FA217B307E407B3
:10243000F50720F0A21BB30BE40BF50B661F771F0B
:10244000881F991F1A9469F76095709580959095EB
:102450009B01AC01BD01CF010895EE0FFF1F059058
:10246000F491E02D09940F931F93CF93DF93823063
:10247000910510F482E090E0E091B503F091B6038D
:1024800030E020E0B0E0A0E0309799F4211531056C
:1024900009F44AC0281B390B24303105D8F58A814C
:1024A0009B816115710589F1FB0193838283FE0194
:1024B00011C0408151810281138148175907E0F012
:1024C0004817590799F4109761F012960C931297D8
:1024D00013961C933296CF01DF91CF911F910F91EC
:1024E00008950093B5031093B603F4CF2115310579
:1024F00051F04217530738F0A901DB019A01BD01E1
:10250000DF01F801C1CFEF01F9CF9093B6038093BB
:10251000B503CDCFFE01E20FF31F819391932250BB
:10252000310939832883D7CF2091B3033091B40385
:10253000232B41F420910201309103013093B40325
:102540002093B30320910001309101012115310541
:1025500041F42DB73EB74091040150910501241B71
:10256000350BE091B303F091B403E217F307A0F445
:102570002E1B3F0B2817390778F0AC014E5F5F4FD9
:102580002417350748F04E0F5F1F5093B403409354
:10259000B303819391939FCFF0E0E0E09CCFCF9382
:1025A000DF930097E9F0FC01329713821282A09129
:1025B000B503B091B603ED0130E020E01097A1F42F
:1025C00020813181820F931F2091B3033091B40396
:1025D0002817390709F061C0F093B403E093B303FF
:1025E000DF91CF910895EA01CE17DF07E8F54A8120
:1025F0005B819E0141155105B1F7E901FB83EA8337
:1026000049915991C40FD51FEC17FD0761F48081E2
:1026100091810296840F951FE901998388838281B5
:1026200093819B838A83F0E0E0E012968D919C91E8
:1026300013970097B9F52D913C911197CD01029612
:10264000820F931F2091B3033091B40328173907E9
:1026500039F6309751F51092B6031092B503B09346
:10266000B403A093B303BCCFD383C2834081518111
:10267000840F951FC817D90761F44E5F5F4F88819B
:102680009981480F591F518340838A819B8193838D
:1026900082832115310509F0B0CFF093B603E093A2
:1026A000B5039ECFFD01DC01C0CF13821282D7CFCC
:1026B000B0E0A0E0EEE5F3E10C946A0F8C01009726
:1026C00051F4CB010E9433128C01C801CDB7DEB7A3
:1026D000E0E10C94860FFC01E60FF71F9C012250ED
:1026E0003109E217F30708F49DC0D901CD91DC91BF
:1026F0001197C617D70798F0C530D10530F3CE0132
:1027000004978617970708F3C61BD70B2297C19328
:10271000D1936D937C93CF010E94CF12D6CF5B01F2
:10272000AC1ABD0A4C018C0E9D1EA091B503B09150
:10273000B603512C412CF12CE12C109731F58091EE
:10274000B3039091B4038815990509F05CC046164F
:10275000570608F058C08091000190910101009740
:1027600041F48DB79EB74091040150910501841B3F
:10277000950BE817F90708F055C0F093B403E09300
:10278000B303F90171836083A0CF8D919C91119760
:1027900012966C90129713967C901397A815B90512
:1027A00059F56C0142E0C40ED11CCA14DB0420F1BF
:1027B000AC014A195B09DA011296159780F0628222
:1027C000738251834083D9016D937C93E114F104AA
:1027D00071F0D7011396FC93EE93129776CF229661
:1027E0008C0F9D1FF90191838083F301EFCFF0934C
:1027F000B603E093B50369CF4816590608F42C01D7
:102800007D01D3019ACFCB010E9433127C01009746
:1028100049F0AE01B8010E941514C8010E94CF1200
:10282000870153CF10E000E050CFFB01DC0102C074
:1028300001900D9241505040D8F70895FB01DC0102
:102840008D91019080190110D9F3990B0895FB0126
:10285000DC0101900D920020E1F70895FB01DC01FD
:102860004150504048F001900D920020C9F701C03E
:102870001D9241505040E0F70895AEE0B0E0E3E42F
:10288000F4E10C94760F0D891E8986E08C831A83FF
:1028900009838FEF9FE79E838D83AE01475E5F4F75
:1028A0006F89788DCE0101960E9460142F81388542
:1028B000020F131FF80110822E96E4E00C94920F81
:1028C000ABE0B0E0E6E6F4E10C94680F7C013B017C
:1028D0008A01FC0117821682838181FFC8C1CE0163
:1028E00001965C01F7019381F30193FD859193FFBC
:1028F00081913F01882309F453C1853239F493FD56
:10290000859193FF81913F01853229F4B70190E0D1
:102910000E945016E7CF912C212C312CFFE1F315AA
:1029200038F08B3211F190F4803209F1833229F1C1
:1029300037FC3CC020ED280F2A3050F536FE20C071
:102940008AE0989E200D1124922E06C08D3291F0BF
:10295000803371F7689430F8F30193FD859193FF0C
:1029600081913F018111DACF21C0689431F86894D8
:1029700032F8F2CF689433F8EFCF689434F8ECCFA4
:10298000EAE02E9E200D1124222E689435F8E4CF23
:102990008E3229F436FC04C1689436F8DDCF8C36CB
:1029A00019F4689437F8D8CF8836B1F2982F9F7D04
:1029B00095549330E0F08336A1F18337C1F183352C
:1029C00009F063C02801F2E04F0E511CF801C080ED
:1029D000D180692D70E036FC02C06FEF7FEFC60139
:1029E0000E943A164C01689437F882010AC00C5FC5
:1029F0001F4FFFE3F98388248394912C6501E894A9
:102A000037F833FE2DC0522C8114910471F55520F6
:102A100009F468CFB70180E290E00E9450165A9402
:102A2000F6CFF801808189830E5F1F4FE4CF280124
:102A3000F2E04F0E511CF801C080D180692D70E08A
:102A400036FC02C06FEF7FEFC6010E9445164C01B5
:102A50008201D5CFB70180E290E00E9450162A94FF
:102A60002814190409F0B0F7CECFF60137FC859190
:102A700037FE81916F01B70190E00E94501651100E
:102A80005A94F1E08F1A9108BFCF843619F0893635
:102A900009F077C0F80137FE6BC0608171818281D7
:102AA00093810C5F1F4FF32DFF763F2E97FF09C0D8
:102AB00090958095709561957F4F8F4F9F4F68944B
:102AC00037F82AE030E0A5010E948016C82ECA1807
:102AD0008C2C432C36FE0CC0E89440F8C91440F40A
:102AE00034FE05C032FC03C0F32DFE7E4F2E892C30
:102AF00044FE95C0FE01EC0DF11D8081803309F08C
:102B000087C0242D297E422E842D8870582E43FCA8
:102B100095C040FE8FC09C2C821418F42C0C922C73
:102B2000981844FE91C0B70180E390E00E945016CF
:102B300042FE09C088E790E041FE02C088E590E0CF
:102B4000B7010E945016C91408F48AC0CA94D12C47
:102B50009FEFC91AD90ACA0CDB1CF60182916F01DA
:102B6000B70190E00E945016AC14BD04B1F74FCFEE
:102B700060817181072E000C880B990B0E5F1F4F2F
:102B800092CFD32CE894D4F82AE030E0853739F19D
:102B9000232D297FD22E8F3601F148F48835A9F0F4
:102BA000F701868197812B96E2E10C94840F8037A0
:102BB00049F08837A9F7D4FE02C06894D2F820E122
:102BC00030E00DC06894D4F8F6CF34FE03C0822FF5
:102BD0008660D82E20E132E002C028E030E0F80123
:102BE000D7FE0FC060817181828193810C5F1F4F7E
:102BF000A5010E948016C82ECA183D2CE89437F80B
:102C000067CF6081718190E080E00E5F1F4FF0CF51
:102C100042FC02C0839478CF8394839475CF842D33
:102C2000867809F471CFF6CFB70180E290E00E9478
:102C3000501683948214C0F3512C73CF522C581821
:102C4000821408F46ECFF8CF842D867809F47BCFF8
:102C50008BE241FE80E247FC8DE2B70190E071CF4C
:102C6000B70180E390E00E9450169A946CCF8FEFEA
:102C70009FEF99CFFC010590615070400110D8F78B
:102C8000809590958E0F9F1F0895FC0161507040B4
:102C900001900110D8F7809590958E0F9F1F089591
:102CA0000F931F93CF93DF93182F092FEB018B8185
:102CB00081FD09C01FEF0FEF812F902FDF91CF9182
:102CC0001F910F91089582FF14C02E813F818C8146
:102CD0009D81281739073CF4E881F981CF010196DD
:102CE0009983888310838E819F8101969F838E8331
:102CF000E3CFE885F985812F0995892BA1F3DACFF8
:102D0000FA01AA27283051F1203181F1E8946F931C
:102D10006E7F6E5F7F4F8F4F9F4FAF4FB1E03ED0C2
:102D2000B4E03CD0670F781F891F9A1FA11D680F60
:102D3000791F8A1F911DA11D6A0F711D811D911D93
:102D4000A11D20D009F468943F912AE0269F112408
:102D50003019305D3193DEF6CF010895462F47706C
:102D6000405D4193B3E00FD0C9F7F6CF462F4F70C7
:102D7000405D4A3318F0495D31FD4052419302D025
:102D8000A9F7EACFB4E0A6959795879577956795CB
:102D9000BA95C9F700976105710508959B01AC01CB
:102DA0000A2E06945795479537952795BA95C9F7F2
:102DB000620F731F841F951FA01D0895F894FFCF05
:102DC0000000B703800000000000EA020A02370298
:102DD0003703A80246029A02000000001205E5042B
:102DE0004105BB04DE04CB04BC0425642D3E202534
:102DF00073000D0A004D4B20256420284C75786D1A
:102E0000657465722920736961702E2E2E006C0026
:102E10004C0050726F63636573696E672052657111
:102E20007565737420746F204D4B2000446174618C
:0E2E3000206861732073656E6465642E000077
:00000001FF
