:020000040000FA
:100000000C9435000C945D000C945D000C945D0024
:100010000C945D000C945D000C945D000C945D00EC
:100020000C945D000C945D000C945D000C945D00DC
:100030000C945D000C945D000C945D000C945D00CC
:100040000C94BA000C945D000C945D000C945D005F
:100050000C945D000C945D000C945D000C945D00AC
:100060000C945D000C945D00F20111241FBECFEFD3
:10007000D8E0DEBFCDBF11E0A0E0B1E0ECECF9E0EC
:1000800002C005900D92A431B107D9F721E0A4E197
:10009000B1E001C01D92A732B207E1F710E0C5E35D
:1000A000D0E004C02197FE010E940602C433D107AC
:1000B000C9F70E9404010C94E4040C9400003FB7BB
:1000C000F8948091230190912401A0912501B09191
:1000D000260126B5A89B05C02F3F19F00196A11D4A
:1000E000B11D3FBFBA2FA92F982F8827BC01CD0182
:1000F000620F711D811D911D42E0660F771F881FE1
:10010000991F4A95D1F708958F929F92AF92BF920F
:10011000CF92DF92EF92FF920E945F004B015C0151
:1001200084EFC82EDD24D394E12CF12C0E945F00D3
:10013000681979098A099B09683E73408105910510
:10014000A8F321E0C21AD108E108F10888EE880E70
:1001500083E0981EA11CB11CC114D104E104F10478
:1001600029F7FF90EF90DF90CF90BF90AF909F90D6
:100170008F9008951F920F920FB60F9211242F9314
:100180003F938F939F93AF93BF9380911F01909163
:100190002001A0912101B091220130911E0123E0A4
:1001A000230F2D3758F50196A11DB11D20931E0177
:1001B00080931F0190932001A0932101B09322010D
:1001C0008091230190912401A0912501B0912601F5
:1001D0000196A11DB11D8093230190932401A0934A
:1001E0002501B0932601BF91AF919F918F913F91CF
:1001F0002F910F900FBE0F901F90189526E8230F98
:100200000296A11DB11DD2CF789484B5826084BDC1
:1002100084B5816084BD85B5826085BD85B581600A
:1002200085BD80916E00816080936E001092810088
:100230008091810082608093810080918100816043
:100240008093810080918000816080938000809104
:10025000B10084608093B1008091B0008160809390
:10026000B00080917A00846080937A0080917A0057
:10027000826080937A0080917A00816080937A0016
:1002800080917A00806880937A001092C1008FEF8D
:100290008AB985B18E6385B988E384B980910101FB
:1002A0008F93809100018F9380E191E09F938F93D2
:1002B00084E191E09F938F930E940C020F900F9026
:1002C0000F900F900F900F9081EED82EC0E1D1E0EB
:1002D00004E111E090E0E92E90E0F92E2FB7F894B8
:1002E00080911F0190912001A0912101B0912201E4
:1002F0002FBF40911A0150911B0160911C01709118
:100300001D01841B950BA60BB70B85369105A10526
:10031000B105B8F12FB7F89480911F019091200199
:10032000A0912101B09122012FBF80931A019093D7
:100330001B01A0931C01B0931D01DBB8E0911901D2
:100340000E2E000CFF0BEC5EFE4FE081EF700E2EC8
:10035000000CFF0BEB5FFE4F80818BB985B1E09104
:1003600019010E2E000CFF0BEE5FFE4F877C908173
:10037000892B85B9809119018F5F833031F180938A
:10038000190183B18670823019F580910001909136
:100390000101019690930101809300019F938F9337
:1003A000DF93CF931F930F930E940C020E9484004F
:1003B0000F900F900F900F900F900F90E114F10499
:1003C00009F48CCF0E94000089CF10921901D9CF77
:1003D00083B18670843091F7809100019091010182
:1003E0000197D8CF2FB7F89480911F0190912001E9
:1003F000A0912101B09122012FBF80931A01909307
:100400001B01A0931C01B0931D010895EE0FFF1F67
:100410000590F491E02D0994AEE0B0E0E2E1F2E065
:100420000C94BB040D891E8986E08C831A83098392
:100430008FEF9FE79E838D83AE01475E5F4F6F898D
:10044000788DCE0101960E942F022F813885020FF0
:10045000131FF80110822E96E4E00C94D704ABE051
:10046000B0E0E5E3F2E00C94AD047C013B018A01CD
:10047000FC0117821682838181FFC8C1CE010196DB
:100480005C01F7019381F30193FD859193FF8191C5
:100490003F01882309F453C1853239F493FD8591D6
:1004A00093FF81913F01853229F4B70190E00E94CA
:1004B0001F04E7CF912C212C312CFFE1F31538F0EC
:1004C0008B3211F190F4803209F1833229F137FC3B
:1004D0003CC020ED280F2A3050F536FE20C08AE0BF
:1004E000989E200D1124922E06C08D3291F08033FB
:1004F00071F7689430F8F30193FD859193FF819132
:100500003F018111DACF21C0689431F8689432F844
:10051000F2CF689433F8EFCF689434F8ECCFEAE088
:100520002E9E200D1124222E689435F8E4CF8E32B1
:1005300029F436FC04C1689436F8DDCF8C3619F402
:10054000689437F8D8CF8836B1F2982F9F7D9554AC
:100550009330E0F08336A1F18337C1F1833509F0A0
:1005600063C02801F2E04F0E511CF801C080D18019
:10057000692D70E036FC02C06FEF7FEFC6010E946C
:1005800009044C01689437F882010AC00C5F1F4FC0
:10059000FFE3F98388248394912C6501E89437F86C
:1005A00033FE2DC0522C8114910471F5552009F4AD
:1005B00068CFB70180E290E00E941F045A94F6CF02
:1005C000F801808189830E5F1F4FE4CF2801F2E09C
:1005D0004F0E511CF801C080D180692D70E036FCAF
:1005E00002C06FEF7FEFC6010E9414044C0182012C
:1005F000D5CFB70180E290E00E941F042A9428140E
:10060000190409F0B0F7CECFF60137FC859137FE1B
:1006100081916F01B70190E00E941F0451105A941C
:10062000F1E08F1A9108BFCF843619F0893609F0AE
:1006300077C0F80137FE6BC0608171818281938140
:100640000C5F1F4FF32DFF763F2E97FF09C090954B
:100650008095709561957F4F8F4F9F4F689437F8C5
:100660002AE030E0A5010E944F04C82ECA188C2C45
:10067000432C36FE0CC0E89440F8C91440F434FE14
:1006800005C032FC03C0F32DFE7E4F2E892C44FEA4
:1006900095C0FE01EC0DF11D8081803309F087C00B
:1006A000242D297E422E842D8870582E43FC95C01F
:1006B00040FE8FC09C2C821418F42C0C922C98189D
:1006C00044FE91C0B70180E390E00E941F0442FE07
:1006D00009C088E790E041FE02C088E590E0B701DC
:1006E0000E941F04C91408F48AC0CA94D12C9FEF39
:1006F000C91AD90ACA0CDB1CF60182916F01B70135
:1007000090E00E941F04AC14BD04B1F74FCF60818C
:100710007181072E000C880B990B0E5F1F4F92CF33
:10072000D32CE894D4F82AE030E0853739F1232D32
:10073000297FD22E8F3601F148F48835A9F0F701D0
:10074000868197812B96E2E10C94C904803749F0A9
:100750008837A9F7D4FE02C06894D2F820E130E0CF
:100760000DC06894D4F8F6CF34FE03C0822F8660A3
:10077000D82E20E132E002C028E030E0F801D7FEB8
:100780000FC060817181828193810C5F1F4FA50131
:100790000E944F04C82ECA183D2CE89437F867CF42
:1007A0006081718190E080E00E5F1F4FF0CF42FCCE
:1007B00002C0839478CF8394839475CF842D8678F8
:1007C00009F471CFF6CFB70180E290E00E941F04D8
:1007D00083948214C0F3512C73CF522C5818821476
:1007E00008F46ECFF8CF842D867809F47BCF8BE2A6
:1007F00041FE80E247FC8DE2B70190E071CFB70186
:1008000080E390E00E941F049A946CCF8FEF9FEFDB
:1008100099CFFC010590615070400110D8F7809588
:1008200090958E0F9F1F0895FC01615070400190BC
:100830000110D8F7809590958E0F9F1F08950F9304
:100840001F93CF93DF93182F092FEB018B8181FD2D
:1008500009C01FEF0FEF812F902FDF91CF911F91D4
:100860000F91089582FF14C02E813F818C819D815C
:10087000281739073CF4E881F981CF010196998363
:10088000888310838E819F8101969F838E83E3CF1F
:10089000E885F985812F0995892BA1F3DACFFA0133
:1008A000AA27283051F1203181F1E8946F936E7FAF
:1008B0006E5F7F4F8F4F9F4FAF4FB1E03ED0B4E0A0
:1008C0003CD0670F781F891F9A1FA11D680F791FE1
:1008D0008A1F911DA11D6A0F711D811D911DA11DF2
:1008E00020D009F468943F912AE0269F1124301902
:1008F000305D3193DEF6CF010895462F4770405D9D
:100900004193B3E00FD0C9F7F6CF462F4F70405D4B
:100910004A3318F0495D31FD4052419302D0A9F7A6
:10092000EACFB4E0A6959795879577956795BA95A0
:10093000C9F700976105710508959B01AC010A2E66
:1009400006945795479537952795BA95C9F7620F3D
:10095000731F841F951FA01D08952F923F924F92E1
:100960005F926F927F928F929F92AF92BF92CF923F
:10097000DF92EF92FF920F931F93CF93DF93CDB748
:10098000DEB7CA1BDB0B0FB6F894DEBF0FBECDBFC0
:1009900009942A88398848885F846E847D848C8491
:1009A0009B84AA84B984C884DF80EE80FD800C819A
:1009B0001B81AA81B981CE0FD11D0FB6F894DEBF7D
:1009C0000FBECDBFED010895F894FFCF6201182846
:1009D00030039F250D9949411F0109FE2564000040
:107E0000112484B714BE81FFF0D085E080938100F7
:107E100082E08093C00088E18093C10086E0809377
:107E2000C20080E18093C4008EE0C9D0259A86E02C
:107E300020E33CEF91E0309385002093840096BBD3
:107E4000B09BFECF1D9AA8958150A9F7CC24DD24C4
:107E500088248394B5E0AB2EA1E19A2EF3E0BF2EE7
:107E6000A2D0813461F49FD0082FAFD0023811F036
:107E7000013811F484E001C083E08DD089C08234E0
:107E800011F484E103C0853419F485E0A6D080C0E4
:107E9000853579F488D0E82EFF2485D0082F10E0AE
:107EA000102F00270E291F29000F111F8ED06801E7
:107EB0006FC0863521F484E090D080E0DECF843638
:107EC00009F040C070D06FD0082F6DD080E0C81688
:107ED00080E7D80618F4F601B7BEE895C0E0D1E017
:107EE00062D089930C17E1F7F0E0CF16F0E7DF06D8
:107EF00018F0F601B7BEE89568D007B600FCFDCFD4
:107F0000A601A0E0B1E02C9130E011968C91119780
:107F100090E0982F8827822B932B1296FA010C0160
:107F200087BEE89511244E5F5F4FF1E0A038BF0790
:107F300051F7F601A7BEE89507B600FCFDCF97BE46
:107F4000E89526C08437B1F42ED02DD0F82E2BD052
:107F50003CD0F601EF2C8F010F5F1F4F84911BD097
:107F6000EA94F801C1F70894C11CD11CFA94CF0C13
:107F7000D11C0EC0853739F428D08EE10CD085E9AC
:107F80000AD08FE07ACF813511F488E018D01DD067
:107F900080E101D065CF982F8091C00085FFFCCF94
:107FA0009093C60008958091C00087FFFCCF809118
:107FB000C00084FD01C0A8958091C6000895E0E648
:107FC000F0E098E1908380830895EDDF803219F02E
:107FD00088E0F5DFFFCF84E1DECF1F93182FE3DFCA
:107FE0001150E9F7F2DF1F91089580E0E8DFEE27F6
:047FF000FF270994CA
:027FFE00040479
:00000001FF
