:020000040000FA
:100000000C9476000C949E000C949E000C949E0020
:100010000C949E000C949E000C949E000C949E00E8
:100020000C949E000C949E000C949E000C949E00D8
:100030000C949E000C949E000C949E000C949E00C8
:100040000C944F030C949E000C94BF030C949903E2
:100050000C949E000C949E000C949E000C949E00A8
:100060000C949E000C949E0008000000BE9224494F
:10007000123EABAAAA2ABECDCCCC4C3E00000080DA
:10008000BEABAAAAAA3E00000000BF000000803F4D
:100090000000000000084178D3BB4387D1133D190D
:1000A0000E3CC3BD4282AD2B3E68EC8276BED98F3A
:1000B000E1A93E4C80EFFFBE01C4FF7F3F0000007E
:1000C000000007634236B79BD8A71A39685618AEA6
:1000D000BAAB558C1D3CB7CC5763BD6DEDFD753E7D
:1000E000F6177231BF000000803F7C0511241FBE4F
:1000F000CFEFD8E0DEBFCDBF11E0A0E0B1E0E8E394
:10010000F3E102C005900D92A434B107D9F721E0C4
:10011000A4E4B1E001C01D92A83FB207E1F710E0EE
:10012000C6E7D0E004C02197FE010E949409C537BC
:10013000D107C9F70E94F1030C949A090C940000AE
:100140008E50806480937C0080917A0080648093DC
:100150007A0080917A0086FDFCCF809178009091A2
:10016000790008953FB7F894809157019091580114
:10017000A0915901B0915A0126B5A89B05C02F3F07
:1001800019F00196A11DB11D3FBFBA2FA92F982FBD
:100190008827BC01CD01620F711D811D911D42E0B8
:1001A000660F771F881F991F4A95D1F70895AF9260
:1001B000BF92CF92DF92EF92FF920F931F93CF9354
:1001C000DF936C017B018B01040F151FEB015E01B6
:1001D000AE18BF08C017D10759F06991D601ED914B
:1001E000FC910190F081E02DC6010995892B79F7EA
:1001F000C501DF91CF911F910F91FF90EF90DF909C
:10020000CF90BF90AF900895FC01538D448D252F62
:1002100030E0842F90E0821B930B541710F0CF96A0
:10022000089501970895FC01918D828D981761F0D2
:10023000A28DAE0FBF2FB11D5D968C91928D9F5FE9
:100240009F73928F90E008958FEF9FEF0895FC01C8
:10025000918D828D981731F0828DE80FF11D858D7B
:1002600090E008958FEF9FEF0895FC01918D228D0E
:10027000892F90E0805C9F4F821B91098F73992793
:1002800008958BE591E00E94350121E0892B09F466
:1002900020E0822F089580E090E0892B29F00E94D1
:1002A000410181110C9400000895FC01A48DA80F58
:1002B000B92FB11DA35ABF4F2C91848D90E00196A8
:1002C0008F739927848FA689B7892C93A089B189C8
:1002D0008C91837080648C93938D848D981306C069
:1002E0000288F389E02D80818F7D80830895EF92CD
:1002F000FF920F931F93CF93DF93EC0181E0888FE0
:100300009B8D8C8D98131AC0E889F989808185FFAF
:1003100015C09FB7F894EE89FF896083E889F98951
:1003200080818370806480839FBF81E090E0DF9153
:10033000CF911F910F91FF90EF900895F62E0B8DA6
:1003400010E00F5F1F4F0F731127E02E8C8D8E1161
:100350000CC00FB607FCFACFE889F989808185FFC8
:10036000F5CFCE010E945501F1CFEB8DEC0FFD2FA3
:10037000F11DE35AFF4FF0829FB7F8940B8FEA8983
:10038000FB8980818062CFCFCF93DF93EC01888D92
:100390008823B9F0AA89BB89E889F9898C9185FD00
:1003A00003C0808186FD0DC00FB607FCF7CF8C918E
:1003B00085FFF2CF808185FFEDCFCE010E945501F0
:1003C000E9CFDF91CF910895FC0101900020E9F77A
:1003D0003197AF01481B590BBC018BE591E00C94A0
:1003E000D7008F929F92AF92BF920F931F93CF939C
:1003F000DF93CDB7DEB7A1970FB6F894DEBF0FBE7F
:10040000CDBF19A2423008F44AE08E010F5D1F4FA4
:10041000842E912CB12CA12CA50194010E9472096B
:10042000E62FB901CA01EA30F4F4E05DD801EE9399
:100430008D01232B242B252B79F790E080E010975A
:1004400019F0CD010E94E401A1960FB6F894DEBF29
:100450000FBECDBFDF91CF911F910F91BF90AF9095
:100460009F908F900895E95CE1CFCF93DF930E9436
:10047000E401EC0182E191E00E94E4018C0F9D1FF8
:10048000DF91CF9108954F925F926F927F928F92FA
:100490009F92AF92BF92CF92DF92EF92FF920F9313
:1004A0001F93CF936B017C01742EAC019B010E94C2
:1004B0008808882399F085E191E0CF911F910F91F1
:1004C000FF90EF90DF90CF90BF90AF909F908F9074
:1004D0007F906F905F904F900C94E401460157011C
:1004E000E894B7F82FEF3FEF4FE75FE7C501B4019E
:1004F0000E94880881110DC02FEF3FEF4FE75FE7A3
:10050000C501B4010E94160618161CF489E191E099
:10051000D4CF2FEF3FEF4FE75FE4C701B6010E9452
:100520006E0718161CF48DE191E0C7CF2FEF3FEF57
:100530004FE75FECC701B6010E94160687FDF3CFB7
:1005400020E030E0A901C701B6010E94160610E0C4
:1005500000E087FF0AC06DE28BE591E00E94770121
:100560008C01F7FAF094F7F8F094C0E060E070E0E6
:1005700080E09FE37C1641F020E030E040E251E46F
:100580000E941B06CF5FF6CFA70196010E94AA0525
:100590002B013C010E948D064B015C014AE00E9448
:1005A000F1017C01E00EF11ECC23C1F1C501B401C3
:1005B0000E94BC069B01AC01C301B2010E94A905C7
:1005C0004B015C016EE28BE591E00E947701E80E41
:1005D000F91EC15018F120E030E040E251E4C501BD
:1005E000B4010E94CB072B013C010E948D064B01F8
:1005F000B12CA12C4AE0C501B4010E94F101E80E22
:10060000F91EC501B4010E94BC069B01AC01C301E7
:10061000B2010E94A9054B015C01DBCFC701CF915C
:100620001F910F91FF90EF90DF90CF90BF90AF9010
:100630009F908F907F906F905F904F900895CF9292
:10064000DF92EF92FF92CF93DF936C01990FEE0848
:10065000FF08F7FE19C06DE28BE591E00E9477017B
:10066000EC0166277727CB016C197D098E099F095C
:100670004AE00E94F1018C0F9D1FDF91CF91FF9006
:10068000EF90DF90CF9008954AE0C701B601DF9167
:10069000CF91FF90EF90DF90CF900C94F1011F92DB
:1006A0000F920FB60F9211242F933F938F939F9326
:1006B000AF93BF938091530190915401A091550144
:1006C000B09156013091520123E0230F2D3758F598
:1006D0000196A11DB11D2093520180935301909367
:1006E0005401A0935501B093560180915701909108
:1006F0005801A0915901B0915A010196A11DB11D57
:100700008093570190935801A0935901B0935A01D7
:10071000BF91AF919F918F913F912F910F900FBEFD
:100720000F901F90189526E8230F0296A11DB11D6A
:10073000D2CF1F920F920FB60F9211242F933F9397
:100740004F935F936F937F938F939F93AF93BF93D9
:10075000EF93FF938BE591E00E945501FF91EF919C
:10076000BF91AF919F918F917F916F915F914F91C9
:100770003F912F910F900FBE0F901F9018951F92D1
:100780000F920FB60F9211242F938F939F93EF9395
:10079000FF93E0916B01F0916C018081E091710118
:1007A000F091720182FD1BC09081809174018F5F76
:1007B0008F7320917501821741F0E0917401F0E090
:1007C000E55AFE4F958F80937401FF91EF919F91B1
:1007D0008F912F910F900FBE0F901F9018958081D1
:1007E000F4CF789484B5826084BD84B5816084BD83
:1007F00085B5826085BD85B5816085BD80916E00BF
:10080000816080936E0010928100809181008260EF
:10081000809381008091810081608093810080912C
:1008200080008160809380008091B100846080931B
:10083000B1008091B00081608093B00080917A0017
:10084000846080937A0080917A00826080937A003D
:1008500080917A00816080937A0080917A0080682C
:1008600080937A001092C100E0916B01F0916C01CD
:1008700082E08083E0916701F09168011082E0914D
:100880006901F0916A018FEC808310927301E0910D
:100890006F01F091700186E08083E0916D01F0912D
:1008A0006E01808180618083E0916D01F0916E0125
:1008B000808188608083E0916D01F0916E0180817C
:1008C00080688083E0916D01F0916E0180818F7D61
:1008D0008083C0E0D0E083E10E94A00090935101AA
:1008E00080935001BC01990F880B990B0E94BE06A2
:1008F0002BE43CE340EA5BE30E94CB079B01AC01A5
:1009000020934C0130934D0140934E0150934F0181
:1009100060E070E48CE995E40E941B0620E030E082
:100920004AE754E40E94A9052AE13FE848EF57E46A
:100930000E941B060E94730723EE35EA4BE55FEB2E
:100940000E941B069B01AC0160E070E080E291E434
:100950000E943808609348017093490180934A01CE
:1009600090934B0181E291E00E94E401809150015B
:10097000909151010E941F0389E291E00E94E401DD
:10098000609148017091490180914A0190914B0119
:1009900042E00E94430281E391E00E94350282E13D
:1009A0000E94A0009093510180935001BC01990FC7
:1009B000880B990B0E94BE0620E030E040EA50E42C
:1009C0000E94CB0720E030EC4FE754E40E941B0666
:1009D00060934C0170934D0180934E0190934F01B1
:1009E00081E291E00E94E4018091500190915101D7
:1009F0000E941F0386E391E00E94E40160914C0194
:100A000070914D0180914E0190914F0142E00E9402
:100A1000430282E191E00E94E40181E10E94A00092
:100A20009093510180935001BC01990F880B990B51
:100A30000E94BE0625E33EE54AEF5EE30E94CB0737
:100A40006093440170934501809346019093470160
:100A500081E291E00E94E401809150019091510166
:100A60000E941F0389E291E00E94E4016091440129
:100A700070914501809146019091470142E00E94AA
:100A8000430282E191E00E94E4018FE291E00E9442
:100A900035028FE291E00E9435020E94B2004B01C4
:100AA0005C018AEFC82ED12CE12CF12C0E94B200FF
:100AB000681979098A099B09683E73408105910587
:100AC000A8F321E0C21AD108E108F10888EE880EE7
:100AD00083E0981EA11CB11CC114D104E104F104EF
:100AE00029F7209709F4F7CE0E944101882309F4E1
:100AF000F2CE0E940000EFCEEBE5F1E0138212820D
:100B000088EE93E0A0E0B0E084839583A683B7836A
:100B100084E091E09183808385EC90E095878487E1
:100B200084EC90E09787868780EC90E0918B808BB7
:100B300081EC90E0938B828B82EC90E0958B848BA0
:100B400086EC90E0978B868B118E128E138E148E0E
:100B500008955058BB27AA270E94C1050C9434075A
:100B60000E94260738F00E942D0720F039F49F3F9D
:100B700019F426F40C9423070EF4E095E7FB0C948B
:100B80001D07E92F0E94450758F3BA17620773073C
:100B90008407950720F079F4A6F50C9467070EF406
:100BA000E0950B2EBA2FA02D0B01B90190010C017D
:100BB000CA01A0011124FF27591B99F0593F50F495
:100BC000503E68F11A16F040A22F232F342F4427ED
:100BD000585FF3CF469537952795A795F0405395E5
:100BE000C9F77EF41F16BA0B620B730B840BBAF0B5
:100BF0009150A1F0FF0FBB1F661F771F881FC2F720
:100C00000EC0BA0F621F731F841F48F48795779533
:100C10006795B795F7959E3F08F0B0CF9395880FED
:100C200008F09927EE0F9795879508950E94F90689
:100C300008F481E008950E942F060C9434070E9466
:100C40002D0758F00E94260740F029F45F3F29F055
:100C50000C941D0751110C9468070C9423070E94F3
:100C6000450768F39923B1F3552391F3951B550B71
:100C7000BB27AA2762177307840738F09F5F5F4F6F
:100C8000220F331F441FAA1FA9F335D00E2E3AF0AE
:100C9000E0E832D091505040E695001CCAF72BD0C6
:100CA000FE2F29D0660F771F881FBB1F2617370717
:100CB0004807AB07B0E809F0BB0B802DBF01FF2749
:100CC00093585F4F3AF09E3F510578F00C941D0702
:100CD0000C9468075F3FE4F3983ED4F386957795CC
:100CE0006795B795F7959F5FC9F7880F911D969502
:100CF000879597F90895E1E0660F771F881FBB1F5E
:100D0000621773078407BA0720F0621B730B840B0A
:100D1000BA0BEE1F88F7E09508950E944D0788F002
:100D20009F5798F0B92F9927B751B0F0E1F0660FAF
:100D3000771F881F991F1AF0BA95C9F714C0B130F0
:100D400091F00E946707B1E008950C946707672F40
:100D5000782F8827B85F39F0B93FCCF3869577951F
:100D60006795B395D9F73EF4909580957095619508
:100D70007F4F8F4F9F4F0895E89409C097FB3EF433
:100D800090958095709561957F4F8F4F9F4F9923D8
:100D9000A9F0F92F96E9BB279395F6958795779556
:100DA0006795B795F111F8CFFAF4BB0F11F460FF16
:100DB0001BC06F5F7F4F8F4F9F4F16C0882311F06E
:100DC00096E911C0772321F09EE8872F762F05C082
:100DD000662371F096E8862F70E060E02AF09A951D
:100DE000660F771F881FDAF7880F9695879597F912
:100DF0000895990F0008550FAA0BE0E8FEEF1616AC
:100E00001706E807F907C0F012161306E407F507FE
:100E100098F0621B730B840B950B39F40A2661F072
:100E2000232B242B252B21F408950A2609F4A14015
:100E3000A6958FEF811D811D089597F99F6780E822
:100E400070E060E008959FEF80EC089500240A941C
:100E50001616170618060906089500240A94121695
:100E60001306140605060895092E0394000C11F4C8
:100E7000882352F0BB0F40F4BF2B11F460FF04C075
:100E80006F5F7F4F8F4F9F4F089557FD9058440FCE
:100E9000551F59F05F3F71F04795880F97FB991FD9
:100EA00061F09F3F79F08795089512161306140696
:100EB000551FF2CF4695F1DF08C016161706180623
:100EC000991FF1CF86957105610508940895E894FE
:100ED000BB2766277727CB0197F908950E94F9066B
:100EE00008F48FEF08950E94830729ED3BE54EED4E
:100EF0005EE30C94CB0716F00C94C7080C94230700
:100F000068940C941D070E944D07A8F39923C1F320
:100F1000AEF3DF93CF931F930F93FF92C92FDD277B
:100F200088232AF02197660F771F881FDAF720E0C1
:100F300030E040E85FEB9FE3883920F0803E38F0F6
:100F400021968F770E94AA05E8E6F0E004C00E948F
:100F5000AA05E5E9F0E00E94D5088B01BE01EC018D
:100F6000FB2E6F5771097595771F880B990B0E949F
:100F7000BE0628E132E741E35FE30E94DE07AF2DC2
:100F80009801AE01FF900F911F91CF91DF910E94C8
:100F9000C1050C9434070E94DE070C9434070E94AC
:100FA000260738F00E942D0720F0952311F00C94AD
:100FB0001D070C94230711240C9468070E94450711
:100FC00070F3959FC1F3950F50E0551F629FF0019C
:100FD000729FBB27F00DB11D639FAA27F00DB11DB5
:100FE000AA1F649F6627B00DA11D661F829F22273E
:100FF000B00DA11D621F739FB00DA11D621F839FC5
:10100000A00D611D221F749F3327A00D611D231F9A
:10101000849F600D211D822F762F6A2F11249F57E8
:1010200050409AF0F1F088234AF0EE0FFF1FBB1FEB
:10103000661F771F881F91505040A9F79E3F5105AA
:1010400080F00C941D070C9468075F3FE4F3983E12
:10105000D4F3869577956795B795F795E7959F5F54
:10106000C1F7FE2B880F911D9695879597F90895E6
:10107000FA01EE0FFF1F309621053105A1F1611530
:10108000710561F48038BFE39B0749F1689490389B
:10109000810561F08038BFEF9B0741F099234AF545
:1010A000FF3FE1053105210519F1E8940894E79522
:1010B000D901AA2329F4AB2FBE2FF85FD0F310C0BB
:1010C000FF5F70F4A695E0F7F73950F019F0FF3A9A
:1010D00038F49F779F930DD00F9007FC9058089598
:1010E00046F00C94230760E070E080E89FE30895E9
:1010F0004FE79F775F934F933F932F930E94830710
:101100002F913F914F915F910E94CB070C949508CE
:101110000E94F906880B990B089529F416F00C9497
:101120001D070C9467070C9423070E944D07A8F332
:101130009638A0F707F80F92E8942BE33AEA48EBC9
:101140005FE70E94E1070F920F920F924DB75EB7D3
:101150000F920E943E09E2ECF0E00E94D5084F9108
:101160005F91EF91FF91E595EE1FFF1F49F0FE574C
:10117000E0684427EE0F441FFA95E1F74195550BBF
:101180000E9408090F9007FE0C94FC0808959F3FE9
:1011900031F0915020F4879577956795B795880F32
:1011A000911D9695879597F90895DF93CF931F9397
:1011B0000F93FF92EF92DF927B018C01689406C03F
:1011C000DA2EEF010E94DE07FE01E894A591259139
:1011D000359145915591A6F3EF010E94C105FE019D
:1011E0009701A801DA9469F7DF90EF90FF900F91D3
:1011F0001F91CF91DF9108959B01AC0160E070E0F9
:1012000080E89FE30C941B060C941D070C94C70800
:101210000E944D07D8F39923C9F3940F511DA3F3EE
:101220009150504094F059F0882332F0660F771FA8
:10123000881F91505040C1F79E3F51052CF7880FF1
:10124000911D9695879597F908955F3FACF0983E6C
:101250009CF0BB27869577956795B79508F4B160A4
:101260009395C1F7BB0F58F711F460FFE8CF6F5F9C
:101270007F4F8F4F9F4FE3CF0C946807FA01DC013B
:10128000AA0FBB1F9B01AC01BF5728F422273327AD
:101290004427507820C0B75190F4AB2F00244695D6
:1012A00037952795011CA395D2F3002071F0220FEA
:1012B000331F441FB395DAF30ED00C94A9056130A7
:1012C0007105A0E88A07B94630F49B01AC01662796
:1012D000772788279078309621F0208331834283C6
:1012E00053830895A1E21A2EAA1BBB1BFD010DC05A
:1012F000AA1FBB1FEE1FFF1FA217B307E407F507C6
:1013000020F0A21BB30BE40BF50B661F771F881FA1
:10131000991F1A9469F760957095809590959B0137
:10132000AC01BD01CF010895EE0FFF1F0590F491B0
:10133000E02D0994F894FFCF000000007701D7005A
:101340000401C4013501130127010D0A006E616E0D
:1013500000696E66006F76660044617461203D200E
:1013600000207C2054203D2000204C757800562021
:0C1370007C20496E707574203D20000048
:107E0000112484B714BE81FFF0D085E080938100F7
:107E100082E08093C00088E18093C10086E0809377
:107E2000C20080E18093C4008EE0C9D0259A86E02C
:107E300020E33CEF91E0309385002093840096BBD3
:107E4000B09BFECF1D9AA8958150A9F7CC24DD24C4
:107E500088248394B5E0AB2EA1E19A2EF3E0BF2EE7
:107E6000A2D0813461F49FD0082FAFD0023811F036
:107E7000013811F484E001C083E08DD089C08234E0
:107E800011F484E103C0853419F485E0A6D080C0E4
:107E9000853579F488D0E82EFF2485D0082F10E0AE
:107EA000102F00270E291F29000F111F8ED06801E7
:107EB0006FC0863521F484E090D080E0DECF843638
:107EC00009F040C070D06FD0082F6DD080E0C81688
:107ED00080E7D80618F4F601B7BEE895C0E0D1E017
:107EE00062D089930C17E1F7F0E0CF16F0E7DF06D8
:107EF00018F0F601B7BEE89568D007B600FCFDCFD4
:107F0000A601A0E0B1E02C9130E011968C91119780
:107F100090E0982F8827822B932B1296FA010C0160
:107F200087BEE89511244E5F5F4FF1E0A038BF0790
:107F300051F7F601A7BEE89507B600FCFDCF97BE46
:107F4000E89526C08437B1F42ED02DD0F82E2BD052
:107F50003CD0F601EF2C8F010F5F1F4F84911BD097
:107F6000EA94F801C1F70894C11CD11CFA94CF0C13
:107F7000D11C0EC0853739F428D08EE10CD085E9AC
:107F80000AD08FE07ACF813511F488E018D01DD067
:107F900080E101D065CF982F8091C00085FFFCCF94
:107FA0009093C60008958091C00087FFFCCF809118
:107FB000C00084FD01C0A8958091C6000895E0E648
:107FC000F0E098E1908380830895EDDF803219F02E
:107FD00088E0F5DFFFCF84E1DECF1F93182FE3DFCA
:107FE0001150E9F7F2DF1F91089580E0E8DFEE27F6
:047FF000FF270994CA
:027FFE00040479
:00000001FF
