:100000000C9458000C9480000C9480000C94800098
:100010000C9480000C9480000C9480000C94800060
:100020000C9480000C9480000C9480000C94800050
:100030000C9480000C9480000C9480000C94800040
:100040000C949C030C9480000C940C040C94E60318
:100050000C9480000C9480000C9480000C94800020
:100060000C943E040C948000000000002500280041
:100070002B00040404040404040402020202020229
:10008000030303030303010204081020408001025C
:1000900004081020010204081020000000080002DB
:1000A00001000003040700000000000000005D05DF
:1000B00011241FBECFEFD8E0DEBFCDBF11E0A0E01E
:1000C000B1E0ECE0FDE002C005900D92A832B1076E
:1000D000D9F722E0A8E2B1E001C01D92A437B2072F
:1000E000E1F710E0C8E5D0E004C02197FE010E94CE
:1000F0007E06C735D107C9F70E9496050C94840681
:100100000C94000090E0FC01E656FF4F2491FC01A6
:10011000EA57FF4F3491FC01EE58FF4FE491EE2374
:10012000C9F0222339F0233001F1A8F4213019F16C
:10013000223029F1F0E0EE0FFF1FE859FF4FA591A3
:10014000B4918FB7F894EC91611126C030953E239D
:100150003C938FBF08952730A9F02830C9F0243090
:1001600049F7809180008F7D03C0809180008F7758
:1001700080938000DFCF84B58F7784BDDBCF84B5DB
:100180008F7DFBCF8091B0008F778093B000D2CF6E
:100190008091B0008F7DF9CF3E2BDACF3FB7F89436
:1001A0008091C7019091C801A091C901B091CA0185
:1001B00026B5A89B05C02F3F19F00196A11DB11DC2
:1001C0003FBFBA2FA92F982F8827BC01CD01620FFE
:1001D000711D811D911D42E0660F771F881F991FB9
:1001E0004A95D1F708950895CF93DF93AC01E0913C
:1001F000C001F091C1013097F1F09091BF01809161
:10020000BE019817C0F090E0292F30E0261737077D
:1002100054F4D901A85DBE4F240F351FE901288190
:100220002C939F5FF1CF1092BF016093BE01CB0171
:10023000DF91CF910994DF91CF910895AF92BF9252
:10024000CF92DF92EF92FF920F931F93CF93DF93A2
:100250006C017B018B01040F151FEB015E01AE18D1
:10026000BF08C017D10759F06991D601ED91FC91F3
:100270000190F081E02DC6010995892B79F7C50120
:10028000DF91CF911F910F91FF90EF90DF90CF9072
:10029000BF90AF900895FC01538D448D252F30E021
:1002A000842F90E0821B930B541710F0CF96089583
:1002B00001970895FC01918D828D981761F0A28DB0
:1002C000AE0FBF2FB11D5D968C91928D9F5F9F7376
:1002D000928F90E008958FEF9FEF0895FC01918D2C
:1002E000828D981731F0828DE80FF11D858D90E099
:1002F00008958FEF9FEF0895FC01918D228D892F36
:1003000090E0805C9F4F821B91098F73992708951D
:100310008BEC91E00E947C0121E0892B09F420E024
:10032000822F089580E090E0892B29F00E948801B7
:1003300081110C9400000895FC01A48DA80FB92F21
:10034000B11DA35ABF4F2C91848D90E001968F73FD
:100350009927848FA689B7892C93A089B1898C911C
:10036000837080648C93938D848D981306C002886B
:10037000F389E02D80818F7D80830895EF92FF9235
:100380000F931F93CF93DF93EC0181E0888F9B8DB8
:100390008C8D98131AC0E889F989808185FF15C072
:1003A0009FB7F894EE89FF896083E889F989808195
:1003B0008370806480839FBF81E090E0DF91CF9164
:1003C0001F910F91FF90EF900895F62E0B8D10E086
:1003D0000F5F1F4F0F731127E02E8C8D8E110CC0F5
:1003E0000FB607FCFACFE889F989808185FFF5CF40
:1003F000CE010E949C01F1CFEB8DEC0FFD2FF11D82
:10040000E35AFF4FF0829FB7F8940B8FEA89FB897C
:1004100080818062CFCFCF93DF93EC01888D8823DA
:10042000B9F0AA89BB89E889F9898C9185FD03C057
:10043000808186FD0DC00FB607FCF7CF8C9185FF3C
:10044000F2CF808185FFEDCFCE010E949C01E9CFE4
:10045000DF91CF91089520916E01260F3327331F2E
:1004600021323105ECF420919201FC0190E080E012
:10047000243069F082E00895A0916E012191AC01D1
:10048000425B5E4FA40FB52FB11D2C9301968617CA
:1004900098F380916E01680F60936E0180E008957B
:1004A00081E008951092920181E08093940110926E
:1004B000930161E082E10E94820061E083E10E9499
:1004C0008200E9EBF0E080818E7F808380818D7FE8
:1004D000808388E48093B80085E48093BC0008950D
:1004E0000895E091BF018091BE01E81730F4F0E07B
:1004F000E85DFE4F808190E008958FEF9FEF0895B3
:100500009091BF018091BE012FEF3FEF981748F403
:10051000E92FF0E0E85DFE4F208130E09F5F90938F
:10052000BF01C90108958091BE019091BF01891B4F
:10053000990B0895CF93DF93CB01EA01642F0E94BA
:100540002B02CE01DF91CF910895CF93DF931F92BD
:10055000CDB7DEB7698361E0CE0101960E942B0220
:1005600081E090E00F90DF91CF91089590E080E0DE
:1005700008958F929F92AF92BF920F931F93CF9344
:10058000DF93CDB7DEB7A1970FB6F894DEBF0FBEED
:10059000CDBF19A2423008F44AE08E010F5D1F4F13
:1005A000842E912CB12CA12CA50194010E945C06F3
:1005B000E62FB901CA01EA3044F5E05DD801EE93B7
:1005C0008D01232B242B252B79F790E080E01097C9
:1005D00069F0FD0101900020E9F73197AF014A1B56
:1005E0005B0BBD018BEC91E00E941E01A1960FB642
:1005F000F894DEBF0FBECDBFDF91CF911F910F9159
:10060000BF90AF909F908F900895E95CD7CFCF9324
:10061000DF9385ED8093BC0080914A0190914B015E
:10062000A0914C01B0914D010796A11DB11D23E091
:10063000B695A795979587952A95D1F72091BC00F7
:1006400024FD03C01092920136C040914A0150919E
:100650004B0160914C0170914D01452B462B472B6E
:1006600069F30097A105B10541F02AE22A95F1F757
:1006700000C00197A109B109E1CF8091490191E042
:10068000909348018823B9F0C091B800D091BA0086
:100690008091BC008A7B8093BC0060E082E10E9474
:1006A000820060E083E10E9482000E945202D093A7
:1006B000BA00C093B800DF91CF910895CF92DF9236
:1006C000EF92FF928091BE019091BF01891B990B1F
:1006D000029754F088E692E00E948002682F8BEC2B
:1006E00091E00E94BE01EECF88E692E00E94800277
:1006F0006C01990FEE08FF084AE0C701B601F7FE4A
:100700000DC06DE28BEC91E00E94BE016627772759
:10071000CB016C197D098E099F094AE00E94B9023C
:1007200042E050E064E271E08BEC91E0FF90EF90EA
:10073000DF90CF900C941E011F920F920FB60F9274
:1007400011242F933F938F939F93AF93BF938091E7
:10075000C3019091C401A091C501B091C60130912F
:10076000C20123E0230F2D3758F50196A11DB11DBD
:100770002093C2018093C3019093C401A093C5014B
:10078000B093C6018091C7019091C801A091C901A1
:10079000B091CA010196A11DB11D8093C70190932C
:1007A000C801A093C901B093CA01BF91AF919F91B5
:1007B0008F913F912F910F900FBE0F901F90189522
:1007C00026E8230F0296A11DB11DD2CF1F920F92D2
:1007D0000FB60F9211242F933F934F935F936F9314
:1007E0007F938F939F93AF93BF93EF93FF938BEC84
:1007F00091E00E949C01FF91EF91BF91AF919F9179
:100800008F917F916F915F914F913F912F910F90B9
:100810000FBE0F901F9018951F920F920FB60F9258
:1008200011242F938F939F93EF93FF93E091DB011C
:10083000F091DC018081E091E101F091E20182FD23
:100840001BC090818091E4018F5F8F732091E5013F
:10085000821741F0E091E401F0E0E553FE4F958FFF
:100860008093E401FF91EF919F918F912F910F90D1
:100870000FBE0F901F9018958081F4CF1F920F929A
:100880000FB60F9211242F933F934F935F936F9363
:100890007F938F939F93AF93BF93EF93FF93809139
:1008A000B900887F803609F44AC0F0F5883209F42F
:1008B000A7C018F5803109F49BC0B8F4882309F467
:1008C000F9C0883009F494C0FF91EF91BF91AF91C6
:1008D0009F918F917F916F915F914F913F912F9158
:1008E0000F900FBE0F901F901895883109F488C0A3
:1008F000803251F78093910114C0803409F49DC077
:1009000040F48033B9F38833F9F68093910185EC94
:10091000B0C0803509F485C0883509F496C08834A4
:1009200099F60E940703D0CF883909F48CC038F5B6
:10093000883729F050F4883611F0803729F683E0A3
:10094000809392011092900157C0883809F47BC0BF
:10095000803919F0803809F0B7CF8091900180324A
:1009600008F071C0E091900181E08E0F80939001BA
:100970008091BB00F0E0E059FE4F80833DC0803B9A
:1009800039F0E0F4803A09F479C0883A09F09CCF54
:1009900084E08093920110926F0110926E01E091B9
:1009A000BA01F091BB01099580916E0181110FC0D0
:1009B00081E080936E0110924E0109C0803C09F4E1
:1009C000A6CF883C09F4A3CF883B09F07DCFE09106
:1009D0006F0181E08E0F80936F01F0E0E25BFE4FCC
:1009E00080818093BB0090916F0180916E0129C03E
:1009F0008091B7018093BB0085EC8093BC0064CFED
:100A00009091B6018091B501981758F5E091B60123
:100A100081E08E0F8093B601F0E0EB56FE4F8081AF
:100A2000E9CFE091B60181E08E0F8093B60180910D
:100A3000BB00F0E0EB56FE4F80839091B6018091B1
:100A4000B5019817C8F285E8D8CFE091B60181E0EA
:100A50008E0F8093B6018091BB00F0E0EB56FE4F05
:100A600080838091940181115CCF81E08093930118
:100A700084EA8093BC001092920126CF85EC80938B
:100A8000BC001092920180919001803230F4E0918C
:100A90009001F0E0E059FE4F10826091900170E00B
:100AA000E091B801F091B90180E791E009951092C9
:100AB00090010ACF1092910134CFEBECF1E0138258
:100AC000128288EE93E0A0E0B0E084839583A68351
:100AD000B78324E031E03183208325EC30E0358793
:100AE000248724EC30E03787268720EC30E0318BF8
:100AF000208B21EC30E0338B228B22EC30E0358BE5
:100B0000248B26EC30E0378B268B118E128E138EC1
:100B1000148EE8E6F2E01382128284839583A68322
:100B2000B78386E191E0918380830895789484B5BA
:100B3000826084BD84B5816084BD85B5826085BDD9
:100B400085B5816085BD80916E00816080936E0067
:100B50001092810080918100826080938100809159
:100B6000810081608093810080918000816080930A
:100B700080008091B10084608093B1008091B000CA
:100B800081608093B00080917A00846080937A00C5
:100B900080917A00826080937A0080917A008160EF
:100BA00080937A0080917A00806880937A00109216
:100BB000C1001092BF011092BE011092BD011092AF
:100BC000BC010E94520283EF90E09093BB0180939E
:100BD000BA0184EF90E09093B9018093B80188E066
:100BE0008093BA008EE593E09093C1018093C00199
:100BF000E091DB01F091DC0182E08083E091D7019C
:100C0000F091D8011082E091D901F091DA018FECD6
:100C100080831092E301E091DF01F091E00186E032
:100C20008083E091DD01F091DE018081806180832D
:100C3000E091DD01F091DE01808188608083E091A8
:100C4000DD01F091DE01808180688083E091DD012B
:100C5000F091DE0180818F7D8083C0E0D0E00E9432
:100C6000CE004B015C0184E6C82ED12CE12CF12C86
:100C70000E94CE00681979098A099B09683E734071
:100C800081059105A8F321E0C21AD108E108F10815
:100C900088EE880E83E0981EA11CB11CC114D104FB
:100CA000E104F10429F72097D1F20E9488018823FA
:100CB000B1F20E940000D3CFA1E21A2EAA1BBB1BE7
:100CC000FD010DC0AA1FBB1FEE1FFF1FA217B30718
:100CD000E407F50720F0A21BB30BE40BF50B661F2E
:100CE000771F881F991F1A9469F7609570958095F2
:100CF00090959B01AC01BD01CF010895EE0FFF1F40
:0C0D00000590F491E02D0994F894FFCFC9
:100D0C0000000000BE011E014B010B027C015A01C8
:100D1C006E0100000000A5029A02B6027002930256
:080D2C00800271020D0A0000B3
:00000001FF
