:020000040000FA
:100000000C9435000C945D000C945D000C945D0024
:100010000C945D000C945D000C945D000C945D00EC
:100020000C945D000C945D000C945D000C945D00DC
:100030000C945D000C945D000C945D000C945D00CC
:100040000C94F7010C945D000C9467020C9441022F
:100050000C945D000C945D000C945D000C945D00AC
:100060000C945D000C945D00240411241FBECFEF9E
:10007000D8E0DEBFCDBF11E0A0E0B1E0EAE8FCE0EF
:1000800002C005900D92AA33B107D9F721E0AAE387
:10009000B1E001C01D92A23EB207E1F710E0C5E356
:1000A000D0E004C02197FE010E943D06C433D10771
:1000B000C9F70E9499020C9443060C9400008E30FC
:1000C00008F08E508770806480937C0080917A0065
:1000D000806480937A0080917A0086FDFCCF8091C5
:1000E00078009091790008953FB7F894809141018C
:1000F00090914201A0914301B091440126B5A89B83
:1001000005C02F3F19F00196A11DB11D3FBFBA2FA9
:10011000A92F982F8827BC01CD01620F711D811D69
:10012000911D42E0660F771F881F991F4A95D1F7EE
:100130000895AF92BF92CF92DF92EF92FF920F930A
:100140001F93CF93DF936C017B018B01040F151F6D
:10015000EB015E01AE18BF08C017D10759F06991D5
:10016000D601ED91FC910190F081E02DC601099539
:10017000892B79F7C501DF91CF911F910F91FF90E6
:10018000EF90DF90CF90BF90AF900895FC01538D1A
:10019000448D252F30E0842F90E0821B930B541761
:1001A00010F0CF96089501970895FC01918D828DEE
:1001B000981761F0A28DAE0FBF2FB11D5D968C9187
:1001C000928D9F5F9F73928F90E008958FEF9FEFC6
:1001D0000895FC01918D828D981731F0828DE80F82
:1001E000F11D858D90E008958FEF9FEF0895FC013C
:1001F000918D228D892F90E0805C9F4F821B910909
:100200008F739927089585E491E00E94F70021E01B
:10021000892B09F420E0822F089580E090E0892B5B
:1002200029F00E94030181110C9400000895FC0143
:10023000A48DA80FB92FB11DA35ABF4F2C91848D47
:1002400090E001968F739927848FA689B7892C93A4
:10025000A089B1898C91837080648C93938D848DF7
:10026000981306C00288F389E02D80818F7D8083FA
:100270000895EF92FF920F931F93CF93DF93EC01BA
:1002800081E0888F9B8D8C8D98131AC0E889F9893D
:10029000808185FF15C09FB7F894EE89FF89608340
:1002A000E889F98980818370806480839FBF81E0C1
:1002B00090E0DF91CF911F910F91FF90EF90089503
:1002C000F62E0B8D10E00F5F1F4F0F731127E02EDE
:1002D0008C8D8E110CC00FB607FCFACFE889F98916
:1002E000808185FFF5CFCE010E941701F1CFEB8D04
:1002F000EC0FFD2FF11DE35AFF4FF0829FB7F894EA
:100300000B8FEA89FB8980818062CFCFCF93DF9307
:10031000EC01888D8823B9F0AA89BB89E889F9891D
:100320008C9185FD03C0808186FD0DC00FB607FC52
:10033000F7CF8C9185FFF2CF808185FFEDCFCE0185
:100340000E941701E9CFDF91CF910895FC01019040
:100350000020E9F73197AF01481B590BBC0185E438
:1003600091E00C9499008F929F92AF92BF920F935D
:100370001F93CF93DF93CDB7DEB7A1970FB6F89455
:10038000DEBF0FBECDBF19A2423008F44AE08E0195
:100390000F5D1F4F842E912CB12CA12CA50194012F
:1003A0000E941B06E62FB901CA01EA30F4F4E05DB1
:1003B000D801EE938D01232B242B252B79F790E088
:1003C00080E0109719F0CD010E94A601A1960FB60A
:1003D000F894DEBF0FBECDBFDF91CF911F910F917B
:1003E000BF90AF909F908F900895E95CE1CF1F92EE
:1003F0000F920FB60F9211242F933F938F939F93D9
:10040000AF93BF9380913D0190913E01A0913F0138
:10041000B091400130913C0123E0230F2D3758F576
:100420000196A11DB11D20933C0180933D01909345
:100430003E01A0933F01B093400180914101909112
:100440004201A0914301B09144010196A11DB11D4B
:100450008093410190934201A0934301B0934401E2
:10046000BF91AF919F918F913F912F910F900FBEB0
:100470000F901F90189526E8230F0296A11DB11D1D
:10048000D2CF1F920F920FB60F9211242F933F934A
:100490004F935F936F937F938F939F93AF93BF938C
:1004A000EF93FF9385E491E00E941701FF91EF9194
:1004B000BF91AF919F918F917F916F915F914F917C
:1004C0003F912F910F900FBE0F901F9018951F9284
:1004D0000F920FB60F9211242F938F939F93EF9348
:1004E000FF93E0915501F09156018081E0915B010D
:1004F000F0915C0182FD1BC0908180915E018F5F55
:100500008F7320915F01821741F0E0915E01F0E06E
:10051000EB5BFE4F958F80935E01FF91EF919F9172
:100520008F912F910F900FBE0F901F901895808183
:10053000F4CF789484B5826084BD84B5816084BD35
:1005400085B5826085BD85B5816085BD80916E0071
:10055000816080936E0010928100809181008260A2
:1005600080938100809181008160809381008091DF
:1005700080008160809380008091B10084608093CE
:10058000B1008091B00081608093B00080917A00CA
:10059000846080937A0080917A00826080937A00F0
:1005A00080917A00816080937A0080917A008068DF
:1005B00080937A001092C100E0915501F0915601AC
:1005C00082E08083E0915101F09152011082E0912C
:1005D0005301F09154018FEC808310925D01E09102
:1005E0005901F0915A0186E08083E0915701F09122
:1005F0005801808180618083E0915701F09158011A
:10060000808188608083E0915701F091580180815A
:1006100080688083E0915701F091580180818F7D3F
:100620008083C0E0D0E08EE00E945F0090933B01A9
:1006300080933A010E9474004B015C0184E6C82E4D
:10064000D12CE12CF12C0E947400681979098A09D7
:100650009B09683E734081059105A8F321E0C21A09
:10066000D108E108F10888EE880E83E0981EA11CED
:10067000B11CC114D104E104F10429F782E191E035
:100680000E94A601C0903A01D0903B010D2C000CB5
:10069000EE08FF084AE0C701B601F7FE0DC06DE2A3
:1006A00085E491E00E94390166277727CB016C1918
:1006B0007D098E099F094AE00E94B3018EE00E94E5
:1006C0005F00BC01990F880B990B0E94F4042AE08B
:1006D00038E240EA5BE30E94A9056B017C014B0113
:1006E0005C018AE191E00E94A601A7019601C70181
:1006F000B6010E941606882399F08BE291E00E94D1
:10070000A60187E391E00E94A601209709F48BCF10
:100710000E940301882309F486CF0E94000083CF42
:1007200026013701E89477F82FEF3FEF4FE75FE7B7
:10073000C301B2010E94160681110DC02FEF3FEFD9
:100740004FE75FE7C301B2010E94BE0418161CF414
:100750008FE291E0D4CF2FEF3FEF4FE75FE4C70187
:10076000B6010E94A40518161CF483E391E0C7CFDC
:100770002FEF3FEF4FE75FECC701B6010E94BE04C9
:1007800087FDF3CF20E030E0A901C701B6010E9448
:10079000BE0487FF0BC06DE285E491E00E94390141
:1007A00046015701B7FAB094B7F8B0942AE037ED94
:1007B00043EA5BE3C501B4010E9452044B015C01B2
:1007C0000E94C3046B017C010E94F2049B01AC01F6
:1007D000C501B4010E9451044B015C014AE0C7010C
:1007E000B6010E94B3016EE285E491E00E943901F6
:1007F00020E030E040E251E4C501B4010E94A905C7
:100800004B015C010E94C3046B01F12CE12C4AE016
:10081000C701B6010E94B301C701B6010E94F204EC
:100820009B01AC01C501B4010E94510420E030E0FD
:1008300040E251E40E94A9050E94C30490E080E0D8
:100840004AE00E94B3015DCFE5E4F1E01382128239
:1008500088EE93E0A0E0B0E084839583A683B7831D
:1008600084E091E09183808385EC90E09587848794
:1008700084EC90E09787868780EC90E0918B808B6A
:1008800081EC90E0938B828B82EC90E0958B848B53
:1008900086EC90E0978B868B118E128E138E148EC1
:1008A00008955058BB27AA270E9469040C946A0532
:1008B0000E945C0538F00E94630520F039F49F3FE8
:1008C00019F426F40C9459050EF4E095E7FB0C940A
:1008D0005305E92F0E947B0558F3BA176207730787
:1008E0008407950720F079F4A6F50C949D050EF485
:1008F000E0950B2EBA2FA02D0B01B90190010C0130
:10090000CA01A0011124FF27591B99F0593F50F447
:10091000503E68F11A16F040A22F232F342F44279F
:10092000585FF3CF469537952795A795F040539597
:10093000C9F77EF41F16BA0B620B730B840BBAF067
:100940009150A1F0FF0FBB1F661F771F881FC2F7D2
:100950000EC0BA0F621F731F841F48F487957795E6
:100960006795B795F7959E3F08F0B0CF9395880FA0
:1009700008F09927EE0F9795879508950E942F0507
:1009800008F481E008950E94830588F09F5798F04D
:10099000B92F9927B751B0F0E1F0660F771F881F84
:1009A000991F1AF0BA95C9F714C0B13091F00E949E
:1009B0009D05B1E008950C949D05672F782F882739
:1009C000B85F39F0B93FCCF3869577956795B395C5
:1009D000D9F73EF490958095709561957F4F8F4F34
:1009E0009F4F0895E89409C097FB3EF49095809539
:1009F000709561957F4F8F4F9F4F9923A9F0F92FE5
:100A000096E9BB279395F695879577956795B79562
:100A1000F111F8CFFAF4BB0F11F460FF1BC06F5F48
:100A20007F4F8F4F9F4F16C0882311F096E911C05A
:100A3000772321F09EE8872F762F05C0662371F07B
:100A400096E8862F70E060E02AF09A95660F771F8F
:100A5000881FDAF7880F9695879597F90895990F6B
:100A60000008550FAA0BE0E8FEEF16161706E80778
:100A7000F907C0F012161306E407F50798F0621B99
:100A8000730B840B950B39F40A2661F0232B242B6E
:100A9000252B21F408950A2609F4A140A6958FEF8D
:100AA000811D811D089597F99F6780E870E060E0DF
:100AB00008959FEF80EC089500240A9416161706F7
:100AC00018060906089500240A941216130614063F
:100AD00005060895092E0394000C11F4882352F0A2
:100AE000BB0F40F4BF2B11F460FF04C06F5F7F4F5A
:100AF0008F4F9F4F089557FD9058440F551F59F041
:100B00005F3F71F04795880F97FB991F61F09F3FFA
:100B100079F087950895121613061406551FF2CF23
:100B20004695F1DF08C0161617061806991FF1CF73
:100B300086957105610508940895E894BB2766279A
:100B40007727CB0197F908950E942F0508F48FEFBE
:100B500008950E94BC050C946A050E945C0538F05B
:100B60000E94630520F0952311F00C9453050C941A
:100B7000590511240C949E050E947B0570F3959FE6
:100B8000C1F3950F50E0551F629FF001729FBB2784
:100B9000F00DB11D639FAA27F00DB11DAA1F649F20
:100BA0006627B00DA11D661F829F2227B00DA11DD3
:100BB000621F739FB00DA11D621F839FA00D611D59
:100BC000221F749F3327A00D611D231F849F600D7A
:100BD000211D822F762F6A2F11249F5750409AF0A3
:100BE000F1F088234AF0EE0FFF1FBB1F661F771F2F
:100BF000881F91505040A9F79E3F510580F00C94FA
:100C000053050C949E055F3FE4F3983ED4F386951C
:100C100077956795B795F795E7959F5FC1F7FE2B99
:100C2000880F911D9695879597F908950E942F0535
:100C3000880B990B0895A1E21A2EAA1BBB1BFD017C
:100C40000DC0AA1FBB1FEE1FFF1FA217B307E407AB
:100C5000F50720F0A21BB30BE40BF50B661F771F03
:100C6000881F991F1A9469F76095709580959095E3
:100C70009B01AC01BD01CF010895EE0FFF1F059050
:100C8000F491E02D0994F894FFCF000000003901A1
:100C90009900C6008601F700D500E900446174613F
:100CA000203A2000202020202020202020566F6C79
:100CB00074203A20006E616E00696E66006F766681
:040CC000000D0A0019
:107E0000112484B714BE81FFF0D085E080938100F7
:107E100082E08093C00088E18093C10086E0809377
:107E2000C20080E18093C4008EE0C9D0259A86E02C
:107E300020E33CEF91E0309385002093840096BBD3
:107E4000B09BFECF1D9AA8958150A9F7CC24DD24C4
:107E500088248394B5E0AB2EA1E19A2EF3E0BF2EE7
:107E6000A2D0813461F49FD0082FAFD0023811F036
:107E7000013811F484E001C083E08DD089C08234E0
:107E800011F484E103C0853419F485E0A6D080C0E4
:107E9000853579F488D0E82EFF2485D0082F10E0AE
:107EA000102F00270E291F29000F111F8ED06801E7
:107EB0006FC0863521F484E090D080E0DECF843638
:107EC00009F040C070D06FD0082F6DD080E0C81688
:107ED00080E7D80618F4F601B7BEE895C0E0D1E017
:107EE00062D089930C17E1F7F0E0CF16F0E7DF06D8
:107EF00018F0F601B7BEE89568D007B600FCFDCFD4
:107F0000A601A0E0B1E02C9130E011968C91119780
:107F100090E0982F8827822B932B1296FA010C0160
:107F200087BEE89511244E5F5F4FF1E0A038BF0790
:107F300051F7F601A7BEE89507B600FCFDCF97BE46
:107F4000E89526C08437B1F42ED02DD0F82E2BD052
:107F50003CD0F601EF2C8F010F5F1F4F84911BD097
:107F6000EA94F801C1F70894C11CD11CFA94CF0C13
:107F7000D11C0EC0853739F428D08EE10CD085E9AC
:107F80000AD08FE07ACF813511F488E018D01DD067
:107F900080E101D065CF982F8091C00085FFFCCF94
:107FA0009093C60008958091C00087FFFCCF809118
:107FB000C00084FD01C0A8958091C6000895E0E648
:107FC000F0E098E1908380830895EDDF803219F02E
:107FD00088E0F5DFFFCF84E1DECF1F93182FE3DFCA
:107FE0001150E9F7F2DF1F91089580E0E8DFEE27F6
:047FF000FF270994CA
:027FFE00040479
:00000001FF
