:100000000C9461000C947E000C947E000C947E0095
:100010000C947E000C947E000C947E000C947E0068
:100020000C947E000C947E000C947E000C947E0058
:100030000C947E000C947E000C947E000C947E0048
:100040000C9486010C947E000C947E000C947E002F
:100050000C947E000C947E000C947E000C947E0028
:100060000C947E000C947E00000000002400270009
:100070002A000000000023002600290000000000E4
:10008000250028002B0004040404040404040202D4
:100090000202020203030303030301020408102007
:1000A0004080010204081020010204081020000012
:1000B0000008000201000003040700000000000027
:1000C000000011241FBECFEFD8E0DEBFCDBF11E08E
:1000D000A0E0B1E0E0EBF4E002C005900D92A230A8
:1000E000B107D9F721E0A2E0B1E001C01D92AB3029
:1000F000B207E1F70E94D0010C9456020C94000064
:10010000833081F028F4813099F08230A9F008958D
:100110008730A9F08830C9F08430B1F48091800034
:100120008F7D03C0809180008F7780938000089539
:1001300084B58F7784BD089584B58F7DFBCF809182
:10014000B0008F778093B00008958091B0008F7DCC
:10015000F9CF1F93CF93DF93E0EBF0E09491ECE9BC
:10016000F0E0D491E8E8F0E0C491CC23B9F0182F86
:10017000992319F0892F0E948000EC2FF0E0EE0FF8
:10018000FF1FE458FF4FA591B4918FB7F894EC91FD
:10019000111108C0D095DE23DC938FBFDF91CF9182
:1001A0001F910895DE2BF8CFCF93DF93282F30E0F7
:1001B000F901E255FF4F8491F901E656FF4FD491C2
:1001C000F901EA57FF4FC491CC23A1F081110E949D
:1001D0008000EC2FF0E0EE0FFF1FEE58FF4FA591CF
:1001E000B491EC91ED2381E090E009F480E0DF919F
:1001F000CF91089580E090E0FACFCF93DF9390E025
:10020000FC01E656FF4F24918A579F4FFC018491D1
:100210008823D1F090E0880F991FFC01E859FF4F27
:10022000A591B491FC01E458FF4FC591D49162307F
:1002300071F49FB7F8943C91822F809583238C931F
:10024000E8812E2B28839FBFDF91CF9108958FB730
:10025000F894EC912E2B2C938FBFF6CF3FB7F894E8
:100260008091070190910801A0910901B0910A01C4
:1002700026B5A89B05C02F3F19F00196A11DB11D01
:100280003FBFBA2FA92F982F8827BC01CD01620F3D
:10029000711D811D911D42E0660F771F881F991FF8
:1002A0004A95D1F708958F929F92AF92BF92CF92C5
:1002B000DF92EF92FF926B017C010E942E014B01B5
:1002C0005C01C114D104E104F104B9F00E942E01D3
:1002D000681979098A099B09683E7340810591056F
:1002E00080F321E0C21AD108E108F10888EE880EF7
:1002F00083E0981EA11CB11CE4CFFF90EF90DF902B
:10030000CF90BF90AF909F908F9008951F920F92C3
:100310000FB60F9211242F933F938F939F93AF9318
:10032000BF938091030190910401A0910501B091C8
:1003300006013091020123E0230F2D3758F5019675
:10034000A11DB11D2093020180930301909304012C
:10035000A0930501B09306018091070190910801D7
:10036000A0910901B0910A010196A11DB11D8093D0
:10037000070190930801A0930901B0930A01BF916E
:10038000AF919F918F913F912F910F900FBE0F9042
:100390001F90189526E8230F0296A11DB11DD2CFFC
:1003A000789484B5826084BD84B5816084BD85B550
:1003B000826085BD85B5816085BD80916E0081605C
:1003C00080936E0010928100809181008260809302
:1003D0008100809181008160809381008091800004
:1003E0008160809380008091B10084608093B1002F
:1003F0008091B00081608093B00080917A00846029
:1004000080937A0080917A00826080937A00809154
:100410007A00816080937A0080917A00806880936E
:100420007A001092C10062E080E00E94FD0062E06C
:1004300081E00E94FD0061E082E00E94FD00C0E0DA
:10044000D0E004E610E088EEA82E83E0B82E80E02D
:100450000E94D4007C0181E00E94D400892BF9F431
:10046000B0920101A092000181E00E94A900C09019
:100470000001D09001010D2C000CEE08FF08C7010F
:10048000B6010E94530180E00E94A900C701B60195
:100490000E9453012097D9F20E940000D8CFEF2884
:1004A00019F71093010100930001DECFF894FFCFFC
:0204B000F40155
:00000001FF
