:100000000C945C000C9479000C9479000C947900A9
:100010000C9479000C9479000C9479000C9479007C
:100020000C9479000C9479000C9479000C9479006C
:100030000C9479000C9479000C9479000C9479005C
:100040000C943E010C9479000C9479000C94790086
:100050000C9479000C9479000C9479000C9479003C
:100060000C9479000C947900000000080002010053
:100070000003040700000000000000000000000072
:10008000250028002B0000000000240027002A0083
:10009000040404040404040402020202020203032E
:1000A0000303030301020408102040800102040836
:1000B000102001020408102011241FBECFEFD8E049
:1000C000DEBFCDBF11E0A0E0B1E0E6EAF5E002C09E
:1000D00005900D92AA30B107D9F721E0AAE0B1E06E
:1000E00001C01D92AB31B207E1F70E9488010C9468
:1000F000D1020C94000090E0FC01EC55FF4F2491DC
:1001000080579F4FFC018491882399F090E0880FDD
:10011000991FFC01EA57FF4FA591B491FC01E458E7
:10012000FF4F859194918FB7F894EC91E22BEC936B
:100130008FBF089590E0FC01E859FF4F2491FC0126
:10014000EC55FF4F3491FC01E057FF4FE491EE2353
:10015000C9F0222339F0233001F1A8F4213019F13C
:10016000223029F1F0E0EE0FFF1FE458FF4FA59178
:10017000B4918FB7F894EC91611126C030953E236D
:100180003C938FBF08952730A9F02830C9F0243060
:1001900049F7809180008F7D03C0809180008F7728
:1001A00080938000DFCF84B58F7784BDDBCF84B5AB
:1001B0008F7DFBCF8091B0008F778093B000D2CF3E
:1001C0008091B0008F7DF9CF3E2BDACF3FB7F89406
:1001D0008091170190911801A0911901B0911A0115
:1001E00026B5A89B05C02F3F19F00196A11DB11D92
:1001F0003FBFBA2FA92F982F8827BC01CD01620FCE
:10020000711D811D911D42E0660F771F881F991F88
:100210004A95D1F708958F929F92AF92BF92CF9255
:10022000DF92EF92FF926B017C010E94E6004B018E
:100230005C01C114D104E104F104B9F00E94E600AC
:10024000681979098A099B09683E734081059105FF
:1002500080F321E0C21AD108E108F10888EE880E87
:1002600083E0981EA11CB11CE4CFFF90EF90DF90BB
:10027000CF90BF90AF909F908F9008951F920F9254
:100280000FB60F9211242F933F938F939F93AF93A9
:10029000BF938091130190911401A0911501B09129
:1002A00016013091120123E0230F2D3758F50196E6
:1002B000A11DB11D2093120180931301909314018D
:1002C000A0931501B0931601809117019091180128
:1002D000A0911901B0911A010196A11DB11D809341
:1002E000170190931801A0931901B0931A01BF91BF
:1002F000AF919F918F913F912F910F900FBE0F90D3
:100300001F90189526E8230F0296A11DB11DD2CF8C
:10031000789484B5826084BD84B5816084BD85B5E0
:10032000826085BD85B5816085BD80916E008160EC
:1003300080936E0010928100809181008260809392
:100340008100809181008160809381008091800094
:100350008160809380008091B10084608093B100BF
:100360008091B00081608093B00080917A008460B9
:1003700080937A0080917A00826080937A008091E5
:100380007A00816080937A0080917A0080688093FF
:100390007A001092C10010920F0110920E01C091CC
:1003A0000E01D0910F01C530D10574F4FE01EE0F9E
:1003B000FF1FE050FF4F80810E947B002196D09369
:1003C0000F01C0930E01EBCF85E090E090930F01F9
:1003D00080930E01C0910E01D0910F011C161D06D5
:1003E0000CF43FC050E0C52E50E0D52E65E0E62E5F
:1003F000F12C1092110110921001C0911001D091B6
:100400001101C330D1050CF0C5C010920F0110923C
:100410000E0100910E0110910F01053011057CF5C0
:10042000F801EE0FFF1FE050FF4FB08061E08B2D11
:100430000E949A0064E670E080E090E00E940B0168
:1004400060E08B2D0E949A0064E670E080E090E00E
:100450000E940B010F5F1F4F10930F0100930E01BD
:10046000D8CFFE01EE0FFF1FE050FF4F80810E94AA
:100470007B002197D0930F01C0930E01ABCFF09278
:100480000F01E0920E0100910E0110910F0117FD76
:1004900021C0F801EE0FFF1FE050FF4FB08061E078
:1004A0008B2D0E949A0064E670E080E090E00E944C
:1004B0000B0160E08B2D0E949A0064E670E080E002
:1004C00090E00E940B010150110910930F0100935D
:1004D0000E01D9CFC230D10509F056C010920D01DE
:1004E00010920C01A0900C01B0900D0183E0A816B1
:1004F000B1040CF049C010920B0110920A01009156
:100500000A0110910B010530110584F4F801EE0F7A
:10051000FF1FE050FF4F61E080810E949A000F5F53
:100520001F4F10930B0100930A01E9CF6AEF70E0AF
:1005300080E090E00E940B01F0920B01E0920A0132
:1005400000910A0110910B0117FD10C0F801EE0F88
:10055000FF1FE050FF4F60E080810E949A00015031
:10056000110910930B0100930A01EACF6AEF70E0C2
:1005700080E090E00E940B018FEFA81AB80AB092B9
:100580000D01A0920C01AECF2196D0931101C09322
:10059000100133CFC114D10409F42BCF0E94000005
:0605A00028CFF894FFCF04
:0A05A600080009000A000B000C0019
:00000001FF
