:100000000C9435000C945D000C945D000C945D0024
:100010000C945D000C945D000C945D000C945D00EC
:100020000C945D000C945D000C945D000C945D00DC
:100030000C945D000C945D000C945D000C945D00CC
:100040000C9420030C945D000C9490030C946A03B0
:100050000C945D000C945D000C945D000C945D00AC
:100060000C945D000C945D00550511241FBECFEF6C
:10007000D8E0DEBFCDBF22E0A6E1B2E001C01D9214
:10008000A03CB207E1F712E0A0E0B1E0ECE4F4E15B
:1000900002C005900D92A631B107D9F710E0C5E373
:1000A000D0E004C02197FE010E942308C433D10789
:1000B000C9F70E94C2030C94240A0C940000AF926A
:1000C000BF92CF92DF92EF92FF920F931F93CF9345
:1000D000DF936C017B018B01040F151FEB015E01A7
:1000E000AE18BF08C017D10759F06991D601ED913C
:1000F000FC910190F081E02DC6010995892B79F7DB
:10010000C501DF91CF911F910F91FF90EF90DF908C
:10011000CF90BF90AF900895FC01538D448D252F53
:1001200030E0842F90E0821B930B541710F0CF9691
:10013000089501970895FC01918D828D981761F0C3
:10014000A28DAE0FBF2FB11D5D968C91928D9F5FDA
:100150009F73928F90E008958FEF9FEF08952FB7D0
:10016000F89480911B0290911C02A0911D02B09105
:100170001E022FBF8093270290932802A09329028A
:10018000B0932A028FE192E00E949B0097FF26C065
:100190002FB7F89480911B0290911C02A0911D0230
:1001A000B0911E022FBF409127025091280260910A
:1001B000290270912A02841B950BA60BB70B409164
:1001C0002302509124026091250270912602841727
:1001D0009507A607B707B0F28FEF9FEF0895FC01D0
:1001E000918D828D981731F0828DE80FF11D858DEC
:1001F00090E008958FEF9FEF0895FC01918D228D7F
:10020000892F90E0805C9F4F821B91098F73992703
:1002100008958FE192E00E94FD0021E0892B09F40E
:1002200020E0822F089580E090E0892B29F00E9441
:10023000090181110C9400000895FC01A48DA80F00
:10024000B92FB11DA35ABF4F2C91848D90E0019618
:100250008F739927848FA689B7892C93A089B18938
:100260008C91837080648C93938D848D981306C0D9
:100270000288F389E02D80818F7D80830895EF923D
:10028000FF920F931F93CF93DF93EC0181E0888F50
:100290009B8D8C8D98131AC0E889F989808185FF20
:1002A00015C09FB7F894EE89FF896083E889F989C2
:1002B00080818370806480839FBF81E090E0DF91C4
:1002C000CF911F910F91FF90EF900895F62E0B8D17
:1002D00010E00F5F1F4F0F731127E02E8C8D8E11D2
:1002E0000CC00FB607FCFACFE889F989808185FF39
:1002F000F5CFCE010E941D01F1CFEB8DEC0FFD2F4C
:10030000F11DE35AFF4FF0829FB7F8940B8FEA89F3
:10031000FB8980818062CFCFCF93DF93EC01888D02
:100320008823B9F0AA89BB89E889F9898C9185FD70
:1003300003C0808186FD0DC00FB607FCF7CF8C91FE
:1003400085FFF2CF808185FFEDCFCE010E941D0198
:10035000E9CFDF91CF910895FC0101900020E9F7EA
:100360003197AF01481B590BBC018FE192E00C940F
:100370005F00009711F00C94AC0190E080E00895CC
:100380002F923F924F925F926F927F928F929F92A5
:10039000AF92BF92CF92DF92EF92FF920F931F9393
:1003A000CF93DF93CDB7DEB7A4970FB6F894DEBF37
:1003B0000FBECDBF4B015C01142FAC019B010E940D
:1003C000FC078823F9F088E191E00E94AC018C01E0
:1003D000C801A4960FB6F894DEBF0FBECDBFDF9163
:1003E000CF911F910F91FF90EF90DF90CF90BF9032
:1003F000AF909F908F907F906F905F904F903F90C5
:100400002F90089575016401E894F7F82FEF3FEFFE
:100410004FE75FE7C701B6010E94FC0781110DC0DD
:100420002FEF3FEF4FE75FE7C701B6010E948B0553
:1004300018161CF48CE191E0C8CF2FEF3FEF4FE787
:100440005FE4C501B4010E94F70718161CF480E2AE
:1004500091E0BBCF2FEF3FEF4FE75FECC501B40159
:100460000E948B0587FDF3CF20E030E0A901C50194
:10047000B4010E948B05712C612C87FF0AC06DE2CC
:100480008FE192E00E943F013C01B7FAB094B7F8C7
:10049000B094F12C60E070E080E09FE31F1541F024
:1004A00020E030E040E251E40E945607F394F6CF9A
:1004B000A50194010E94EA064B015C010E94C80755
:1004C0006AA3C72ED82EE92E19A2262F372F482F20
:1004D000592F8E010F5D1F4F0BA31CA39AE0292EED
:1004E000312C412C512CCA01B901A20191010E9469
:1004F0000108605DF80162938F0121153105410506
:10050000510589F7CF010E94B9018301080F191F16
:10051000FF2009F45DCF6AA17C2D8D2D9E2D0E94B8
:1005200090059B01AC01C501B4010E94E9064B0195
:100530005C016EE28FE192E00E943F01080F191FFB
:100540008AE0282E312C412C512CFA94FFEFFF1613
:1005500009F43ECF20E030E040E251E4C501B401AF
:100560000E94F1054B015C010E94C8079B0150E00D
:1005700040E019A2CBA0DCA0762E3AA3642EE52E93
:10058000CA01B901A20191010E940108605DF60152
:1005900062936F01211531054105510589F7CF019E
:1005A0000E94B901080F191F672D7AA1862D9E2D73
:1005B0000E9490059B01AC01C501B4010E94E906AF
:1005C0004B015C01C2CFFC0124813581232B39F41E
:1005D00021E0FB018081882349F020E007C0808171
:1005E00091810E94140A21E0892BB9F7822F089586
:1005F0000F931F93CF93DF93EC018881998100972C
:1006000059F02A813B812617370730F081E0DF91CE
:10061000CF911F910F9108958B016F5F7F4F0E94C3
:100620004E09009759F0998388831B830A832C8194
:100630003D81232B59F7FC011082E8CF80E0E7CF02
:100640001F920F920FB60F9211242F933F938F9307
:100650009F93AF93BF9380911B0290911C02A09136
:100660001D02B0911E0230911A0223E0230F2D3794
:1006700058F50196A11DB11D20931A0280931B020B
:1006800090931C02A0931D02B0931E02809116024B
:1006900090911702A0911802B09119020196A11D24
:1006A000B11D8093160290931702A0931802B09385
:1006B0001902BF91AF919F918F913F912F910F9010
:1006C0000FBE0F901F90189526E8230F0296A11DCC
:1006D000B11DD2CF1F920F920FB60F9211242F93FC
:1006E0003F934F935F936F937F938F939F93AF93BA
:1006F000BF93EF93FF938FE192E00E941D01FF9162
:10070000EF91BF91AF919F918F917F916F915F9189
:100710004F913F912F910F900FBE0F901F90189502
:100720001F920F920FB60F9211242F938F939F93C6
:10073000EF93FF93E0912F02F09130028081E091DE
:100740003502F091360282FD1BC090818091380203
:100750008F5F8F7320913902821741F0E091380248
:10076000F0E0E15EFD4F958F80933802FF91EF91AD
:100770009F918F912F910F900FBE0F901F90189502
:100780008081F4CFCF93DF93CDB7DEB728970FB634
:10079000F894DEBF0FBECDBF789484B5826084BD6F
:1007A00084B5816084BD85B5826085BD85B5816075
:1007B00085BD80916E00816080936E0010928100F3
:1007C00080918100826080938100809181008160AE
:1007D000809381008091800081608093800080916F
:1007E000B10084608093B1008091B00081608093FB
:1007F000B00080917A00846080937A0080917A00C2
:10080000826080937A0080917A00816080937A0080
:1008100080917A00806880937A001092C100E09104
:100820002F02F091300282E08083E0912B02F09160
:100830002C021082E0912D02F0912E028FEC808329
:1008400010923702E0913302F091340286E0808307
:10085000E0913102F0913202808180618083E091E9
:100860003102F0913202808188608083E091310210
:10087000F0913202808180688083E0913102F091B2
:10088000320280818F7D808380E0A82E80E0B82EA8
:1008900086E291E00E94AC0184E291E00E94AC010A
:1008A00087E291E00E94AC018CE791E00E94B901DF
:1008B0008FE192E00E94FD00892BD1F31A82198208
:1008C0001C821B821E821D8270E060E0CE010196B8
:1008D0000E94F80229813A8181112BC0211531052E
:1008E00019F0C9010E94C5081A8219821E821D8250
:1008F0001C821B820E94AF0097FD23C08F83188645
:100900000D811E810F5F1F4FB801CE0101960E941D
:10091000F802882379F329813A818D819E81BE0175
:10092000695F7F4F820F931F0E941D0A1E830D83F4
:10093000E1CF1E821D8266E271E0C9010E941D0A9C
:10094000D9CFC980DA80C114D10431F00D811E8164
:10095000760101151105B1F56AE871E0CE01019645
:100960000E94E302182F6CE871E0CE0101960E940C
:10097000E302812B09F45CC08EE891E00E94AC0197
:1009800084E291E00E94AC0142E060E070E080EA25
:1009900090E40E94C00182EB91E00E94B90189813C
:1009A0009A81009711F00E94C508A114B10409F4BE
:1009B0006FCF0E940901882309F46ACF0E940000CA
:1009C00067CF740147018FEF881A980AF701808179
:1009D000082E000C990B0E948205892B91F701507B
:1009E00011090C0D1D1DF8018081082E000C990BBA
:1009F0000E948205892B31F00E151F0518F0015059
:100A00001109F1CFA8014F5F5F4F4E195F095E8357
:100A10004D83CE14DF0420F4B701C6010E940B0AF7
:100A2000E981FA818D819E81E80FF91F108294CFB0
:100A300068EB71E0CE0101960E94E302182F6AEB89
:100A400071E0CE0101960E94E302812B71F08CEBE4
:100A500091E00E94AC0142E06AE979E985EE91E417
:100A60000E94C0018AED91E098CF66EB71E0CE0163
:100A700001960E94E302182F6FED71E0CE010196FE
:100A80000E94E302812B71F081EE91E00E94B90196
:100A900042E066E676E68EEF91E40E94C00185E0D2
:100AA00092E07BCF8EE092E078CFEFE1F2E013822C
:100AB000128288EE93E0A0E0B0E084839583A68361
:100AC000B7838AE091E09183808385EC90E09587FD
:100AD000848784EC90E09787868780EC90E0918B08
:100AE000808B81EC90E0938B828B82EC90E0958BF5
:100AF000848B86EC90E0978B868B118E128E138EF2
:100B0000148E089591110C945E06803219F089506C
:100B10008550C8F708950E94CD0508F481E0089536
:100B2000E89409C097FB3EF4909580957095619587
:100B30007F4F8F4F9F4F9923A9F0F92F96E9BB273D
:100B40009395F695879577956795B795F111F8CFB9
:100B5000FAF4BB0F11F460FF1BC06F5F7F4F8F4F24
:100B60009F4F16C0882311F096E911C0772321F01A
:100B70009EE8872F762F05C0662371F096E8862FB2
:100B800070E060E02AF09A95660F771F881FDAF709
:100B9000880F9695879597F90895990F0008550F36
:100BA000AA0BE0E8FEEF16161706E807F907C0F0F3
:100BB00012161306E407F50798F0621B730B840BFB
:100BC000950B39F40A2661F0232B242B252B21F4D5
:100BD00008950A2609F4A140A6958FEF811D811D75
:100BE00008950E9404060C9478060E946A0638F064
:100BF0000E94710620F0952311F00C9461060C946C
:100C0000670611240C94AC060E94890670F3959F28
:100C1000C1F3950F50E0551F629FF001729FBB27F3
:100C2000F00DB11D639FAA27F00DB11DAA1F649F8F
:100C30006627B00DA11D661F829F2227B00DA11D42
:100C4000621F739FB00DA11D621F839FA00D611DC8
:100C5000221F749F3327A00D611D231F849F600DE9
:100C6000211D822F762F6A2F11249F5750409AF012
:100C7000F1F088234AF0EE0FFF1FBB1F661F771F9E
:100C8000881F91505040A9F79E3F510580F00C9469
:100C900061060C94AC065F3FE4F3983ED4F386956E
:100CA00077956795B795F795E7959F5FC1F7FE2B09
:100CB000880F911D9695879597F90895992788270C
:100CC000089597F99F6780E870E060E008959FEFCE
:100CD00080EC089500240A941616170618060906D3
:100CE000089500240A9412161306140605060895A2
:100CF000092E0394000C11F4882352F0BB0F40F42A
:100D0000BF2B11F460FF04C06F5F7F4F8F4F9F4F69
:100D1000089557FD9058440F551F59F05F3F71F0EB
:100D20004795880F97FB991F61F09F3F79F0879552
:100D30000895121613061406551FF2CF4695F1DFDB
:100D400008C0161617061806991FF1CF869571056B
:100D5000610508940895E894BB2766277727CB019F
:100D600097F908952F923F924F925F926F927F92E0
:100D70008F929F92AF92BF92CF92DF92EF92FF92AB
:100D80000F931F93CF93DF93CDB7DEB7CA1BDB0B57
:100D90000FB6F894DEBF0FBECDBF09942A883988FC
:100DA00048885F846E847D848C849B84AA84B98403
:100DB000C884DF80EE80FD800C811B81AA81B9810F
:100DC000CE0FD11D0FB6F894DEBF0FBECDBFED0123
:100DD00008955058BB27AA270E9401070C94780653
:100DE0000E946A0638F00E94710620F039F49F3F95
:100DF00019F426F40C9467060EF4E095E7FB0C94C6
:100E00006106E92F0E94890658F3BA176207730733
:100E10008407950720F079F4A6F50C94AB060EF440
:100E2000E0950B2EBA2FA02D0B01B90190010C01FA
:100E3000CA01A0011124FF27591B99F0593F50F412
:100E4000503E68F11A16F040A22F232F342F44276A
:100E5000585FF3CF469537952795A795F040539562
:100E6000C9F77EF41F16BA0B620B730B840BBAF032
:100E70009150A1F0FF0FBB1F661F771F881FC2F79D
:100E80000EC0BA0F621F731F841F48F487957795B1
:100E90006795B795F7959E3F08F0B0CF9395880F6B
:100EA00008F09927EE0F9795879508950E946A0795
:100EB0000C9478060E94710658F00E946A0640F071
:100EC00029F45F3F29F00C94610651110C94AC0693
:100ED0000C9467060E94890668F39923B1F35523A1
:100EE00091F3951B550BBB27AA276217730784073D
:100EF00038F09F5F5F4F220F331F441FAA1FA9F3D3
:100F000035D00E2E3AF0E0E832D091505040E695C0
:100F1000001CCAF72BD0FE2F29D0660F771F881F21
:100F2000BB1F261737074807AB07B0E809F0BB0B14
:100F3000802DBF01FF2793585F4F3AF09E3F510528
:100F400078F00C9461060C94AC065F3FE4F3983E95
:100F5000D4F3869577956795B795F7959F5FC9F711
:100F6000880F911D9695879597F90895E1E0660F92
:100F7000771F881FBB1F621773078407BA0720F00B
:100F8000621B730B840BBA0BEE1F88F7E095089574
:100F90000E94910688F09F5798F0B92F9927B75172
:100FA000B0F0E1F0660F771F881F991F1AF0BA950D
:100FB000C9F714C0B13091F00E94AB06B1E00895BA
:100FC0000C94AB06672F782F8827B85F39F0B93FAC
:100FD000CCF3869577956795B395D9F73EF49095C0
:100FE0008095709561957F4F8F4F9F4F08950E9418
:100FF000CD0508F48FEF08950E94CD05880B990B5D
:101000000895A1E21A2EAA1BBB1BFD010DC0AA1F49
:10101000BB1FEE1FFF1FA217B307E407F50720F061
:10102000A21BB30BE40BF50B661F771F881F991FDC
:101030001A9469F760957095809590959B01AC0125
:10104000BD01CF010895EE0FFF1F0590F491E02D33
:1010500009940F931F93CF93DF938230910510F47F
:1010600082E090E0E091BE02F091BF0230E020E02B
:10107000B0E0A0E0309799F42115310509F44AC099
:10108000281B390B24303105D8F58A819B816115E5
:10109000710589F1FB0193838283FE0111C04081B8
:1010A00051810281138148175907E0F04817590709
:1010B00099F4109761F012960C93129713961C9363
:1010C0003296CF01DF91CF911F910F910895009338
:1010D000BE021093BF02F4CF2115310551F0421723
:1010E000530738F0A901DB019A01BD01DF01F801C6
:1010F000C1CFEF01F9CF9093BF028093BE02CDCF55
:10110000FE01E20FF31F819391932250310939833D
:101110002883D7CF2091BC023091BD02232B41F40C
:1011200020910201309103013093BD022093BC0253
:1011300020910001309101012115310541F42DB7B5
:101140003EB74091040150910501241B350BE091FD
:10115000BC02F091BD02E217F307A0F42E1B3F0B77
:101160002817390778F0AC014E5F5F4F2417350719
:1011700048F04E0F5F1F5093BD024093BC02819315
:1011800091939FCFF0E0E0E09CCFCF93DF93009767
:10119000E9F0FC01329713821282A091BE02B09155
:1011A000BF02ED0130E020E01097A1F420813181F1
:1011B000820F931F2091BC023091BD02281739077E
:1011C00009F061C0F093BD02E093BC02DF91CF91C2
:1011D0000895EA01CE17DF07E8F54A815B819E0199
:1011E00041155105B1F7E901FB83EA834991599112
:1011F000C40FD51FEC17FD0761F480819181029621
:10120000840F951FE90199838883828193819B8351
:101210008A83F0E0E0E012968D919C9113970097FD
:10122000B9F52D913C911197CD010296820F931F34
:101230002091BC023091BD022817390739F630974A
:1012400051F51092BF021092BE02B093BD02A0935E
:10125000BC02BCCFD383C28340815181840F951FD0
:10126000C817D90761F44E5F5F4F88819981480F95
:10127000591F518340838A819B81938382832115E7
:10128000310509F0B0CFF093BF02E093BE029ECFCC
:10129000FD01DC01C0CF13821282D7CFB0E0A0E005
:1012A000E4E5F9E00C94B4068C01009751F4CB010D
:1012B0000E9429088C01C801CDB7DEB7E0E10C948B
:1012C000D006FC01E60FF71F9C0122503109E217FE
:1012D000F30708F49DC0D901CD91DC911197C61791
:1012E000D70798F0C530D10530F3CE0104978617A3
:1012F000970708F3C61BD70B2297C193D1936D9321
:101300007C93CF010E94C508D6CF5B01AC1ABD0A01
:101310004C018C0E9D1EA091BE02B091BF02512CBB
:10132000412CF12CE12C109731F58091BC02909169
:10133000BD028815990509F05CC04616570608F0ED
:1013400058C08091000190910101009741F48DB740
:101350009EB74091040150910501841B950BE8173D
:10136000F90708F055C0F093BD02E093BC02F90103
:1013700071836083A0CF8D919C91119712966C9090
:10138000129713967C901397A815B90559F56C011F
:1013900042E0C40ED11CCA14DB0420F1AC014A198E
:1013A0005B09DA011296159780F06282738251838D
:1013B0004083D9016D937C93E114F10471F0D7015E
:1013C0001396FC93EE93129776CF22968C0F9D1F67
:1013D000F90191838083F301EFCFF093BF02E09393
:1013E000BE0269CF4816590608F42C017D01D301CD
:1013F0009ACFCB010E9429087C01009749F0AE01E9
:10140000B8010E940B0AC8010E94C508870153CF8A
:1014100010E000E050CFFB01DC0102C001900D9212
:1014200041505040D8F70895FB01DC018D910190A7
:1014300080190110D9F3990B0895FB01DC0101908B
:0C1440000D920020E1F70895F894FFCF12
:10144C000000C0028000000000003F015F008C0023
:10145C008C01FD009B00EF006E616E00696E6600F2
:10146C006F7666000D0A000D0D3D2D2044617461F0
:10147C002053657276696365202D3D200D0D562F26
:10148C0076203D20546567616E67616E0D20204C9F
:10149C002F6C203D20496E74656E736974617320E6
:1014AC004361686179610D2020542F74203D2054D4
:1014BC006865726D6F6D657465720D002D20456EDB
:1014CC0074657220646174613A00760056000D20D8
:1014DC000D3D2D20546567616E67616E202D3D0DAD
:1014EC004461746120566F6C746D65746572203D37
:1014FC00200020566F6C74006C004C000D200D3DCC
:10150C002D204C7578202D3D0D44617461204C7557
:10151C00786D65746572203D2000204C7578005400
:10152C00000D200D3D2D20546865726D6F202D3DF2
:10153C000D4461746120546865726D6F6D657465DE
:10154C0072203D20002043656C63697573000D208B
:06155C000D3430340D00D7
:00000001FF
