:100000000C945D000C9485000C9485000C94850084
:100010000C9485000C9485000C9485000C9485004C
:100020000C9485000C9485000C9485000C9485003C
:100030000C9485000C9485000C9485000C9485002C
:100040000C94A3040C9485000C9413050C94ED04FB
:100050000C9485000C9485000C9485000C9485000C
:100060000C9445050C948500000000080002010076
:100070000003040700000000000000000000000072
:10008000250028002B0000000000240027002A0083
:10009000040404040404040402020202020203032E
:1000A0000303030301020408102040800102040836
:1000B0001020010204081020640611241FBECFEF97
:1000C000D8E0DEBFCDBF22E0A6E4B1E001C01D92C2
:1000D000AA3BB207E1F711E0A0E0B1E0E6E1F6E10A
:1000E00002C005900D92A634B107D9F710E0CDE516
:1000F000D0E004C02197FE010E941109CC35D10740
:10010000C9F70E949D060C94090B0C9400000895F9
:10011000CF93DF93AC01E091AA01F091AB0130974E
:10012000F1F090910C0280910B029817C0F090E0D2
:10013000292F30E02617370754F4D901AA5BBE4FA8
:10014000240F351FE90128812C939F5FF1CF109276
:100150000C0260930B02CB01DF91CF910994DF91E8
:10016000CF910895CF93DF9390E0FC01EC55FF4FC2
:10017000249180579F4FFC0184918823C1F090E027
:10018000880F991FFC01EA57FF4FC591D491FC01DC
:10019000E458FF4FA591B4919FB7F8943881822F0E
:1001A000809583238883EC91E22BEC939FBFDF91B2
:1001B000CF91089590E0FC01E859FF4F2491FC0194
:1001C000EC55FF4F3491FC01E057FF4FE491EE23D3
:1001D000C9F0222339F0233001F1A8F4213019F1BC
:1001E000223029F1F0E0EE0FFF1FE458FF4FA591F8
:1001F000B4918FB7F894EC91611126C030953E23ED
:100200003C938FBF08952730A9F02830C9F02430DF
:1002100049F7809180008F7D03C0809180008F77A7
:1002200080938000DFCF84B58F7784BDDBCF84B52A
:100230008F7DFBCF8091B0008F778093B000D2CFBD
:100240008091B0008F7DF9CF3E2BDACF3FB7F89485
:100250008091010290910202A0910302B0910402E8
:1002600026B5A89B05C02F3F19F00196A11DB11D11
:100270003FBFBA2FA92F982F8827BC01CD01620F4D
:10028000711D811D911D42E0660F771F881F991F08
:100290004A95D1F708958F929F92AF92BF92CF92D5
:1002A000DF92EF92FF924B015C010E9426016B01ED
:1002B0007C010E9426016C197D098E099F09683E08
:1002C000734081059105A8F321E0821A9108A108E5
:1002D000B10888EEC80E83E0D81EE11CF11C811421
:1002E0009104A104B10429F7FF90EF90DF90CF9023
:1002F000BF90AF909F908F900895AF92BF92CF9292
:10030000DF92EF92FF920F931F93CF93DF936C01D5
:100310007B018B01040F151FEB015E01AE18BF08B6
:10032000C017D10759F06991D601ED91FC91019068
:10033000F081E02DC6010995892B79F7C501DF9180
:10034000CF911F910F91FF90EF90DF90CF90BF90D2
:10035000AF900895FC01538D448D252F30E0842FFC
:1003600090E0821B930B541710F0CF9608950197DD
:100370000895FC01918D828D981761F0A28DAE0FCA
:10038000BF2FB11D5D968C91928D9F5F9F73928F51
:1003900090E008958FEF9FEF0895FC01918D828D7D
:1003A000981731F0828DE80FF11D858D90E008954A
:1003B0008FEF9FEF0895FC01918D228D892F90E0A2
:1003C000805C9F4F821B91098F73992708958DE060
:1003D00092E00E94DB0121E0892B09F420E0822FCA
:1003E000089580E090E0892B29F00E94E7018111B7
:1003F0000C9400000895FC01A48DA80FB92FB11D25
:10040000A35ABF4F2C91848D90E001968F7399274A
:10041000848FA689B7892C93A089B1898C91837028
:1004200080648C93938D848D981306C00288F38921
:10043000E02D80818F7D80830895EF92FF920F934E
:100440001F93CF93DF93EC0181E0888F9B8D8C8D80
:1004500098131AC0E889F989808185FF15C09FB774
:10046000F894EE89FF896083E889F9898081837037
:10047000806480839FBF81E090E0DF91CF911F91E6
:100480000F91FF90EF900895F62E0B8D10E00F5F07
:100490001F4F0F731127E02E8C8D8E110CC00FB6DD
:1004A00007FCFACFE889F989808185FFF5CFCE0175
:1004B0000E94FB01F1CFEB8DEC0FFD2FF11DE35AF4
:1004C000FF4FF0829FB7F8940B8FEA89FB898081F8
:1004D0008062CFCFCF93DF93EC01888D8823B9F072
:1004E000AA89BB89E889F9898C9185FD03C080813F
:1004F00086FD0DC00FB607FCF7CF8C9185FFF2CFBC
:10050000808185FFEDCFCE010E94FB01E9CFDF9115
:10051000CF91089520918701260F3327331F213271
:100520003105ECF42091D201FC0190E080E0243010
:1005300069F082E00895A09187012191AC014959A9
:100540005E4FA40FB52FB11D2C930196861798F31B
:1005500080918701680F6093870180E0089581E0B2
:1005600008951092D20181E08093D1011092AC01E4
:1005700061E082E10E94DA0061E083E10E94DA003A
:10058000E9EBF0E080818E7F808380818D7F8083A6
:1005900088E48093B80085E48093BC0008951092AD
:1005A0000C0210920B0210920A02109209020E9491
:1005B000B10287E890E0909308028093070288E8F0
:1005C00090E090930602809305020895CF93DF9305
:1005D00091E0909366018823B9F0C091B800D09162
:1005E000BA008091BC008A7B8093BC0060E082E10D
:1005F0000E94DA0060E083E10E94DA000E94B1020A
:10060000D093BA00C093B800DF91CF9108950895B8
:10061000E0910C0280910B02E81730F4F0E0EA5B05
:10062000FE4F808190E008958FEF9FEF08959091A5
:100630000C0280910B022FEF3FEF981748F4E92F3F
:10064000F0E0EA5BFE4F208130E09F5F90930C0268
:10065000C901089580910B0290910C02891B990B9E
:100660000895CF92DF92EF92FF920F931F93CF9353
:10067000DF937C01CB018A012091D801222389F0EC
:10068000EB016B01C40ED51ECC15DD0569F0699137
:10069000D701ED91FC910190F081E02DC701099502
:1006A000F3CF642F0E948A02C801DF91CF911F917E
:1006B0000F91FF90EF90DF90CF900895CF93DF934D
:1006C0001F92CDB7DEB769832091D8012223F9F0BC
:1006D00020910902203258F021E030E0FC01338300
:1006E000228390E080E00F90DF91CF910895809178
:1006F0000A02E82FF0E0E752FE4F998190838F5F66
:1007000080930A028093090281E090E0ECCF61E0DF
:10071000CE0101960E948A02F7CF90E080E0089512
:100720000F931F93CF93DF93EC01888199810097FA
:1007300059F02A813B812617370730F081E0DF919D
:10074000CF911F910F9108958B016F5F7F4F0E9492
:100750003C0A009759F0998388831B830A832C8174
:100760003D81232B59F7FC011082E8CF80E0E7CFD1
:10077000FB0101900020E9F73197AF01461B570BB1
:10078000DC01ED91FC910280F381E02D099485ED6F
:100790008093BC008091D4019091D501A091D601A5
:1007A000B091D7010796A11DB11D23E0B695A7957D
:1007B000979587952A95D1F72091BC0024FD03C019
:1007C0001092D20108954091D4015091D5016091C9
:1007D000D6017091D701452B462B472B69F3009723
:1007E000A105B10541F02AE22A95F1F700C0019771
:1007F000A109B109E1CF8091D3010C94E602EF92F7
:10080000FF920F931F93CF93DF93CDB7DEB72E9751
:100810000FB6F894DEBF0FBECDBF1A8619861C86B0
:100820001B861E861D8670E060E0CE0109960E9440
:10083000900329853A85811133C02115310519F0BE
:10084000C9010E94B3091A8619861E861D861C8658
:100850001B8680910B0290910C02891B990B0297C9
:100860003CF18AEA92E00E94170389831A820D857F
:100870001E850F5F1F4FB801CE0109960E9490039D
:10088000882339F329853A858D859E85BE016F5F62
:100890007F4F820F931F0E94020B1E870D87D9CFB7
:1008A0001E861D866CE271E0C9010E94020BD1CF49
:1008B0008AEA92E00E9417034AE09E012F5F3F4FB1
:1008C0007901B9010E948308F70101900020E9F73E
:1008D0003197EE19FF09B1F00D851E850E0F1F1F10
:1008E000B801CE0109960E949003882359F029850A
:1008F0003A858D859E85B701820F931F0E94020B5A
:100900001E870D874D855E8569857A858DE092E02D
:100910000E947D016AE271E08DE092E00E94B803DE
:1009200089859A85009711F00E94B3092E960FB61B
:10093000F894DEBF0FBECDBFDF91CF911F910F9115
:10094000FF90EF9008951F920F920FB60F9211240F
:100950002F933F938F939F93AF93BF938091FD010C
:100960009091FE01A091FF01B09100023091FC0135
:1009700023E0230F2D3758F50196A11DB11D2093BB
:10098000FC018093FD019093FE01A093FF01B093C1
:1009900000028091010290910202A0910302B091A5
:1009A00004020196A11DB11D8093010290930202E1
:1009B000A0930302B0930402BF91AF919F918F91D6
:1009C0003F912F910F900FBE0F901F90189526E822
:1009D000230F0296A11DB11DD2CF1F920F920FB609
:1009E0000F9211242F933F934F935F936F937F93B5
:1009F0008F939F93AF93BF93EF93FF938DE092E01C
:100A00000E94FB01FF91EF91BF91AF919F918F9158
:100A10007F916F915F914F913F912F910F900FBEFA
:100A20000F901F9018951F920F920FB60F921124DE
:100A30002F938F939F93EF93FF93E0911D02F0917B
:100A40001E028081E0912302F091240282FD1BC0EE
:100A50009081809126028F5F8F73209127028217E9
:100A600041F0E0912602F0E0E35FFD4F958F809327
:100A70002602FF91EF919F918F912F910F900FBEC2
:100A80000F901F9018958081F4CF1F920F920FB690
:100A90000F9211242F933F934F935F936F937F9304
:100AA0008F939F93AF93BF93EF93FF938091B90080
:100AB000887F803609F44AC0F0F5883209F4A7C06F
:100AC00018F5803109F49BC0B8F4882309F4F9C003
:100AD000883009F494C0FF91EF91BF91AF919F913D
:100AE0008F917F916F915F914F913F912F910F90D7
:100AF0000FBE0F901F901895883109F488C080327E
:100B000051F78093D00114C0803409F49DC040F4A3
:100B10008033B9F38833F9F68093D00185ECB0C007
:100B2000803509F485C0883509F496C0883499F673
:100B30000E94C703D0CF883909F48CC038F58837B4
:100B400029F050F4883611F0803729F683E080933D
:100B5000D2011092A90157C0883809F47BC08039AE
:100B600019F0803809F0B7CF8091A901803208F0E0
:100B700071C0E091A90181E08E0F8093A90180915D
:100B8000BB00F0E0E757FE4F80833DC0803B39F06B
:100B9000E0F4803A09F479C0883A09F09CCF84E007
:100BA0008093D2011092880110928701E091070290
:100BB000F091080209958091870181110FC081E0B1
:100BC000809387011092670109C0803C09F4A6CF89
:100BD000883C09F4A3CF883B09F07DCFE0918801E0
:100BE00081E08E0F80938801F0E0E959FE4F80810B
:100BF0008093BB00909188018091870129C08091EA
:100C0000AD018093BB0085EC8093BC0064CF9091D4
:100C1000CF018091CE01981758F5E091CF0181E086
:100C20008E0F8093CF01F0E0E255FE4F8081E9CF37
:100C3000E091CF0181E08E0F8093CF018091BB00C6
:100C4000F0E0E255FE4F80839091CF018091CE017C
:100C50009817C8F285E8D8CFE091CF0181E08E0FD8
:100C60008093CF018091BB00F0E0E255FE4F80837E
:100C70008091D10181115CCF81E08093AC0184EA45
:100C80008093BC001092D20126CF85EC8093BC00EB
:100C90001092D2018091A901803230F4E091A90133
:100CA000F0E0E757FE4F10826091A90170E0E091FB
:100CB0000502F091060289E891E009951092A901D8
:100CC0000ACF1092D00134CFEDE0F2E0138212820D
:100CD00088EE93E0A0E0B0E084839583A683B78399
:100CE0002AE031E03183208325EC30E0358724870A
:100CF00024EC30E03787268720EC30E0318B208BE6
:100D000021EC30E0338B228B22EC30E0358B248BCE
:100D100026EC30E0378B268B118E128E138E148EBC
:100D2000EAEAF2E01382128284839583A683B78372
:100D30008CE191E0918380830895CF93DF93CDB7C9
:100D4000DEB7A1970FB6F894DEBF0FBECDBF789483
:100D500084B5826084BD84B5816084BD85B58260C0
:100D600085BD85B5816085BD80916E008160809371
:100D70006E001092810080918100826080938100DA
:100D800080918100816080938100809180008160EA
:100D9000809380008091B10084608093B100809145
:100DA000B00081608093B00080917A00846080936D
:100DB0007A0080917A00826080937A0080917A0034
:100DC000816080937A0080917A00806880937A00B5
:100DD0001092C10088E00E94B20089E00E94B20037
:100DE00013B113701093FB010E94CF02110F1093E7
:100DF000BA00E0911D02F0911E0282E08083E09132
:100E00001902F0911A021082E0911B02F0911C026B
:100E10008FEC808310922502E0912102F091220252
:100E200086E08083E0911F02F09120028081806142
:100E30008083E0911F02F09120028081886080838E
:100E4000E0911F02F0912002808180688083E09110
:100E50001F02F091200280818F7D80838091FB01B1
:100E6000823009F4D2C0833009F4D6C08FEF93E00A
:100E70009093AB018093AA016DE271E08DE092E066
:100E80000E94B8032091FB0130E050E040E019A23D
:100E90008E010F5D1F4F6AE0C62ED12CE12CF12C84
:100EA000CA01B901A70196010E94EF08605DF8012F
:100EB00062938F01211531054105510589F730975E
:100EC00029F0BF018DE092E00E94B80361E371E078
:100ED0008DE092E00E94B80385EED82E95ECC92EE5
:100EE00020E0E22E20E0F22E01E032E0B32EAA2430
:100EF000AA940E94CF028091FB01823009F0C1C008
:100F00000093D8018093F90110920A02109209020D
:100F10006CE371E08AEA92E00E94B8036091FA0102
:100F20008AEA92E00E945E0370900902F0E2F715EF
:100F300008F49CC01091F9010E9426011B012C01AC
:100F40008091D20181116DC0B092D2010093D10184
:100F5000A092D0011092CF017092CE01A9EDB1E024
:100F6000EEEAF1E07812A6C01092AD018091AD01D9
:100F7000110F182B1093AD018091AC01813009F055
:100F80009DC01092AC010E9426012B013C01809172
:100F9000AD018093BB008091D4019091D501A091C7
:100FA000D601B091D701892B8A2B8B2BA1F00E94FF
:100FB00026012091D4013091D5014091D601509164
:100FC000D701641975098609970926173707480755
:100FD000590708F447C08091BC0083FDD8CFC09268
:100FE000BC000E9426012B013C018091D20182307D
:100FF00009F467C08091D0018F3FC1F18091D00189
:101000008032A1F18091D00131C068EC70E080E0C5
:1010100090E00E944B012ACF6CE271E080E090E00A
:10102000F8CF8091D4019091D501A091D601B091D3
:10103000D701892B8A2B8B2B09F482CF0E942601A2
:101040002091D4013091D5014091D6015091D70122
:101050006219730984099509261737074807590744
:1010600008F06ECF8091D3010E94E60210920A022E
:10107000109209021092D8018091FA018D5F80933D
:10108000FA011091FB010E94CF02110F1093BA00D8
:1010900064E670E080E090E00E944B01E114F1040E
:1010A00009F427CF0E94E701882309F422CF0E9488
:1010B00000001FCF9D9191938F5F54CFD092BC00C1
:1010C00090CF8091D4019091D501A091D601B0919B
:1010D000D701892B8A2B8B2B09F487CF0E942601FD
:1010E0002091D4013091D5014091D6015091D70182
:1010F000641975098609970926173707480759079C
:1011000008F073CFAFCFBB274A3031F4992322F4D4
:10111000BDE2909581959F4F0C948F08BB27FB01F2
:101120005527AA27880F991FAA1FA41710F0A41BE0
:1011300083955051B9F7A05DAA3308F0A95DA1933A
:10114000009779F7B111B1931192CB010C94A808D3
:10115000DC01FC01672F71917723E1F7329704C01E
:101160007C916D9370836291AE17BF07C8F30895A9
:101170002F923F924F925F926F927F928F929F92A7
:10118000AF92BF92CF92DF92EF92FF920F931F9395
:10119000CF93DF93CDB7DEB7CA1BDB0B0FB6F89446
:1011A000DEBF0FBECDBF09942A88398848885F8486
:1011B0006E847D848C849B84AA84B984C884DF80F7
:1011C000EE80FD800C811B81AA81B981CE0FD11DDB
:1011D0000FB6F894DEBF0FBECDBFED010895A1E2BA
:1011E0001A2EAA1BBB1BFD010DC0AA1FBB1FEE1FA1
:1011F000FF1FA217B307E407F50720F0A21BB30BEC
:10120000E40BF50B661F771F881F991F1A9469F767
:1012100060957095809590959B01AC01BD01CF01C3
:101220000895EE0FFF1F0590F491E02D09940F93A0
:101230001F93CF93DF938230910510F482E090E00A
:10124000E091B802F091B90230E020E0B0E0A0E017
:10125000309799F42115310509F44AC0281B390B40
:1012600024303105D8F58A819B816115710589F19A
:10127000FB0193838283FE0111C040815181028171
:10128000138148175907E0F04817590799F4109748
:1012900061F012960C93129713961C933296CF011D
:1012A000DF91CF911F910F9108950093B802109391
:1012B000B902F4CF2115310551F04217530738F028
:1012C000A901DB019A01BD01DF01F801C1CFEF01E6
:1012D000F9CF9093B9028093B802CDCFFE01E20F0F
:1012E000F31F819391932250310939832883D7CFFB
:1012F0002091B6023091B702232B41F420910201D4
:10130000309103013093B7022093B602209100017F
:10131000309101012115310541F42DB73EB74091BF
:10132000040150910501241B350BE091B602F091A8
:10133000B702E217F307A0F42E1B3F0B281739075B
:1013400078F0AC014E5F5F4F2417350748F04E0F21
:101350005F1F5093B7024093B602819391939FCF42
:10136000F0E0E0E09CCFCF93DF930097E9F0FC0141
:10137000329713821282A091B802B091B902ED01A6
:1013800030E020E01097A1F420813181820F931F7B
:101390002091B6023091B7022817390709F061C0D1
:1013A000F093B702E093B602DF91CF910895EA017E
:1013B000CE17DF07E8F54A815B819E014115510593
:1013C000B1F7E901FB83EA8349915991C40FD51F15
:1013D000EC17FD0761F4808191810296840F951FBF
:1013E000E90199838883828193819B838A83F0E0DA
:1013F000E0E012968D919C9113970097B9F52D918D
:101400003C911197CD010296820F931F2091B60255
:101410003091B7022817390739F6309751F51092F5
:10142000B9021092B802B093B702A093B602BCCF33
:10143000D383C28340815181840F951FC817D90778
:1014400061F44E5F5F4F88819981480F591F518326
:1014500040838A819B81938382832115310509F022
:10146000B0CFF093B902E093B8029ECFFD01DC014A
:10147000C0CF13821282D7CFB0E0A0E0E2E4FAE05E
:101480000C94BA088C01009751F4CB010E94170903
:101490008C01C801CDB7DEB7E0E10C94D608FC01A1
:1014A000E60FF71F9C0122503109E217F30708F4F9
:1014B0009DC0D901CD91DC911197C617D70798F03F
:1014C000C530D10530F3CE0104978617970708F38E
:1014D000C61BD70B2297C193D1936D937C93CF01F9
:1014E0000E94B309D6CF5B01AC1ABD0A4C018C0E29
:1014F0009D1EA091B802B091B902512C412CF12C43
:10150000E12C109731F58091B6029091B7028815C1
:10151000990509F05CC04616570608F058C080913E
:10152000000190910101009741F48DB79EB7409161
:10153000040150910501841B950BE817F90708F089
:1015400055C0F093B702E093B602F901718360834E
:10155000A0CF8D919C91119712966C901297139633
:101560007C901397A815B90559F56C0142E0C40E9B
:10157000D11CCA14DB0420F1AC014A195B09DA0161
:101580001296159780F06282738251834083D9014D
:101590006D937C93E114F10471F0D7011396FC93E1
:1015A000EE93129776CF22968C0F9D1FF9019183AF
:1015B0008083F301EFCFF093B902E093B80269CFD3
:1015C0004816590608F42C017D01D3019ACFCB01AE
:1015D0000E9417097C01009749F0AE01B8010E94F2
:1015E000F90AC8010E94B309870153CF10E000E057
:1015F00050CFFB01DC0102C001900D9241505040E0
:10160000D8F70895FB01DC0101900D920020E1F76D
:061610000895F894FFCFDD
:101616000000BA028000000000001D027D01AA0140
:101626006A02DB01B901CD01000000005E0331034F
:101636008D0307032A03170308030D0A004D4B20E9
:1016460000207265616479202E2E2E0046726F6D21
:0616560020333A200000E1
:00000001FF
