:020000040000FA
:100000000C945D000C9485000C9485000C94850084
:100010000C9485000C9485000C9485000C9485004C
:100020000C9485000C9485000C9485000C9485003C
:100030000C9485000C9485000C9485000C9485002C
:100040000C94DF040C9485000C944F050C94290546
:100050000C9485000C9485000C9485000C9485000C
:100060000C9481050C94850000000008000201003A
:100070000003040700000000000000000000000072
:10008000250028002B0000000000240027002A0083
:10009000040404040404040402020202020203032E
:1000A0000303030301020408102040800102040836
:1000B0001020010204081020A00611241FBECFEF5B
:1000C000D8E0DEBFCDBF22E0A4E4B1E001C01D92C4
:1000D000A83BB207E1F711E0A0E0B1E0E6EBFDE1FB
:1000E00002C005900D92A434B107D9F710E0CDE518
:1000F000D0E004C02197FE010E94310ACC35D1071F
:10010000C9F70E94D9060C94D90E0C9400000895EA
:10011000CF93DF93AC01E091A801F091A901309752
:10012000F1F090910A02809109029817C0F090E0D6
:10013000292F30E02617370754F4D901AC5BBE4FA6
:10014000240F351FE90128812C939F5FF1CF109276
:100150000A0260930902CB01DF91CF910994DF91EC
:10016000CF910895CF93DF9390E0FC01EC55FF4FC2
:10017000249180579F4FFC0184918823C1F090E027
:10018000880F991FFC01EA57FF4FC591D491FC01DC
:10019000E458FF4FA591B4919FB7F8943881822F0E
:1001A000809583238883EC91E22BEC939FBFDF91B2
:1001B000CF91089590E0FC01E859FF4F2491FC0194
:1001C000EC55FF4F3491FC01E057FF4FE491EE23D3
:1001D000C9F0222339F0233001F1A8F4213019F1BC
:1001E000223029F1F0E0EE0FFF1FE458FF4FA591F8
:1001F000B4918FB7F894EC91611126C030953E23ED
:100200003C938FBF08952730A9F02830C9F02430DF
:1002100049F7809180008F7D03C0809180008F77A7
:1002200080938000DFCF84B58F7784BDDBCF84B52A
:100230008F7DFBCF8091B0008F778093B000D2CFBD
:100240008091B0008F7DF9CF3E2BDACF3FB7F89485
:100250008091FB019091FC01A091FD01B091FE0104
:1002600026B5A89B05C02F3F19F00196A11DB11D11
:100270003FBFBA2FA92F982F8827BC01CD01620F4D
:10028000711D811D911D42E0660F771F881F991F08
:100290004A95D1F708950895AF92BF92CF92DF9219
:1002A000EF92FF920F931F93CF93DF936C017B012B
:1002B0008B01040F151FEB015E01AE18BF08C017BC
:1002C000D10759F06991D601ED91FC910190F0812F
:1002D000E02DC6010995892B79F7C501DF91CF91F2
:1002E0001F910F91FF90EF90DF90CF90BF90AF9054
:1002F0000895FC01538D448D252F30E0842F90E02C
:10030000821B930B541710F0CF9608950197089510
:10031000FC01918D828D981761F0A28DAE0FBF2FD9
:10032000B11D5D968C91928D9F5F9F73928F90E02F
:1003300008958FEF9FEF08952FB7F8948091FF01F4
:1003400090910002A0910102B09102022FBF809310
:10035000130290931402A0931502B09316028BE03F
:1003600092E00E94880197FF26C02FB7F8948091F1
:10037000FF0190910002A0910102B09102022FBFF3
:10038000409113025091140260911502709116026F
:10039000841B950BA60BB70B40910F0250911002D6
:1003A000609111027091120284179507A607B70792
:1003B000B0F28FEF9FEF0895FC01918D828D981719
:1003C00031F0828DE80FF11D858D90E008958FEF5B
:1003D0009FEF0895FC01918D228D892F90E0805C24
:1003E0009F4F821B91098F73992708958BE092E0AC
:1003F0000E94EA0121E0892B09F420E0822F089570
:1004000080E090E0892B29F00E94F60181110C9484
:1004100000000895FC01A48DA80FB92FB11DA35AA7
:10042000BF4F2C91848D90E001968F739927848F14
:10043000A689B7892C93A089B1898C918370806437
:100440008C93938D848D981306C00288F389E02DD8
:1004500080818F7D80830895EF92FF920F931F9389
:10046000CF93DF93EC0181E0888F9B8D8C8D981367
:100470001AC0E889F989808185FF15C09FB7F89473
:10048000EE89FF896083E889F989808183708064BF
:1004900080839FBF81E090E0DF91CF911F910F910A
:1004A000FF90EF900895F62E0B8D10E00F5F1F4F19
:1004B0000F731127E02E8C8D8E110CC00FB607FC28
:1004C000FACFE889F989808185FFF5CFCE010E94B6
:1004D0000A02F1CFEB8DEC0FFD2FF11DE35AFF4F18
:1004E000F0829FB7F8940B8FEA89FB898081806244
:1004F000CFCFCF93DF93EC01888D8823B9F0AA8901
:10050000BB89E889F9898C9185FD03C0808186FDCE
:100510000DC00FB607FCF7CF8C9185FFF2CF80811D
:1005200085FFEDCFCE010E940A02E9CFDF91CF9186
:10053000089520918501260F3327331F213231057D
:10054000ECF42091D101FC0190E080E0243069F0CE
:1005500082E00895A09185012191AC014B595E4F35
:10056000A40FB52FB11D2C930196861798F3809197
:100570008501680F6093850180E0089581E008950A
:100580001092D10181E08093D0011092AB0161E023
:1005900082E10E94DA0061E083E10E94DA00E9EB87
:1005A000F0E080818E7F808380818D7F808388E4EE
:1005B0008093B80085E48093BC00089510920A02ED
:1005C0001092090210920802109207020E94C002C3
:1005D00087E890E0909306028093050288E890E017
:1005E00090930402809303020895CF93DF9391E0E8
:1005F000909364018823B9F0C091B800D091BA00FB
:100600008091BC008A7B8093BC0060E082E10E9404
:10061000DA0060E083E10E94DA000E94C002D09319
:10062000BA00C093B800DF91CF9108950895E0918A
:100630000A0280910902E81730F4F0E0EC5BFE4F0B
:10064000808190E008958FEF9FEF089590910A02C6
:10065000809109022FEF3FEF981748F4E92FF0E05F
:10066000EC5BFE4F208130E09F5F90930A02C9014E
:1006700008958091090290910A02891B990B0895AF
:10068000CF92DF92EF92FF920F931F93CF93DF935E
:100690007C01CB018A012091D701222389F0EB0153
:1006A0006B01C40ED51ECC15DD0569F06991D7012B
:1006B000ED91FC910190F081E02DC7010995F3CFF8
:1006C000642F0E949902C801DF91CF911F910F9171
:1006D000FF90EF90DF90CF900895CF93DF931F921C
:1006E000CDB7DEB769832091D7012223F9F020919D
:1006F0000702203258F021E030E0FC0133832283EE
:1007000090E080E00F90DF91CF91089580910802F2
:10071000E82FF0E0E852FE4F998190838F5F80933D
:1007200008028093070281E090E0ECCF61E0CE0107
:1007300001960E949902F7CF90E080E0089542E090
:1007400050E06AE271E08BE092E00C944C01CF93B0
:10075000DF93FC0101900020E9F73197AF01481BBE
:10076000590BBC018BE092E00E944C01EC010E940D
:100770009F038C0F9D1FDF91CF910895FC01808115
:100780009181009711F00C94D30A08950F931F9351
:10079000CF93DF938C01EB01FC0180819181009765
:1007A000E1F06881798161157105A9F04281538179
:1007B0002C813D814217530770F00E94220C8C81DE
:1007C0009D81F801958384831D821C82DF91CF91E6
:1007D0001F910F9108950E94D30A88819981F80191
:1007E000918380838A819B81938382838C819D8185
:1007F00095838483198218821B821A82E5CFFF9227
:100800000F931F93CF93DF93CDB7DEB7C054D14082
:100810000FB6F894DEBF0FBECDBFF12C8E010F5581
:100820001F4F8091090290910A02891B990B029730
:1008300054F088EA92E00E942603F801EF0DF11DC2
:100840008083F394EECF88EA92E00E9426031F9300
:100850000F9399279F938F938DE291E09F938F93AE
:100860008E010F5F1F4F1F930F930E94380C0E9441
:100870009F03C8010E94A7030FB6F894DEBF0FBE06
:10088000CDBFC05CDE4F0FB6F894DEBF0FBECDBF4C
:10089000DF91CF911F910F91FF9008950F931F93B8
:1008A000CF93DF93EC0188819981009759F02A81D9
:1008B0003B812617370730F081E0DF91CF911F9100
:1008C0000F9108958B016F5F7F4F0E945C0B009723
:1008D00059F0998388831B830A832C813D81232BC4
:1008E00059F7FC011082E8CF80E0E7CFEF92FF924A
:1008F0000F931F93CF93DF93EC017B018A01BA0121
:100900000E944E0428813981811114C021153105BE
:1009100019F0C9010E94D30A198218821D821C8213
:100920001B821A82CE01DF91CF911F910F91FF9010
:10093000EF9008951D830C83B701C9010E94220C1A
:10094000F1CF50E040E06CE271E00C94760485ED6C
:100950008093BC008091D3019091D401A091D501E6
:10096000B091D6010796A11DB11D23E0B695A795BC
:10097000979587952A95D1F72091BC0024FD03C057
:100980001092D10108954091D3015091D40160910A
:10099000D5017091D601452B462B472B69F3009763
:1009A000A105B10541F02AE22A95F1F700C00197AF
:1009B000A109B109E1CF8091D2010C94F5021F92F7
:1009C0000F920FB60F9211242F933F938F939F9303
:1009D000AF93BF938091FF0190910002A09101021B
:1009E000B09102023091FA0123E0230F2D3758F520
:1009F0000196A11DB11D2093FA018093FF019093F0
:100A00000002A0930102B09302028091FB01909139
:100A1000FC01A091FD01B091FE010196A11DB11D47
:100A20008093FB019093FC01A093FD01B093FE0124
:100A3000BF91AF919F918F913F912F910F900FBEDA
:100A40000F901F90189526E8230F0296A11DB11D47
:100A5000D2CF1F920F920FB60F9211242F933F9374
:100A60004F935F936F937F938F939F93AF93BF93B6
:100A7000EF93FF938BE092E00E940A02FF91EF91C7
:100A8000BF91AF919F918F917F916F915F914F91A6
:100A90003F912F910F900FBE0F901F9018951F92AE
:100AA0000F920FB60F9211242F938F939F93EF9372
:100AB000FF93E0911B02F0911C028081E0912102E2
:100AC000F091220282FD1BC09081809124028F5FF1
:100AD0008F7320912502821741F0E0912402F0E00B
:100AE000E55FFD4F958F80932402FF91EF919F91D9
:100AF0008F912F910F900FBE0F901F9018958081AE
:100B0000F4CF1F920F920FB60F9211242F933F93A1
:100B10004F935F936F937F938F939F93AF93BF9305
:100B2000EF93FF938091B900887F803609F44AC023
:100B3000F0F5883209F4A7C018F5803109F49BC09C
:100B4000B8F4882309F4F9C0883009F494C0FF91FF
:100B5000EF91BF91AF919F918F917F916F915F9135
:100B60004F913F912F910F900FBE0F901F901895AE
:100B7000883109F488C0803251F78093CF0114C0C6
:100B8000803409F49DC040F48033B9F38833F9F61A
:100B90008093CF0185ECB0C0803509F485C08835DD
:100BA00009F496C0883499F60E94A704D0CF8839FA
:100BB00009F48CC038F5883729F050F4883611F0E4
:100BC000803729F683E08093D1011092A70157C0A6
:100BD000883809F47BC0803919F0803809F0B7CF24
:100BE0008091A701803208F071C0E091A70181E0F7
:100BF0008E0F8093A7018091BB00F0E0E957FE4F74
:100C000080833DC0803B39F0E0F4803A09F479C03C
:100C1000883A09F09CCF84E08093D101109286013C
:100C200010928501E0910502F091060209958091EC
:100C3000850181110FC081E08093850110926501CB
:100C400009C0803C09F4A6CF883C09F4A3CF883BB7
:100C500009F07DCFE091860181E08E0F80938601BF
:100C6000F0E0EB59FE4F80818093BB0090918601AC
:100C70008091850129C08091AC018093BB0085ECF7
:100C80008093BC0064CF9091CE018091CD019817E4
:100C900058F5E091CE0181E08E0F8093CE01F0E017
:100CA000E355FE4F8081E9CFE091CE0181E08E0FC8
:100CB0008093CE018091BB00F0E0E355FE4F80832E
:100CC0009091CE018091CD019817C8F285E8D8CFD8
:100CD000E091CE0181E08E0F8093CE018091BB0028
:100CE000F0E0E355FE4F80838091D00181115CCF0D
:100CF00081E08093AB0184EA8093BC001092D10123
:100D000026CF85EC8093BC001092D1018091A70181
:100D1000803230F4E091A701F0E0E957FE4F1082F5
:100D20006091A70170E0E0910302F091040287E86E
:100D300091E009951092A7010ACF1092CF0134CF0C
:100D4000EBE0F2E01382128288EE93E0A0E0B0E0E4
:100D500084839583A683B7832AE031E0318320839F
:100D600025EC30E03587248724EC30E03787268770
:100D700020EC30E0318B208B21EC30E0338B228B68
:100D800022EC30E0358B248B26EC30E0378B268B41
:100D9000118E128E138E148EE8EAF2E01382128204
:100DA00084839583A683B7838CE191E091838083CC
:100DB0000895CF93DF93CDB7DEB7C25BD1090FB6ED
:100DC000F894DEBF0FBECDBF789484B5826084BD39
:100DD00084B5816084BD85B5826085BD85B581603F
:100DE00085BD80916E00816080936E0010928100BD
:100DF0008091810082608093810080918100816078
:100E00008093810080918000816080938000809138
:100E1000B10084608093B1008091B00081608093C4
:100E2000B00080917A00846080937A0080917A008B
:100E3000826080937A0080917A00816080937A004A
:100E400080917A00806880937A001092C10088E0D7
:100E50000E94B20089E00E94B20013B11370109397
:100E6000F9010E94DE02110F1093BA00E0911B02FB
:100E7000F0911C0282E08083E0911702F091180249
:100E80001082E0911902F0911A028FEC8083109287
:100E90002302E0911F02F091200286E08083E0911E
:100EA0001D02F0911E02808180618083E0911D020D
:100EB000F0911E02808188608083E0911D02F09194
:100EC0001E02808180688083E0911D02F0911E02E5
:100ED00080818F7D808388E893E1A0E0B0E08093FB
:100EE0000F0290931002A0931102B09312028FEFA1
:100EF00093E09093A9018093A8018091F9011F923A
:100F00008F9385E391E09F938F938E010F5F1F4F27
:100F10001F930F930E94380CC8010E94A7030F90E3
:100F20000F900F900F900F900F9052E0352E772476
:100F3000739444244A9435EE532E45EC642E8BE092
:100F400092E00E94EA01892B09F4FAC1C355DF4FF0
:100F500019821882CD5AD040C155DF4F19821882AC
:100F6000CF5AD040CF54DF4F19821882C15BD04096
:100F7000CE0183559F4F0E94A104C955DF4F1982AE
:100F80001882C75AD040C755DF4F19821882C95AF4
:100F9000D040C555DF4F19821882CB5AD040CE01C0
:100FA00089559F4F0E94A1041A8219821C821B82BC
:100FB0001E821D82C8010E94A1040E949C0197FD0F
:100FC00026C08F32910519F1CF55DF4F8883C15A62
:100FD000D040CE55DF4F1882C25AD040ED80FE80FF
:100FE0002FEFE21AF20AB701C8010E944E048823CB
:100FF00021F329813A818D819E81BE016F557F4FFA
:10100000820F931F0E94220CFE82ED82D6CFB80180
:10101000CE0183559F4F0E94C603C8010E94BE03A4
:10102000CF54DF4FC880D980C15BD040C114D104F8
:1010300041F0C355DF4FE881F981CD5AD040309758
:1010400021F41092AA01EAEAF1E020808824839436
:10105000912CC114D10429F4912C812CCC24C3945B
:10106000D12C1A8219821C821B821E821D82C80109
:101070000E94A104CF54DF4FE880F980C15BD040CB
:101080008E149F0478F5CE14DF0408F47601C3555E
:10109000DF4FE881F981CD5AD040EE0DFF1DD080A1
:1010A0001082C355DF4F68817981CD5AD040680DD9
:1010B000791D6115710509F4E0C0FB010190002064
:1010C000E9F73197AF01461B570BC8010E94760420
:1010D000C355DF4F88819981CD5AD040E80EF91E63
:1010E000F701D082B801CE0189559F4F0E94C603F7
:1010F000C8010E94BE03CF55DF4F19821882C15A22
:10110000D040CD55DF4F19821882C35AD040CB55FD
:10111000DF4F19821882C55AD040C955DF4F688108
:101120007981C75AD0406115710559F0C555DF4F17
:1011300048815981CB5AD040CE018F559F4F0E9494
:101140007604CB55DF4FE880F980C55AD04081E066
:101150008E0DF0ED2F0EC82ED12C882329F0E1142E
:10116000F10409F097C019820E94DE027092D70143
:101170002092F8011092080210920702A601B8010D
:1011800088EA92E00E9440036091F90188EA92E0C7
:101190000E946D038090070220E2281508F4B4C075
:1011A0009090F8010E9426016B017C018091D10191
:1011B000811185C03092D1017092D0014092CF014F
:1011C0001092CE018092CD01A8EDB1E0EDEAF1E000
:1011D0008812E7C01092AC018091AC01990C982A5A
:1011E0009092AC018091AB01813009F0DEC0109289
:1011F000AB010E9426016B017C018091AC018093C0
:10120000BB008091D3019091D401A091D501B09100
:10121000D601892B8A2B8B2BA1F00E94260180906E
:10122000D3019090D401A090D501B090D6016C1953
:101230007D098E099F0986169706A806B90608F447
:101240005FC08091BC0083FDD8CF6092BC000E943B
:1012500026016B017C018091D101823009F4A8C084
:101260008091CF018F3F09F44FC08091CF01803230
:1012700009F44AC08091CF0147C089819A810097C3
:1012800011F00E94D30A1A8219821E821D821C82CA
:101290001B821ECFC60101978E159F0508F47C01A5
:1012A000CF55DF4F68817981C15AD040A701C8016D
:1012B0000E94290CF801EE0DFF1D108255CF809180
:1012C000D3019091D401A091D501B091D601892B81
:1012D0008A2B8B2B09F46ACF0E9426012091D3011F
:1012E0003091D4014091D5015091D6016C197D09FE
:1012F0008E099F09261737074807590708F056CF68
:101300008091D2010E94F502109208021092070209
:101310001092D701F090F9010E94DE02FF0CF092CA
:10132000BA00CE018F559F4F0E94BE03CE01895552
:101330009F4F0E94BE03CE0183559F4F0E94BE0364
:101340000E9426016B017C0184E6882E912CA12C41
:10135000B12C0E9426016C197D098E099F09683EF7
:10136000734081059105A8F381E0881A9108A108CE
:10137000B10898EEC90E93E0D91EE11CF11C81144E
:101380009104A104B10429F780E090E0892B09F4CD
:10139000D6CD0E94F601882309F4CBCD0E9400002F
:1013A000C4CD9D9191938F5F13CF5092BC004FCFCE
:1013B0008091D3019091D401A091D501B091D60133
:1013C000892B8A2B8B2B09F446CF0E942601809013
:1013D000D3019090D401A090D501B090D6016C19A2
:1013E0007D098E099F0986169706A806B90608F09A
:1013F00032CF86CF2F923F924F925F926F927F9221
:101400008F929F92AF92BF92CF92DF92EF92FF9214
:101410000F931F93CF93DF93CDB7DEB7CA1BDB0BC0
:101420000FB6F894DEBF0FBECDBF09942A88398865
:1014300048885F846E847D848C849B84AA84B9846C
:10144000C884DF80EE80FD800C811B81AA81B98178
:10145000CE0FD11D0FB6F894DEBF0FBECDBFED018C
:101460000895EE0FFF1F0590F491E02D09940F935E
:101470001F93CF93DF938230910510F482E090E0C8
:10148000E091B602F091B70230E020E0B0E0A0E0D9
:10149000309799F42115310509F44AC0281B390BFE
:1014A00024303105D8F58A819B816115710589F158
:1014B000FB0193838283FE0111C04081518102812F
:1014C000138148175907E0F04817590799F4109706
:1014D00061F012960C93129713961C933296CF01DB
:1014E000DF91CF911F910F9108950093B602109351
:1014F000B702F4CF2115310551F04217530738F0E8
:10150000A901DB019A01BD01DF01F801C1CFEF01A3
:10151000F9CF9093B7028093B602CDCFFE01E20FD0
:10152000F31F819391932250310939832883D7CFB8
:101530002091B4023091B502232B41F42091020195
:10154000309103013093B5022093B4022091000141
:10155000309101012115310541F42DB73EB740917D
:10156000040150910501241B350BE091B402F09168
:10157000B502E217F307A0F42E1B3F0B281739071B
:1015800078F0AC014E5F5F4F2417350748F04E0FDF
:101590005F1F5093B5024093B402819391939FCF04
:1015A000F0E0E0E09CCFCF93DF930097E9F0FC01FF
:1015B000329713821282A091B602B091B702ED0168
:1015C00030E020E01097A1F420813181820F931F39
:1015D0002091B4023091B5022817390709F061C093
:1015E000F093B502E093B402DF91CF910895EA0140
:1015F000CE17DF07E8F54A815B819E014115510551
:10160000B1F7E901FB83EA8349915991C40FD51FD2
:10161000EC17FD0761F4808191810296840F951F7C
:10162000E90199838883828193819B838A83F0E097
:10163000E0E012968D919C9113970097B9F52D914A
:101640003C911197CD010296820F931F2091B40215
:101650003091B5022817390739F6309751F51092B5
:10166000B7021092B602B093B502A093B402BCCFF9
:10167000D383C28340815181840F951FC817D90736
:1016800061F44E5F5F4F88819981480F591F5183E4
:1016900040838A819B81938382832115310509F0E0
:1016A000B0CFF093B702E093B6029ECFFD01DC010C
:1016B000C0CF13821282D7CFB0E0A0E0E2E6FBE019
:1016C0000C94FC098C01009751F4CB010E94370A5D
:1016D0008C01C801CDB7DEB7E0E10C94180AFC011B
:1016E000E60FF71F9C0122503109E217F30708F4B7
:1016F0009DC0D901CD91DC911197C617D70798F0FD
:10170000C530D10530F3CE0104978617970708F34B
:10171000C61BD70B2297C193D1936D937C93CF01B6
:101720000E94D30AD6CF5B01AC1ABD0A4C018C0EC5
:101730009D1EA091B602B091B702512C412CF12C04
:10174000E12C109731F58091B4029091B502881583
:10175000990509F05CC04616570608F058C08091FC
:10176000000190910101009741F48DB79EB740911F
:10177000040150910501841B950BE817F90708F047
:1017800055C0F093B502E093B402F9017183608310
:10179000A0CF8D919C91119712966C9012971396F1
:1017A0007C901397A815B90559F56C0142E0C40E59
:1017B000D11CCA14DB0420F1AC014A195B09DA011F
:1017C0001296159780F06282738251834083D9010B
:1017D0006D937C93E114F10471F0D7011396FC939F
:1017E000EE93129776CF22968C0F9D1FF90191836D
:1017F0008083F301EFCFF093B702E093B60269CF95
:101800004816590608F42C017D01D3019ACFCB016B
:101810000E94370A7C01009749F0AE01B8010E948E
:10182000190CC8010E94D30A870153CF10E000E0D1
:1018300050CFFB01DC0102C001900D92415050409D
:10184000D8F70895FB01DC0101900D920020E1F72B
:101850000895FB01DC014150504048F001900D9289
:101860000020C9F701C01D9241505040E0F7089593
:10187000AEE0B0E0EEE3FCE00C94080A0D891E89AE
:1018800086E08C831A8309838FEF9FE79E838D8385
:10189000AE01475E5F4F6F89788DCE0101960E9441
:1018A0005B0C2F813885020F131FF80110822E96D2
:1018B000E4E00C94240AABE0B0E0E1E6FCE00C9438
:1018C000FA097C013B018A01FC011782168283819F
:1018D00081FFC8C1CE0101965C01F7019381F3013C
:1018E00093FD859193FF81913F01882309F453C1B2
:1018F000853239F493FD859193FF81913F018532C3
:1019000029F4B70190E00E944B0EE7CF912C212CD7
:10191000312CFFE1F31538F08B3211F190F4803265
:1019200009F1833229F137FC3CC020ED280F2A3021
:1019300050F536FE20C08AE0989E200D1124922E8C
:1019400006C08D3291F0803371F7689430F8F3015E
:1019500093FD859193FF81913F018111DACF21C0E1
:10196000689431F8689432F8F2CF689433F8EFCF86
:10197000689434F8ECCFEAE02E9E200D1124222E3C
:10198000689435F8E4CF8E3229F436FC04C16894AB
:1019900036F8DDCF8C3619F4689437F8D8CF88360E
:1019A000B1F2982F9F7D95549330E0F08336A1F1EA
:1019B0008337C1F1833509F063C02801F2E04F0E8F
:1019C000511CF801C080D180692D70E036FC02C046
:1019D0006FEF7FEFC6010E94350E4C01689437F817
:1019E00082010AC00C5F1F4FFFE3F98388248394B0
:1019F000912C6501E89437F833FE2DC0522C8114E8
:101A0000910471F5552009F468CFB70180E290E0A8
:101A10000E944B0E5A94F6CFF801808189830E5FA5
:101A20001F4FE4CF2801F2E04F0E511CF801C08097
:101A3000D180692D70E036FC02C06FEF7FEFC601E8
:101A40000E94400E4C018201D5CFB70180E290E0A8
:101A50000E944B0E2A942814190409F0B0F7CECF37
:101A6000F60137FC859137FE81916F01B70190E057
:101A70000E944B0E51105A94F1E08F1A9108BFCF7B
:101A8000843619F0893609F077C0F80137FE6BC04B
:101A900060817181828193810C5F1F4FF32DFF76EE
:101AA0003F2E97FF09C090958095709561957F4F67
:101AB0008F4F9F4F689437F82AE030E0A5010E94CD
:101AC0007B0EC82ECA188C2C432C36FE0CC0E89412
:101AD00040F8C91440F434FE05C032FC03C0F32DB5
:101AE000FE7E4F2E892C44FE95C0FE01EC0DF11DAB
:101AF0008081803309F087C0242D297E422E842DD9
:101B00008870582E43FC95C040FE8FC09C2C8214D8
:101B100018F42C0C922C981844FE91C0B70180E365
:101B200090E00E944B0E42FE09C088E790E041FE23
:101B300002C088E590E0B7010E944B0EC91408F47A
:101B40008AC0CA94D12C9FEFC91AD90ACA0CDB1CCF
:101B5000F60182916F01B70190E00E944B0EAC1428
:101B6000BD04B1F74FCF60817181072E000C880B47
:101B7000990B0E5F1F4F92CFD32CE894D4F82AE034
:101B800030E0853739F1232D297FD22E8F3601F1B0
:101B900048F48835A9F0F701868197812B96E2E118
:101BA0000C94160A803749F08837A9F7D4FE02C092
:101BB0006894D2F820E130E00DC06894D4F8F6CFF4
:101BC00034FE03C0822F8660D82E20E132E002C0AE
:101BD00028E030E0F801D7FE0FC06081718182817A
:101BE00093810C5F1F4FA5010E947B0EC82ECA185F
:101BF0003D2CE89437F867CF6081718190E080E0F8
:101C00000E5F1F4FF0CF42FC02C0839478CF8394C5
:101C1000839475CF842D867809F471CFF6CFB70100
:101C200080E290E00E944B0E83948214C0F3512C0A
:101C300073CF522C5818821408F46ECFF8CF842D2D
:101C4000867809F47BCF8BE241FE80E247FC8DE28F
:101C5000B70190E071CFB70180E390E00E944B0E96
:101C60009A946CCF8FEF9FEF99CFFC010590615054
:101C700070400110D8F7809590958E0F9F1F0895A2
:101C8000FC016150704001900110D8F7809590954B
:101C90008E0F9F1F08950F931F93CF93DF93182FDD
:101CA000092FEB018B8181FD09C01FEF0FEF812F01
:101CB000902FDF91CF911F910F91089582FF14C053
:101CC0002E813F818C819D81281739073CF4E88162
:101CD000F981CF0101969983888310838E819F813A
:101CE00001969F838E83E3CFE885F985812F09953F
:101CF000892BA1F3DACFFA01AA27283051F120313C
:101D000081F1E8946F936E7F6E5F7F4F8F4F9F4F8F
:101D1000AF4FB1E03ED0B4E03CD0670F781F891FD1
:101D20009A1FA11D680F791F8A1F911DA11D6A0F9F
:101D3000711D811D911DA11D20D009F468943F9152
:101D40002AE0269F11243019305D3193DEF6CF0151
:101D50000895462F4770405D4193B3E00FD0C9F717
:101D6000F6CF462F4F70405D4A3318F0495D31FD84
:101D70004052419302D0A9F7EACFB4E0A6959795D7
:101D8000879577956795BA95C9F7009761057105AD
:101D900008959B01AC010A2E0694579547953795F7
:101DA0002795BA95C9F7620F731F841F951FA01D51
:101DB0000895F894FFCF0000B802800000000000F2
:101DC0002C024C0179017902EA018801DC01000052
:101DD00000006D0340039C03160339032603170319
:101DE0000D0A0025642D3E202573004D4B202564EF
:0A1DF00020736961702E2E2E000092
:107E0000112484B714BE81FFF0D085E080938100F7
:107E100082E08093C00088E18093C10086E0809377
:107E2000C20080E18093C4008EE0C9D0259A86E02C
:107E300020E33CEF91E0309385002093840096BBD3
:107E4000B09BFECF1D9AA8958150A9F7CC24DD24C4
:107E500088248394B5E0AB2EA1E19A2EF3E0BF2EE7
:107E6000A2D0813461F49FD0082FAFD0023811F036
:107E7000013811F484E001C083E08DD089C08234E0
:107E800011F484E103C0853419F485E0A6D080C0E4
:107E9000853579F488D0E82EFF2485D0082F10E0AE
:107EA000102F00270E291F29000F111F8ED06801E7
:107EB0006FC0863521F484E090D080E0DECF843638
:107EC00009F040C070D06FD0082F6DD080E0C81688
:107ED00080E7D80618F4F601B7BEE895C0E0D1E017
:107EE00062D089930C17E1F7F0E0CF16F0E7DF06D8
:107EF00018F0F601B7BEE89568D007B600FCFDCFD4
:107F0000A601A0E0B1E02C9130E011968C91119780
:107F100090E0982F8827822B932B1296FA010C0160
:107F200087BEE89511244E5F5F4FF1E0A038BF0790
:107F300051F7F601A7BEE89507B600FCFDCF97BE46
:107F4000E89526C08437B1F42ED02DD0F82E2BD052
:107F50003CD0F601EF2C8F010F5F1F4F84911BD097
:107F6000EA94F801C1F70894C11CD11CFA94CF0C13
:107F7000D11C0EC0853739F428D08EE10CD085E9AC
:107F80000AD08FE07ACF813511F488E018D01DD067
:107F900080E101D065CF982F8091C00085FFFCCF94
:107FA0009093C60008958091C00087FFFCCF809118
:107FB000C00084FD01C0A8958091C6000895E0E648
:107FC000F0E098E1908380830895EDDF803219F02E
:107FD00088E0F5DFFFCF84E1DECF1F93182FE3DFCA
:107FE0001150E9F7F2DF1F91089580E0E8DFEE27F6
:047FF000FF270994CA
:027FFE00040479
:00000001FF
