:100000000C9458000C9480000C9480000C94800098
:100010000C9480000C9480000C9480000C94800060
:100020000C9480000C9480000C9480000C94800050
:100030000C9480000C9480000C9480000C94800040
:100040000C944E020C9480000C9480000C94800060
:100050000C9480000C9480000C9480000C94800020
:100060000C9498020C9480000000000025002800E9
:100070002B00040404040404040402020202020229
:10008000030303030303010204081020408001025C
:1000900004081020010204081020000000080002DB
:1000A00001000003040700000000000000000B0531
:1000B00011241FBECFEFD8E0DEBFCDBF11E0A0E01E
:1000C000B1E0E8E4FAE002C005900D92A831B10772
:1000D000D9F721E0A8E1B1E001C01D92A83EB20726
:1000E000E1F710E0C8E5D0E004C02197FE010E94CE
:1000F0001C05C735D107C9F70E94B7030C94220528
:100100000C94000090E0FC01E656FF4F2491FC01A6
:10011000EA57FF4F3491FC01EE58FF4FE491EE2374
:10012000C9F0222339F0233001F1A8F4213019F16C
:10013000223029F1F0E0EE0FFF1FE859FF4FA591A3
:10014000B4918FB7F894EC91611126C030953E239D
:100150003C938FBF08952730A9F02830C9F0243090
:1001600049F7809180008F7D03C0809180008F7758
:1001700080938000DFCF84B58F7784BDDBCF84B5DB
:100180008F7DFBCF8091B0008F778093B000D2CF6E
:100190008091B0008F7DF9CF3E2BDACF3FB7F89436
:1001A0008091E4019091E501A091E601B091E70111
:1001B00026B5A89B05C02F3F19F00196A11DB11DC2
:1001C0003FBFBA2FA92F982F8827BC01CD01620FFE
:1001D000711D811D911D42E0660F771F881F991FB9
:1001E0004A95D1F708958F929F92AF92BF92CF9286
:1001F000DF92EF92FF924B015C010E94CE006B01F7
:100200007C010E94CE006C197D098E099F09683E11
:10021000734081059105A8F321E0821A9108A10895
:10022000B10888EEC80E83E0D81EE11CF11C8114D1
:100230009104A104B10429F7FF90EF90DF90CF90D3
:10024000BF90AF909F908F9008950895089520914A
:100250005901260F3327331F21323105ECF4209149
:10026000A801FC0190E080E0243069F082E008956C
:10027000A09159012191AC01475C5E4FA40FB52FAD
:10028000B11D2C930196861798F380915901680F40
:100290006093590180E0089581E008951092A801CB
:1002A00081E08093A7011092820161E082E10E94C7
:1002B000820061E083E10E948200E9EBF0E080814E
:1002C0008E7F808380818D7F808388E48093B800D7
:1002D00085E48093BC000895CF93DF9391E09093E1
:1002E00038018823B9F0C091B800D091BA0080914C
:1002F000BC008A7B8093BC0060E082E10E948200A7
:1003000060E083E10E9482000E944E01D093BA0017
:10031000C093B800DF91CF9108950895E0918101D5
:1003200080918001E81730F4F0E0E85EFE4F8081B4
:1003300090E008958FEF9FEF089590918101809153
:1003400080012FEF3FEF981748F4E92FF0E0E85EC7
:10035000FE4F208130E09F5F90938101C901089595
:100360008091800190918101891B990B0895CF9212
:10037000DF92EF92FF920F931F93CF93DF937C0155
:10038000CB018A012091AE01222389F0EB016B01A0
:10039000C40ED51ECC15DD0569F06991D701ED912C
:1003A000FC910190F081E02DC7010995F3CF642FF6
:1003B0000E942701C801DF91CF911F910F91FF90FB
:1003C000EF90DF90CF900895CF93DF931F92CDB73A
:1003D000DEB769832091AE012223F9F02091D1018B
:1003E000203258F021E030E0FC013383228390E09A
:1003F00080E00F90DF91CF9108958091AF01E82FB9
:10040000F0E0E055FE4F998190838F5F8093AF01BC
:100410008093D10181E090E0ECCF61E0CE010196C4
:100420000E942701F7CF90E080E0089585ED80934A
:10043000BC008091AA019091AB01A091AC01B09158
:10044000AD010796A11DB11D23E0B695A79597951F
:1004500087952A95D1F72091BC0024FD03C0109206
:10046000A80108954091AA015091AB016091AC019F
:100470007091AD01452B462B472B69F30097A105E1
:10048000B10541F02AE22A95F1F700C00197A109D0
:10049000B109E1CF8091A9010C946C011F920F92D8
:1004A0000FB60F9211242F933F938F939F93AF9387
:1004B000BF938091E0019091E101A091E201B091A0
:1004C000E3013091DF0123E0230F2D3758F501962A
:1004D000A11DB11D2093DF018093E0019093E10104
:1004E000A093E201B093E3018091E4019091E501D2
:1004F000A091E601B091E7010196A11DB11D809385
:10050000E4019093E501A093E601B093E701BF9168
:10051000AF919F918F913F912F910F900FBE0F90B0
:100520001F90189526E8230F0296A11DB11DD2CF6A
:100530001F920F920FB60F9211242F933F934F9358
:100540005F936F937F938F939F93AF93BF93EF933B
:10055000FF938091B900887F803609F44AC0F0F596
:10056000883209F4A7C018F5803109F49BC0B8F4AB
:10057000882309F4F9C0883009F494C0FF91EF9101
:10058000BF91AF919F918F917F916F915F914F91AB
:100590003F912F910F900FBE0F901F9018958831AB
:1005A00009F488C0803251F78093A60114C08034CA
:1005B00009F49DC040F48033B9F38833F9F6809391
:1005C000A60185ECB0C0803509F485C0883509F4F2
:1005D00096C0883499F60E941602D0CF883909F463
:1005E0008CC038F5883729F050F4883611F0803700
:1005F00029F683E08093A80110927B0157C08838C8
:1006000009F47BC0803919F0803809F0B7CF8091A8
:100610007B01803208F071C0E0917B0181E08E0F98
:1006200080937B018091BB00F0E0E55AFE4F808310
:100630003DC0803B39F0E0F4803A09F479C0883A53
:1006400009F09CCF84E08093A80110925A01109287
:100650005901E0917E01F0917F0109958091590146
:1006600081110FC081E0809359011092390109C0B6
:10067000803C09F4A6CF883C09F4A3CF883B09F05D
:100680007DCFE0915A0181E08E0F80935A01F0E016
:10069000E75CFE4F80818093BB0090915A0180916E
:1006A000590129C0809183018093BB0085EC809320
:1006B000BC0064CF9091A5018091A401981758F5D2
:1006C000E091A50181E08E0F8093A501F0E0EC5749
:1006D000FE4F8081E9CFE091A50181E08E0F8093EC
:1006E000A5018091BB00F0E0EC57FE4F8083909114
:1006F000A5018091A4019817C8F285E8D8CFE091B0
:10070000A50181E08E0F8093A5018091BB00F0E0F0
:10071000EC57FE4F80838091A70181115CCF81E06F
:100720008093820184EA8093BC001092A80126CFB6
:1007300085EC8093BC001092A80180917B018032EF
:1007400030F4E0917B01F0E0E55AFE4F10826091B9
:100750007B0170E0E0917C01F0917D018BE591E0FF
:10076000099510927B010ACF1092A60134CF78949C
:1007700084B5826084BD84B5816084BD85B58260A6
:1007800085BD85B5816085BD80916E008160809357
:100790006E001092810080918100826080938100C0
:1007A00080918100816080938100809180008160D0
:1007B000809380008091B10084608093B10080912B
:1007C000B00081608093B00080917A008460809353
:1007D0007A0080917A00826080937A0080917A001A
:1007E000816080937A0080917A00806880937A009B
:1007F0001092C10061E070E080E090E00E94F300A0
:1008000010928101109280010E944E0185E291E0D8
:1008100090937F0180937E0186E291E090937D0129
:1008200080937C01D1E014E005EE85ECD82E90E0B9
:10083000E92E90E0F92E22E0C22EBB24BA94D09388
:10084000AE011093D0011092AF011092D10144E09B
:1008500050E062E171E083ED91E00E94B7016091A8
:10086000D20183ED91E00E94E401A090D10180E2E9
:100870008A1508F48FC0C091D0010E94CE002B01D0
:100880003C018091A801811160C0C092A801D09361
:10089000A701B092A6011092A501A092A401A0EB1D
:1008A000B1E0E4E8F1E0A8128DC0109283018091DC
:1008B0008301CC0FC82BC0938301809182018130CA
:1008C00009F084C0109282010E94CE002B013C01ED
:1008D000809183018093BB008091AA019091AB012C
:1008E000A091AC01B091AD01892B8A2B8B2B99F093
:1008F0000E94CE002091AA013091AB014091AC0141
:100900005091AD01641975098609970926173707B3
:1009100048075907D8F18091BC0083FDD9CFD09208
:10092000BC000E94CE002B013C018091A8018230C6
:1009300009F44FC08091A6018F3F61F18091A6011B
:10094000803241F18091A60125C08091AA01909149
:10095000AB01A091AC01B091AD01892B8A2B8B2BFF
:1009600009F48FCF0E94CE002091AA013091AB01F3
:100970004091AC015091AD01641975098609970940
:10098000261737074807590708F07BCF8091A90140
:100990000E946C011092AF011092D1011092AE0131
:1009A0008091D2018F5F8093D20164EF71E080E08B
:1009B00090E00E94F300E114F10409F440CF0E949A
:1009C00000003DCF9D9191938F5F6DCF0093BC0050
:1009D000A8CF8091AA019091AB01A091AC01B091F8
:1009E000AD01892B8A2B8B2B09F49FCF0E94CE005F
:1009F0002091AA013091AB014091AC015091AD0121
:100A00006419750986099709261737074807590792
:100A100008F08BCFBBCFE3EDF1E01382128288EEBA
:100A200093E0A0E0B0E084839583A683B78384E05D
:100A300091E0918380830895EE0FFF1F0590F4915C
:080A4000E02D0994F894FFCFAA
:100A480000000000E401B70113028D01B0019D010F
:080A58008E0178203D20000012
:00000001FF
