:100000000C945C000C9479000C9479000C947900A9
:100010000C9479000C9479000C9479000C9479007C
:100020000C9479000C9479000C9479000C9479006C
:100030000C9479000C9479000C9479000C9479005C
:100040000C943E010C9479000C9479000C94790086
:100050000C9479000C9479000C9479000C9479003C
:100060000C9479000C947900000000080002010053
:100070000003040700000000000000000000000072
:10008000250028002B0000000000240027002A0083
:10009000040404040404040402020202020203032E
:1000A0000303030301020408102040800102040836
:1000B000102001020408102011241FBECFEFD8E049
:1000C000DEBFCDBF11E0A0E0B1E0E8ECF4E002C09B
:1000D00005900D92AA30B107D9F721E0AAE0B1E06E
:1000E00001C01D92A531B207E1F70E9488010C946E
:1000F00062020C94000090E0FC01EC55FF4F24914B
:1001000080579F4FFC018491882399F090E0880FDD
:10011000991FFC01EA57FF4FA591B491FC01E458E7
:10012000FF4F859194918FB7F894EC91E22BEC936B
:100130008FBF089590E0FC01E859FF4F2491FC0126
:10014000EC55FF4F3491FC01E057FF4FE491EE2353
:10015000C9F0222339F0233001F1A8F4213019F13C
:10016000223029F1F0E0EE0FFF1FE458FF4FA59178
:10017000B4918FB7F894EC91611126C030953E236D
:100180003C938FBF08952730A9F02830C9F0243060
:1001900049F7809180008F7D03C0809180008F7728
:1001A00080938000DFCF84B58F7784BDDBCF84B5AB
:1001B0008F7DFBCF8091B0008F778093B000D2CF3E
:1001C0008091B0008F7DF9CF3E2BDACF3FB7F89406
:1001D0008091110190911201A0911301B09114012D
:1001E00026B5A89B05C02F3F19F00196A11DB11D92
:1001F0003FBFBA2FA92F982F8827BC01CD01620FCE
:10020000711D811D911D42E0660F771F881F991F88
:100210004A95D1F708958F929F92AF92BF92CF9255
:10022000DF92EF92FF926B017C010E94E6004B018E
:100230005C01C114D104E104F104B9F00E94E600AC
:10024000681979098A099B09683E734081059105FF
:1002500080F321E0C21AD108E108F10888EE880E87
:1002600083E0981EA11CB11CE4CFFF90EF90DF90BB
:10027000CF90BF90AF909F908F9008951F920F9254
:100280000FB60F9211242F933F938F939F93AF93A9
:10029000BF9380910D0190910E01A0910F01B0913B
:1002A000100130910C0123E0230F2D3758F50196F2
:1002B000A11DB11D20930C0180930D0190930E019F
:1002C000A0930F01B0931001809111019091120140
:1002D000A0911301B09114010196A11DB11D80934D
:1002E000110190931201A0931301B0931401BF91D7
:1002F000AF919F918F913F912F910F900FBE0F90D3
:100300001F90189526E8230F0296A11DB11DD2CF8C
:10031000789484B5826084BD84B5816084BD85B5E0
:10032000826085BD85B5816085BD80916E008160EC
:1003300080936E0010928100809181008260809392
:100340008100809181008160809381008091800094
:100350008160809380008091B10084608093B100BF
:100360008091B00081608093B00080917A008460B9
:1003700080937A0080917A00826080937A008091E5
:100380007A00816080937A0080917A0080688093FF
:100390007A001092C10010920B0110920A01C091D4
:1003A0000A01D0910B01C530D10574F4FE01EE0FA6
:1003B000FF1FE050FF4F80810E947B002196D09369
:1003C0000B01C0930A01EBCF85E090E090930B0105
:1003D00080930A01C0910A01D0910B01C230D1056E
:1003E0008CF505E010E030E0E32E30E0F32E1092C3
:1003F0000B0110920A01C0910A01D0910B01C53086
:10040000D10574F5FE01EE0FFF1FE050FF4FD080C5
:1004100061E08D2D0E949A006AEF70E080E090E02C
:100420000E940B0160E08D2D0E949A006AEF70E03F
:1004300080E090E00E940B012196D0930B01C093C5
:100440000A01D9CFFE01EE0FFF1FE050FF4F808160
:100450000E947B002197D0930B01C0930A01BACF71
:1004600010930B0100930A01C0910A01D0910B0176
:10047000C230D10504F1FE01EE0FFF1FE050FF4F27
:10048000D08061E08D2D0E949A006AEF70E080E0DC
:1004900090E00E940B0160E08D2D0E949A006AEFAF
:1004A00070E080E090E00E940B012197D0930B0157
:1004B000C0930A01D9CFE114F10409F498CF0E9446
:0804C000000095CFF894FFCF76
:0A04C800080009000A000B000C00F8
:00000001FF
